:100000000C9434000C9451000C9451000C94510049
:100010000C94AA030C9451000C9451000C945100C0
:100020000C9451000C9451000C9451000C9451000C
:100030000C9451000C9451000C9451000C945100FC
:100040000C9451000C9451000C9451000C945100EC
:100050000C9451000C9451000C9451000C945100DC
:100060000C9451000C94510011241FBECFEFD8E026
:10007000DEBFCDBF13E0A0E0B1E0E0E7FEE102C0EB
:1000800005900D92A83AB107D9F713E0A8EAB3E0BA
:1000900001C01D92A43DB107E1F70E94B7050C9481
:1000A000360F0C9400008FE290E09093C50080938F
:1000B000C400E1ECF0E08081886080838081806111
:1000C0008083E2ECF0E08081866080830895FC010B
:1000D00006C08091C00085FFFCCF9093C60091912F
:1000E0009923B9F70895982F8091C00085FFFCCF20
:1000F0009093C60008958091C00087FFFCCF809147
:10010000C6000895BF92CF92DF92EF92FF920F93B5
:100110001F93CF93DF93B82EFB01D901E70141155F
:10012000510531F40115110519F490E080E054C037
:1001300084EA8093BC008091BC0087FFFCCF909143
:10014000B900987F983009F09FC08B2D8E7F8093E7
:10015000BB0084E88093BC008091BC0087FFFCCF8B
:100160009091B900987F9831B1F0903209F08CC02D
:1001700088C080818093BB002093BC008091BC002C
:1001800087FFFCCF9091B900987F41505040983242
:10019000C9F4319601C024E84115510551F716C044
:1001A0008C918093BB002093BC008091BC0087FFA2
:1001B000FCCF9091B900987F01501040983211F413
:1001C000119605C0903309F05FC05BC024E80115AB
:1001D000110531F791E081E0C114D10409F44EC05A
:1001E000882311F428E001C020E184EA8093BC0058
:1001F0008091BC0087FFFCCF9091B900987F921747
:1002000009F042C081E0B82AB092BB0084E8809334
:10021000BC008091BC0087FFFCCF9091B900987F13
:10022000903419F0983481F52CC00894C108D10895
:1002300024EC11C02093BC008091BC0087FFFCCF50
:100240009091B900987F0894C108D1089035E1F4E5
:100250008091BB008993C114D10461F784E8809335
:10026000BC008091BC0087FFFCCF9091B900987FC3
:10027000983551F48091BB00888302C0992321F006
:1002800090E084E98093BC00892FDF91CF911F918A
:100290000F91FF90EF90DF90CF90BF900895109254
:1002A000B9008DE18093B80008958EEF0E9473002D
:1002B00081E50E94730008951F93813039F08130E9
:1002C00038F0823039F0833049F406C010E407C0BA
:1002D00010E005C014E103C014E501C01FEF160FC4
:1002E0008EEF0E94730085E40E947300812F0E94AC
:1002F000730080E197E228EB30E0F9013197F1F7E4
:100300000197D9F71F91089584EC99E028EB30E02C
:10031000F9013197F1F70197D9F784EC99E028EBCF
:1003200030E0F9013197F1F70197D9F78EEF0E948C
:10033000730081E50E94730008950E94670008958C
:10034000EF92FF920F931F93CF93DF938C01C0E046
:10035000D0E0E62EFF240BC08C2F60E00E945C01F1
:10036000F801819191918F010E9467002196CE152D
:10037000DF0594F3DF91CF911F910F91FF90EF90E4
:100380000895ECE7F0E08081806480838081806262
:100390008083EAE7F0E080818760808380818068E5
:1003A0008083089590917C00907F90937C00909141
:1003B0007C008F70892B80937C0080917A00806410
:1003C00080937A0080917A0086FDFCCF809179003D
:1003D0000895529A5A9880E090E90197F1F75A9A55
:1003E000089552984A99FECF4A9BFECF4A99FECF74
:1003F000089520E030E080E049E44A9BFECF942F4E
:100400009A95F1F74A9B03C0880F816001C0880F5D
:100410004A99FECF2F5F3F4F2830310571F708957D
:10042000CF92DF92FF920F931F93CF93DF9384E0DD
:1004300090E00E94890B8C010E94E9010E94F10169
:10044000E801FF2484E0C82ED12CC00ED11E0E94EA
:10045000F9018993F80ECC15DD05C9F70E94F90161
:10046000F81611F000E010E0C801DF91CF911F9164
:100470000F91FF90DF90CF90089529B1332727FD8A
:100480003095209530952227330F221F3327C9013D
:1004900008954F99FECF5F9A82E0982F9A95F1F7D1
:1004A00028988A95F1F74F99FECF40E050E090E010
:1004B00022E0289A822F8A95F1F7440F551F289839
:1004C000822F8A95F1F74F9B02C04F5F5F4F9F5F6E
:1004D000983179F7289A82E0282F2A95F1F7289801
:1004E0008A95F1F7BA0180E090E00895803439F000
:1004F000803819F0803241F404C081E003C083E009
:1005000001C082E08093B20328980E9449020895B6
:10051000209A57985F9A0E9476020895CF92DF92B0
:10052000EF92FF920F931F93C82EEE24FF248701B2
:10053000DD2407C00E944902E60EF71E081F191F9E
:10054000D394DC14B8F32C2D30E040E050E0C80127
:10055000B7010E941C0BCA01B9011F910F91FF90B6
:10056000EF90DF90CF9008950E948E020E94F408D1
:100570002091AE033091AF034091B0035091B1038D
:100580000E94EA0708950E94B4022091B3033091BB
:10059000B4034091B5035091B6030E9448080895F2
:1005A0000E948E020E94F4086093AE037093AF0322
:1005B0008093B0039093B10308956093B303709355
:1005C000B4038093B5039093B60308952091B303C9
:1005D0003091B4034091B5035091B603B901CA01FB
:1005E00008956093AE037093AF038093B00390932C
:1005F000B10308952091AE033091AF034091B00351
:100600005091B103B901CA0108952898289A8CEA3B
:100610008A95F1F708952898089540E027E030E0A2
:10062000289A89B190E080789070022E02C0880FDD
:10063000991F0A94E2F7482B2898215030408FEFF9
:100640002F3F380769F7842F089585E00E94D20173
:10065000089588B1886188B980916800826080932C
:10066000680080916C00886180936C00789486B1FA
:10067000982F907183FD07C0992319F41092B70346
:1006800009C081E005C0992311F482E001C083E034
:100690008093B7038091B7038093B903089586B11F
:1006A000982F9071282F28708091B703882351F4D8
:1006B000992321F081E08093B90328C0222381F19E
:1006C00082E02AC03091B703313069F4992319F4DC
:1006D0001092B90323C0222319F183E08093B90358
:1006E0003093B8031DC08091B703823049F4992339
:1006F00011F083E011C0222399F41092B90305C0D0
:10070000992339F482E08093B90381E08093B803A0
:1007100007C0222329F481E08093B9031092B80323
:100720009091B9038091B703981739F081E08093D5
:10073000BA038091B9038093B7030895E8E6F0E027
:10074000808182608083ECE6F0E080818861808334
:10075000789408951F920F920FB60F9211242F9341
:100760003F934F935F936F937F938F939F93AF9339
:10077000BF93EF93FF930E944F03FF91EF91BF91BF
:10078000AF919F918F917F916F915F914F913F9129
:100790002F910F900FBE0F901F901895482F83B187
:1007A00090E0042E02C0959587950A94E2F780FFA9
:1007B00002C080E0089580E094E20197F1F721E023
:1007C00030E002C0220F331F4A95E2F783B190E078
:1007D00082239323892BD1F380E094E20197F1F7F0
:1007E00081E008950F931F93DF93CF93CDB7DEB7CA
:1007F00065970FB6F894DEBF0FBECDBF00D000D016
:1008000000D0EDB7FEB731968E010F5F1F4FADB729
:10081000BEB712961C930E93119780E091E09383DC
:10082000828380919802848315820E94950C8DB7F3
:100830009EB706960FB6F8949EBF0FBE8DBF82E09E
:1008400060E00E945C01C8010E949D0165960FB6A0
:10085000F894DEBF0FBECDBFCF91DF911F910F91F6
:100860000895EF92FF921F93CF93DF937C01EB01EA
:10087000142F8091B80348818823D9F1242F30E0C8
:10088000812F90E001972817390711F4188202C0D0
:100890004F5F488382E060E00E945C01888190E0C5
:1008A000612F70E00E94090BE82FF0E0EE0FFF1FB0
:1008B000EE0DFF1D808191810E949D0183E060E02B
:1008C0000E945C01888190E00196612F70E00E9497
:1008D000090BE82FF0E0EE0FFF1FEE0DFF1D8081EA
:1008E00091810E949D01DF91CF911F91FF90EF9028
:1008F0000895442321F4115018831F5FCBCF41503A
:10090000C8CF0F931F93DF93CF93CDB7DEB7C455F6
:10091000D0400FB6F894DEBF0FBECDBF8091C803A4
:100920009091C9030E94360C8091CA039091CB0329
:100930000E94360C8091CC039091CD030E94360C1E
:100940008091CE039091CF030E94360C00D000D04E
:1009500000D0EDB7FEB731968E010F5F1F4FADB7D8
:10096000BEB712961C930E9311978FE091E093837C
:1009700082838091BB03848315820E94950CF801C9
:1009800001900020E9F78DB79EB706960FB6F89450
:100990009EBF0FBE8DBFCF01801B910B0E94890BA4
:1009A0008093C8039093C903B8010E948E0CADB721
:1009B000BEB718970FB6F894BEBF0FBEADBFEDB768
:1009C000FEB731968E010A5E1F4F12961C930E934E
:1009D00011978DE191E0938382838091BC0384839E
:1009E00015828091BD03868317820E94950CF801C1
:1009F00001900020E9F78DB79EB708960FB6F894DE
:100A00009EBF0FBE8DBFCF01801B910B0E94890B33
:100A10008093CA039093CB03B8010E948E0CADB7AC
:100A2000BEB718970FB6F894BEBF0FBEADBFEDB7F7
:100A3000FEB731968E01055D1F4F12961C930E93E3
:100A4000119782E391E0938382838091BE03848334
:100A500015828091BF03868317820E94950CF8014E
:100A600001900020E9F78DB79EB708960FB6F8946D
:100A70009EBF0FBE8DBFCF01801B910B0E94890BC3
:100A80008093CC039093CD03B8010E948E0C00D0CC
:100A900000D000D0EDB7FEB731968E01005C1F4F3D
:100AA000ADB7BEB712961C930E93119785E491E0F3
:100AB000938382838091C003848315820E94950C66
:100AC000F80101900020E9F78DB79EB706960FB6A2
:100AD000F8949EBF0FBE8DBFCF01801B910B0E946B
:100AE000890B8093CE039093CF03B8010E948E0CA4
:100AF000CC5ADF4F0FB6F894DEBF0FBECDBFCF91FB
:100B0000DF911F910F9108950E9425038093BB03ED
:100B10008091AC039091AD030E94360C0E941002AC
:100B2000FC019093AD038093AC0380818093BE035E
:100B300081818093BF0382818093BC0383818093F2
:100B4000BD031092C00308950E9453000E948401C7
:100B500088EA91E064E00E94A0010E944F010E9497
:100B6000C1010E94290380E80E94880208951F9312
:100B7000CF93DF930E94A405299A80E197E228EBA6
:100B800030E0F9013197F1F70197D9F71092C703D7
:100B90000E94550186E392E062E00E94A00184E099
:100BA00092E068EA73E044E00E9431040E94840508
:100BB00012E0C8EBD0E08091C7038823C1F5809193
:100BC000BA03882349F084E092E068EA73E044E0E5
:100BD0000E9431041092BA0381E00E94CE03882360
:100BE00051F38091A803882389F481E08093C7039F
:100BF0000E9481040E9455018FE492E062E00E940D
:100C0000A00188EC93E069EA73E094C0813099F622
:100C10001093C7030E94550186E392E062E00E94B0
:100C2000A00188E692E06AEA73E041E084C0813086
:100C3000B1F48091BA03882349F088EC93E069EA23
:100C400073E044E00E9431041092BA0381E00E94F4
:100C5000CE03882309F4AFCF1092C70360C082305F
:100C600009F0A9CF8091BA03882369F08091AB0382
:100C7000882349F488E692E06AEA73E041E00E9442
:100C800031041092BA0381E00E94CE03882361F000
:100C900081E08093AB030E94550184E992E062E019
:100CA0000E94A0010E94F2038091AB03882309F403
:100CB00082CF8091BA03882399F08091B8039091F4
:100CC0009802882321F0903538F49F5F03C09D334C
:100CD00018F09150909398020E94F2031092BA0378
:100CE00081E00E94CE03882309F465CF80919802A9
:100CF0008093C2031092AB031092C7030E94550168
:100D000081E060E00E945C0184E591E00E949D0129
:100D100080E197E2FE013197F1F70197D9F70E9440
:100D2000550186E392E062E00E94A00184E092E037
:100D300068EA73E044E00E9431043DCFA0E0B0E0F7
:100D4000E4EAF6E00C94520BDC012B01FA019C91D1
:100D5000923008F439C1EB018881823008F433C144
:100D6000943069F4843009F02FC111969C91119749
:100D70008981981709F428C1A9E9B2E025C1843016
:100D800009F421C18230A9F4923009F01DC19A0101
:100D9000AD0188E0EA010990AE01E90109929E01E6
:100DA0008150C1F7E201898111969C918923818349
:100DB00008C1923009F407C112962D903C90139708
:100DC000EB018A819B811496AD90BD90CD90DC9013
:100DD0001797EC80FD800E811F819101281B390B34
:100DE000B90137FF04C066277727621B730B603297
:100DF00071050CF061C0121613066CF5370148013D
:100E0000062E04C096948794779467940A94D2F738
:100E100021E030E040E050E004C0220F331F441FC7
:100E2000551F6A95D2F721503040404050402E2146
:100E30003F2140235123211531054105510521F062
:100E400021E030E040E050E079018A01E628F7280F
:100E5000082919293CC0232BD1F1260E371E350154
:100E60004601062E04C096948794779467940A945A
:100E7000D2F721E030E040E050E004C0220F331F01
:100E8000441F551F6A95D2F72150304040405040D2
:100E90002A213B214C215D212115310541055105B8
:100EA00021F021E030E040E050E059016A01A6283D
:100EB000B728C828D9280BC0821593052CF01C012F
:100EC000AA24BB24650103C0EE24FF2487011196E8
:100ED0009C91D20111968C91981709F445C09923E1
:100EE00039F0A80197012A193B094C095D0906C090
:100EF000A60195012E193F09400B510B57FD08C063
:100F000011823382228224833583468357831DC016
:100F100081E081833382228288279927DC01821B2A
:100F2000930BA40BB50B84839583A683B7830DC065
:100F3000220F331F441F551F248335834683578355
:100F400082819381019793838283248135814681B5
:100F50005781DA01C9010197A109B1098F5F9F4F3C
:100F6000AF4FBF4328F30BC0918333822282EA0C38
:100F7000FB1C0C1D1D1DE482F5820683178383E094
:100F80008083248135814681578157FF1AC0C9016A
:100F9000AA2797FDA095BA2F81709070A070B070AD
:100FA0005695479537952795822B932BA42BB52BD8
:100FB00084839583A683B7838281938101969383EB
:100FC0008283DF0101C0D201CD01CDB7DEB7E2E1FE
:100FD0000C946E0BA0E2B0E0E0EFF7E00C945E0B37
:100FE00069837A838B839C832D833E834F835887C9
:100FF000E9E0EE2EF12CEC0EFD1ECE010196B701BC
:101000000E94910A8E010F5E1F4FCE010596B80116
:101010000E94910A8A8991E089278A8BC701B801C9
:10102000AE01475E5F4F0E949E060E94BC09A096DB
:10103000E6E00C947A0BA0E2B0E0E1E2F8E00C9478
:101040005E0B69837A838B839C832D833E834F83DE
:101050005887F9E0EF2EF12CEC0EFD1ECE01019623
:10106000B7010E94910A8E010F5E1F4FCE010596B7
:10107000B8010E94910AC701B801AE01475E5F4FF7
:101080000E949E060E94BC09A096E6E00C947A0B92
:10109000A8E1B0E0EEE4F8E00C945A0B69837A839F
:1010A0008B839C832D833E834F835887B9E0EB2E3F
:1010B000F12CEC0EFD1ECE010196B7010E94910AA3
:1010C0008E010F5E1F4FCE010596B8010E94910A56
:1010D0002985223008F47EC03989323010F4B801F5
:1010E0007CC08A859A8989278A87243011F022302A
:1010F00031F4231709F06EC069E972E06EC0343034
:1011000039F41D861E861F86188A1C861B8604C01D
:10111000323021F484E08987B7015FC02B853C859C
:101120008B899C89281B390B3C872B87ED84FE8497
:101130000F851889AD88BE88CF88D88CEA14FB0447
:101140000C051D0540F4EE0CFF1C001F111F215063
:1011500030403C872B8720E030E040E050E080E0EA
:1011600090E0A0E0B0E460E070E0EA14FB040C055D
:101170001D0540F0282B392B4A2B5B2BEA18FB0866
:101180000C091D09B695A79597958795EE0CFF1C40
:10119000001F111F6F5F7F4F6F31710531F7DA014B
:1011A000C9018F779070A070B07080349105A1054F
:1011B000B10561F427FD0AC0E114F1040105110530
:1011C00029F0205C3F4F4F4F5F4F20782D873E879F
:1011D0004F87588BBE01675F7F4FCB010E94BC09D0
:1011E0006896EAE00C94760BA8E0B0E0EAEFF8E04D
:1011F0000C945A0B7B018C016115710581059105D9
:1012000019F482E0898360C083E089838EE1C82E6F
:10121000D12CDC82CB82ED82FE820F831887C8013D
:10122000B7010E946D09FC013197F7FF3BC02227EF
:1012300033272E1B3F0B57016801022E04C0D694A2
:10124000C794B794A7940A94D2F740E050E060E0C6
:1012500070E081E090E0A0E0B0E004C0880F991F4A
:10126000AA1FBB1F2A95D2F70197A109B1098E21A8
:101270009F21A023B1230097A105B10521F041E0F2
:1012800050E060E070E04A295B296C297D294D839C
:101290005E836F8378878EE190E08E1B9F0B9C832B
:1012A0008B8312C0309781F00E2E04C0EE0CFF1C11
:1012B000001F111F0A94D2F7ED82FE820F83188758
:1012C000CE1ADF0ADC82CB821A82CE0101960E94FE
:1012D000BC092896EAE00C94760BEF92FF920F93EC
:1012E0001F937B018C0180E0E81680E0F80681E026
:1012F000080780E0180788F48FEFE816F10401056D
:10130000110531F028F088E090E0A0E0B0E017C0CF
:1013100080E090E0A0E0B0E012C080E0E81680E05D
:10132000F80680E0080781E0180728F088E190E0DF
:10133000A0E0B0E004C080E190E0A0E0B0E020E2F6
:1013400030E040E050E0281B390B4A0B5B0B04C037
:1013500016950795F794E7948A95D2F7F701EF551C
:10136000FD4F8081281B310941095109C9011F9195
:101370000F91FF90EF900895DF92EF92FF920F93FD
:101380001F93FC01E480F58006811781D180808164
:10139000823048F480E090E0A0E1B0E0E82AF92A49
:1013A0000A2B1B2BA5C0843009F49FC0823021F486
:1013B000EE24FF24870105C0E114F10401051105A5
:1013C00019F4E0E0F0E096C0628173819FEF62382B
:1013D00079070CF05BC022E83FEF261B370B2A3160
:1013E00031052CF020E030E040E050E02AC0B801A8
:1013F000A701022E04C076956795579547950A94E4
:10140000D2F781E090E0A0E0B0E004C0880F991F1F
:10141000AA1FBB1F2A95D2F70197A109B1098E21F6
:101420009F21A023B1230097A105B10521F081E000
:1014300090E0A0E0B0E09A01AB01282B392B4A2BB9
:101440005B2BDA01C9018F779070A070B070803487
:101450009105A105B10539F427FF09C0205C3F4F74
:101460004F4F5F4F04C0215C3F4F4F4F5F4FE0E055
:10147000F0E02030A0E03A07A0E04A07A0E45A07D5
:1014800010F0E1E0F0E079018A0127C060387105D1
:1014900064F5FB01E158FF4FD801C7018F779070C9
:1014A000A070B07080349105A105B10539F4E7FE54
:1014B0000DC080E490E0A0E0B0E004C08FE390E0D5
:1014C000A0E0B0E0E80EF91E0A1F1B1F17FF05C0C1
:1014D00016950795F794E794319687E0169507954A
:1014E000F794E7948A95D1F705C0EE24FF2487018D
:1014F000EFEFF0E06E2F679566276795902F9F7747
:10150000D794DD24D7948E2F8695492F462B582FBC
:101510005D29B701CA011F910F91FF90EF90DF90F5
:101520000895FC01DB01408151812281622F6F7798
:1015300070E0221F2227221F9381892F880F822B80
:10154000282F30E0991F9927991F11969C93119786
:1015500021153105A9F5411551056105710511F4F4
:1015600082E037C082E89FEF13969C938E93129788
:101570009A01AB0167E0220F331F441F551F6A9584
:10158000D1F783E08C930DC0220F331F441F551FEA
:1015900012968D919C911397019713969C938E931D
:1015A0001297203080E0380780E0480780E4580731
:1015B00058F314962D933D934D935C93179708958C
:1015C0002F3F310579F4411551056105710519F475
:1015D00084E08C93089564FF03C081E08C9312C073
:1015E0001C9210C02F57304013963C932E931297A5
:1015F00083E08C9387E0440F551F661F771F8A9501
:10160000D1F7706414964D935D936D937C93179707
:10161000089597FB092E07260AD077FD04D02ED017
:1016200006D000201AF4709561957F4F0895F6F763
:10163000909581959F4F0895A1E21A2EAA1BBB1B7E
:10164000FD010DC0AA1FBB1FEE1FFF1FA217B3078E
:10165000E407F50720F0A21BB30BE40BF50B661FA4
:10166000771F881F991F1A9469F760957095809568
:1016700090959B01AC01BD01CF010895AA1BBB1B36
:1016800051E107C0AA1FBB1FA617B70710F0A61B82
:10169000B70B881F991F5A95A9F780959095BC01A3
:1016A000CD0108952F923F924F925F926F927F9259
:1016B0008F929F92AF92BF92CF92DF92EF92FF9262
:1016C0000F931F93CF93DF93CDB7DEB7CA1BDB0B0E
:1016D0000FB6F894DEBF0FBECDBF09942A883988B3
:1016E00048885F846E847D848C849B84AA84B984BA
:1016F000C884DF80EE80FD800C811B81AA81B981C6
:10170000CE0FD11D0FB6F894DEBF0FBECDBFED01D9
:101710000895CF93DF93BC018230910510F462E00D
:1017200070E0A091D203B091D303ED01E0E0F0E0CE
:1017300040E050E021C0888199818617970769F4BD
:101740008A819B81309719F09383828304C09093A0
:10175000D3038093D203FE0134C06817790738F4AD
:101760004115510519F08417950708F4AC01FE01E5
:101770008A819B819C01E9012097E9F64115510579
:10178000A9F1CA01861B970B049708F4BA01E0E09F
:10179000F0E02AC08D919C91119784179507F9F478
:1017A0006417750781F412968D919C911397309769
:1017B00019F09383828304C09093D3038093D20360
:1017C000FD0132964FC0CA01861B970BFD01E80F41
:1017D000F91F6193719302978D939C9343C0FD0110
:1017E000828193819C01D9011097A1F68091D00349
:1017F0009091D103892B41F48091A3039091A4038C
:101800009093D1038093D0034091A5035091A603F8
:101810004115510541F44DB75EB78091A1039091F8
:10182000A203481B590B2091D0033091D1032417F8
:101830003507B0F4CA01821B930B8617970780F017
:10184000AB014E5F5F4F8417950750F0420F531F57
:101850005093D1034093D003F9016193719302C077
:10186000E0E0F0E0CF01DF91CF910895CF93DF93D7
:10187000009709F450C0EC0122971B821A82A091B4
:10188000D203B091D303109709F140E050E0AC17B8
:10189000BD0708F1BB83AA83FE0121913191E20FBC
:1018A000F31FAE17BF0779F48D919C911197280F04
:1018B000391F2E5F3F4F3983288312968D919C915B
:1018C00013979B838A834115510571F4D093D303F9
:1018D000C093D20320C012968D919C911397AD01B5
:1018E000009711F0DC01D3CFFA01D383C283219199
:1018F0003191E20FF31FCE17DF0769F488819981D8
:10190000280F391F2E5F3F4FFA01318320838A81D0
:101910009B8193838283DF91CF910895FB01DC014A
:1019200001900D920020E1F70895AEE0B0E0EBE900
:10193000FCE00C94600B0D891E8986E08C831A8371
:1019400009838FEF9FE79E838D839E01275E3F4F24
:10195000CE0101966F89788DA9010E94B90C2F8163
:101960003885020F131FF80110822E96E4E00C94C4
:101970007C0BABE0B0E0EFEBFCE00C94520B3C01D5
:101980002B015A01FC0117821682838181FD03C05D
:101990006FEF7FEFC6C19AE0892E1E010894211CCB
:1019A000311CF3012381F20123FD859123FF8191F5
:1019B0002F01882309F4B2C1853239F423FD8591C2
:1019C00023FF81912F01853229F490E0B3010E9419
:1019D000AC0EE7CF982FFF24EE249924FFE1FF15EA
:1019E000D0F09B3269F09C3228F4903259F0933257
:1019F00091F40EC09D3249F0903369F441E024C067
:101A000052E0F52A84E0F82A28C098E0F92A25C097
:101A1000E0E1FE2A22C0F7FC29C0892F80538A30DA
:101A200070F4F6FE05C0989C902C1124980E15C0F9
:101A3000E89CE02C1124E80EF0E2FF2A0EC09E3252
:101A400029F4F6FC6BC140E4F42A07C09C3619F473
:101A500050E8F52A02C0983649F4F20123FD959129
:101A600023FF91912F01992309F0B8CF892F855435
:101A7000833018F08052833038F444E050E0A40EF4
:101A8000B51E5FE359830FC0933631F0933779F079
:101A9000933509F056C020C0F5018081898342E06A
:101AA00050E0A40EB51E610101E010E012C0F50186
:101AB000C080D180F6FC03C06FEF7FEF02C0692DBC
:101AC00070E042E050E0A40EB51EC6010E94A10ED7
:101AD0008C015FE7F52214C0F501C080D180F6FCCF
:101AE00003C06FEF7FEF02C0692D70E042E050E06D
:101AF000A40EB51EC6010E94960E8C0150E8F52A70
:101B0000F3FE07C01AC080E290E0B3010E94AC0E61
:101B1000EA948E2D90E008171907A8F30EC0F6017D
:101B2000F7FC8591F7FE81916F0190E0B3010E946F
:101B3000AC0EE110EA94015010400115110579F73F
:101B4000EAC0943611F0993669F5F7FE08C0F50140
:101B5000208131814281538184E090E00AC0F50107
:101B6000808191819C01442737FD4095542F82E06C
:101B700090E0A80EB91E9FE6F92257FF09C05095C4
:101B80004095309521953F4F4F4F5F4FE0E8FE2A3B
:101B9000CA01B901A1012AE030E00E94D80ED82E76
:101BA000D21840C0953729F41F2D1F7E2AE030E05F
:101BB0001DC01F2D197F9F3661F0903720F4983596
:101BC00009F0ACC00FC0903739F0983709F0A6C0C3
:101BD00004C028E030E00AC0106114FD146020E168
:101BE00030E004C014FD166020E132E017FF08C0A9
:101BF000F501608171818281938144E050E008C0E9
:101C0000F50180819181BC0180E090E042E050E0EC
:101C1000A40EB51EA1010E94D80ED82ED2188FE7AF
:101C2000F82EF122F6FE0BC05EEFF522D91438F43F
:101C3000F4FE07C0F2FC05C08FEEF82202C01D2D95
:101C400001C0192DF4FE0DC0FE01ED0DF11D8081C6
:101C5000803319F499EEF92208C01F5FF2FE05C027
:101C600003C08F2D867809F01F5F0F2DF3FC14C081
:101C7000F0FE0FC01E1510F09D2C0BC09D2C9E0C6D
:101C8000911A1E2D06C080E290E0B3010E94AC0EB6
:101C90001F5F1E15C0F304C01E1510F4E11A01C029
:101CA000EE2404FF0FC080E390E0B3010E94AC0E6D
:101CB00002FF1DC001FD03C088E790E00EC088E56B
:101CC00090E00BC0802F867891F001FF02C08BE27C
:101CD00001C080E2F7FC8DE290E0B3010E94AC0EFF
:101CE00006C080E390E0B3010E94AC0E9A94D91430
:101CF000C0F3DA94F101ED0DF11D808190E0B301A4
:101D00000E94AC0EDD20A9F706C080E290E0B3018E
:101D10000E94AC0EEA94EE20C1F743CEF301668137
:101D20007781CB012B96E2E10C946E0BFC010590C0
:101D3000615070400110D8F7809590958E0F9F1FCD
:101D40000895FC016150704001900110D8F7809512
:101D500090958E0F9F1F08950F931F93CF93DF933E
:101D60008C01EB018B8181FF1BC082FF0DC02E8196
:101D70003F818C819D812817390764F4E881F981BE
:101D80000193F983E88306C0E885F985802F0995DA
:101D9000892B31F48E819F8101969F838E8302C0AF
:101DA0000FEF1FEFC801DF91CF911F910F910895A1
:101DB000FA01AA27283051F1203181F1E8946F937C
:101DC0006E7F6E5F7F4F8F4F9F4FAF4FB1E03ED022
:101DD000B4E03CD0670F781F891F9A1FA11D680FC0
:101DE000791F8A1F911DA11D6A0F711D811D911DF3
:101DF000A11D20D009F468943F912AE0269F112468
:101E00003019305D3193DEF6CF010895462F4770CB
:101E1000405D4193B3E00FD0C9F7F6CF462F4F7026
:101E2000405D4A3318F0495D31FD4052419302D084
:101E3000A9F7EACFB4E0A69597958795779567952A
:101E4000BA95C9F700976105710508959B01AC012A
:101E50000A2E06945795479537952795BA95C9F751
:101E6000620F731F841F951FA01D0895F894FFCF64
:101E700054656D70657261747572652539640055BD
:101E80005620496E6465783A253131640054656D99
:101E900070657261747572653A2534642E2564200C
:101EA000460048756D69646974793A2537642E2552
:101EB00064202525005765696768743A25396420D0
:101EC0006C627300202020504152414D45544552D0
:101ED0002053455421202020002020202020202095
:101EE0002020202020202020202020202000202012
:101EF0002020202057454C434F4D452020202020B6
:101F000020200020202020544F20544845204849BC
:101F1000564520202020200069017E01930169019F
:101F20005345452043555252454E54205245414455
:101F3000494E4753002020534554204120504152E0
:101F4000414D4554455220202000504F4F505045A0
:101F500045504545504545504F4F5050454500541C
:101F60004553542020544553542020544553542065
:101F700020202000B001C501DA01EF01202020500F
:101F80005245535320544F2053454C454354202031
:101F900000205343524F4C4C20544F205345452072
:101FA0004D4F524520000C02210220205052455333
:101FB0005320544F20474F204241434B2020003AAA
:101FC0000221025365742054656D706572617475E9
:101FD000726520202020200053025343524F4C4C66
:101FE00020544F204348414E47452056414C005015
:101FF0005245535320544F2053454C4543542020C1
:10200000202020006A027F0244000000000000003F
:102010000000010202030303030404040404040493
:102020000405050505050505050505050505050561
:102030000506060606060606060606060606060641
:102040000606060606060606060606060606060630
:102050000607070707070707070707070707070711
:102060000707070707070707070707070707070700
:1020700007070707070707070707070707070707F0
:1020800007070707070707070707070707070707E0
:1020900007080808080808080808080808080808C1
:1020A00008080808080808080808080808080808B0
:1020B00008080808080808080808080808080808A0
:1020C0000808080808080808080808080808080890
:1020D0000808080808080808080808080808080880
:1020E0000808080808080808080808080808080870
:1020F0000808080808080808080808080808080860
:10210000080808080808080808080808080808084F
:08211000082000D403000000C8
:00000001FF
