:100000000C9434000C9451000C9451000C94510049
:100010000C94F2040C9451000C9451000C94510077
:100020000C9451000C9451000C9451000C944E050A
:100030000C9451000C9451000C9451000C945100FC
:100040000C9451000C9451000C9451000C945100EC
:100050000C9451000C9451000C9451000C945100DC
:100060000C9451000C94510011241FBECFEFD8E026
:10007000DEBFCDBF12E0A0E0B1E0EAE7FEE102C0E2
:1000800005900D92A63EB107D9F713E0A6EEB2E0B7
:1000900001C01D92AA39B107E1F70E94AC090C9486
:1000A0003B0F0C9400008FE290E09093C50080938A
:1000B000C400E1ECF0E08081886080838081806111
:1000C0008083E2ECF0E08081866080830895FC010B
:1000D00006C08091C00085FFFCCF9093C60091912F
:1000E0009923B9F70895982F8091C00085FFFCCF20
:1000F0009093C60008958091C00087FFFCCF809147
:10010000C6000895BF92CF92DF92EF92FF920F93B5
:100110001F93CF93DF93B82EFB01D901E70141155F
:10012000510531F40115110519F490E080E054C037
:1001300084EA8093BC008091BC0087FFFCCF909143
:10014000B900987F983009F09FC08B2D8E7F8093E7
:10015000BB0084E88093BC008091BC0087FFFCCF8B
:100160009091B900987F9831B1F0903209F08CC02D
:1001700088C080818093BB002093BC008091BC002C
:1001800087FFFCCF9091B900987F41505040983242
:10019000C9F4319601C024E84115510551F716C044
:1001A0008C918093BB002093BC008091BC0087FFA2
:1001B000FCCF9091B900987F01501040983211F413
:1001C000119605C0903309F05FC05BC024E80115AB
:1001D000110531F791E081E0C114D10409F44EC05A
:1001E000882311F428E001C020E184EA8093BC0058
:1001F0008091BC0087FFFCCF9091B900987F921747
:1002000009F042C081E0B82AB092BB0084E8809334
:10021000BC008091BC0087FFFCCF9091B900987F13
:10022000903419F0983481F52CC00894C108D10895
:1002300024EC11C02093BC008091BC0087FFFCCF50
:100240009091B900987F0894C108D1089035E1F4E5
:100250008091BB008993C114D10461F784E8809335
:10026000BC008091BC0087FFFCCF9091B900987FC3
:10027000983551F48091BB00888302C0992321F006
:1002800090E084E98093BC00892FDF91CF911F918A
:100290000F91FF90EF90DF90CF90BF900895109254
:1002A000B9008DE18093B80008958EEF0E9473002D
:1002B00081E50E94730008951F93813039F08130E9
:1002C00038F0823039F0833049F406C010E407C0BA
:1002D00010E005C014E103C014E501C01FEF160FC4
:1002E0008EEF0E94730085E40E947300812F0E94AC
:1002F00073001F9108950E94550180E060E00E9404
:100300005C01089584EC99E028EB30E0F901319725
:10031000F1F70197D9F784EC99E028EB30E0F90187
:100320003197F1F70197D9F78EEF0E94730081E5BD
:100330000E9473008EEF0E94730082E50E9473009A
:1003400082E30E94730008950E9467000895EF926F
:10035000FF920F931F93CF93DF938C01C0E0D0E007
:10036000E62EFF240BC08C2F60E00E945C01F80198
:10037000819191918F010E9467002196CE15DF0532
:1003800094F3DF91CF911F910F91FF90EF9008951B
:10039000ECE7F0E0808180648083808180628083EC
:1003A000EAE7F0E0808187608083808180688083D5
:1003B000089590917C00907F90937C0090917C00B8
:1003C0008F70892B80937C0080917A008064809369
:1003D0007A0080917A0086FDFCCF809179000895A3
:1003E000CF92DF92EF92FF920F931F93DF93CF9301
:1003F00000D0CDB7DEB77C016B0159834A8380EA18
:10040000BE016F5F7F4F42E050E020E030E000E04F
:1004100010E00E9482000F900F90CF91DF911F910A
:100420000F91FF90EF90DF90CF9008952F923F9221
:100430004F925F926F927F928F929F92AF92BF92F4
:10044000CF92DF92EF92FF920F931F93DF93CF93A0
:1004500000D0CDB7DEB72C013B014A01212C34E29C
:10046000332E27C099828A82C4018F73907020E452
:10047000A22EB12CA81AB90A6A147B0408F45301FD
:1004800080EABE016F5F7F4F42E050E0920185013C
:10049000EE24FF24CC24DD240E948200882369F40A
:1004A000C1010197F1F74A0C5B1C8A0C9B1C6A186E
:1004B0007B0861147104B1F680E00F900F90CF912A
:1004C000DF911F910F91FF90EF90DF90CF90BF9041
:1004D000AF909F908F907F906F905F904F903F90E4
:1004E0002F900895AB0164E070E00E941602089519
:1004F000AF92BF92CF92DF92EF92FF920F931F9332
:10050000DF93CF9300D0CDB7DEB7F0EFAF2EF2E0A0
:10051000BF2E28E2D5011D922A95E9F799838A8397
:1005200080EABE016F5F7F4F42E050E020E030E0A4
:1005300000E010E07501E8E2CE2ED12C0E9482008E
:10054000282F882311F4C50123C000D000D000D08B
:10055000EDB7FEB7319608E113E0ADB7BEB712961E
:100560001C930E93119780E091E093838283822FF6
:10057000992787FD9095958384830E94630CC80119
:10058000EDB7FEB736960FB6F894FEBF0FBEEDBFBF
:100590000F900F90CF91DF911F910F91FF90EF90EF
:1005A000DF90CF90BF90AF9008959AB121E030E0F6
:1005B00002C0220F331F8A95E2F7922B9AB99BB1A2
:1005C000822F809589238BB980E090E90197F1F71C
:1005D0008BB1282B2BB908959AB121E030E002C0ED
:1005E000220F331F8A95E2F7822F809589238AB9DB
:1005F00089B190E082239323892BD1F789B190E0D0
:1006000082239323892BD1F389B190E08223932312
:10061000892BD1F70895382F41E050E002C0440FF4
:10062000551F8A95E2F760E070E020E0E9E489B1C7
:1006300090E084239523892BD1F38E2F8A95F1F7AF
:1006400089B190E0032E02C0959587950A94E2F750
:1006500080FF03C0220F216001C0220F89B190E00A
:1006600084239523892BD1F76F5F7F4F6830710505
:10067000F1F6822F0895CF92DF92EF92FF920F93BF
:100680001F93CF93DF93E82E84E090E00E94570BF6
:100690008C018E2D0E94D5028E2D0E94EC02E80165
:1006A000FF2484E0C82ED12CC00ED11E8E2D0E94B6
:1006B0000B038993F80ECC15DD05C1F78E2D0E9432
:1006C0000B03F81611F000E010E0C801DF91CF91A4
:1006D0001F910F91FF90EF90DF90CF90089529B177
:1006E000332727FD3095209530952227330F221F81
:1006F0003327C90108954F99FECF5F9A28984F99E3
:10070000FECF80E090E0A0E0B0E020E0289A880FE3
:10071000991FAA1FBB1F28984F9B03C00196A11DBC
:10072000B11D2F5F283191F7289A289820E030E0FA
:1007300040E850E0282739274A275B27B901CA013A
:100740000895803439F0803819F0803241F404C0C3
:1007500081E003C083E001C082E080936C032898AD
:100760000E947B030895CF92DF92EF92FF920F9346
:100770001F93C82EEE24FF248701DD2407C00E94AA
:100780007B03E60EF71E081F191FD394DC14B8F381
:100790002C2D30E040E050E0C801B7010E94350B3D
:1007A000CA01B9011F910F91FF90EF90DF90CF9098
:1007B00008950E94B3039B01AC018091680390915E
:1007C0006903A0916A03B0916B03281B390B4A0B94
:1007D0005B0BB901CA0108950E94D90320916D03F2
:1007E00030916E0340916F03509170030E94350B5E
:1007F000CA01B90108950E94B3036093680370931E
:10080000690380936A0390936B0308951F93182FD5
:10081000209A57985F9A0E94A1038AE00E94FB03E6
:1008200080E094E1612F70E00E94220B882777FD21
:100830008095982F60936D0370936E0380936F0380
:10084000909370031F91089560936D0370936E03EE
:1008500080936F0390937003089560916D0370917E
:100860006E0380916F039091700308956093680305
:100870007093690380936A0390936B03089560916A
:1008800068037091690380916A0390916B030895E6
:100890002898289A8CEA8A95F1F70895289808955F
:1008A00040E027E030E0289A89B190E080789070AD
:1008B000022E02C0880F991F0A94E2F7482B28984D
:1008C000215030408FEF2F3F380769F7842F08956C
:1008D0008AE00E94EC03862F089581E00E94D901EE
:1008E000089588B18C6088B9809168008260809397
:1008F000680080916C008C6080936C00789486B165
:10090000982F947083FD07C0992319F410927103F6
:1009100009C081E005C0992311F482E001C083E0A1
:10092000809371038091710380937303089586B15E
:10093000982F9470282F287080917103882351F488
:10094000992321F081E08093730328C0222381F151
:1009500082E02AC030917103313069F4992319F48F
:100960001092730323C0222319F183E08093730351
:10097000309372031DC080917103823049F4992332
:1009800011F083E011C0222399F41092730305C083
:10099000992339F482E08093730381E0809372039A
:1009A00007C0222329F481E080937303109272031D
:1009B0009091730380917103981739F081E08093CF
:1009C000740380917303809371030895E8E6F0E067
:1009D000808182608083ECE6F0E080818C6080839F
:1009E000789408951F920F920FB60F9211242F93AF
:1009F0003F934F935F936F937F938F939F93AF93A7
:100A0000BF93EF93FF930E949704FF91EF91BF91E3
:100A1000AF919F918F917F916F915F914F913F9196
:100A20002F910F900FBE0F901F901895482F83B1F4
:100A300090E0042E02C0959587950A94E2F780FF16
:100A400002C080E0089580E094E20197F1F721E090
:100A500030E002C0220F331F4A95E2F783B190E0E5
:100A600082239323892BD1F380E094E20197F1F75D
:100A700081E00895A1E8B0E08C9188608C93EFE666
:100A8000F0E08081826080838FE99CE89093890008
:100A9000809388008C9185608C9308951F920F92AB
:100AA0000FB60F9211248F939F938091EA02909139
:100AB000EB0201969093EB028093EA029F918F9153
:100AC0000F900FBE0F901F901895EF92FF920F930B
:100AD0001F93DF93CF9300D000D0CDB7DEB700D007
:100AE00000D000D0EDB7FEB731968E010F5F1F4FDB
:100AF000ADB7BEB712961C930E93119781E1E82E05
:100B000081E0F82EF382E28280917603848315825D
:100B10000E94630C8DB79EB706960FB6F8949EBFE1
:100B20000FBE8DBF6091DD027091DE02C8010E9490
:100B300072028091DD029091DE0204969093DE02B3
:100B40008093DD0200D000D000D0EDB7FEB7319623
:100B5000ADB7BEB712961C930E931197F382E28243
:100B600080917703848315820E94630C8DB79EB7B2
:100B700006960FB6F8949EBF0FBE8DBF6091DD0242
:100B80007091DE02C8010E9472028091DD02909194
:100B9000DE0204969093DE028093DD0200D000D046
:100BA00000D0EDB7FEB73196ADB7BEB712961C9325
:100BB0000E931197F382E2828091780384831582E9
:100BC0000E94630C8DB79EB706960FB6F8949EBF31
:100BD0000FBE8DBF6091DD027091DE02C8010E94E0
:100BE00072028091DD029091DE0204969093DE0203
:100BF0008093DD0200D000D000D0EDB7FEB7319673
:100C0000ADB7BEB712961C930E931197F382E28292
:100C100080917903848315820E94630C8DB79EB7FF
:100C200006960FB6F8949EBF0FBE8DBF6091DD0291
:100C30007091DE02C8010E9472028091DD029091E3
:100C4000DE0204969093DE028093DD0200D000D095
:100C500000D0EDB7FEB73196ADB7BEB712961C9374
:100C60000E931197F382E28280917503848315823B
:100C70000E94630C8DB79EB706960FB6F8949EBF80
:100C80000FBE8DBF6091DD027091DE02C8010E942F
:100C900072028091DD029091DE0204969093DE0252
:100CA0008093DD0200D000D000D0EDB7FEB73196C2
:100CB000ADB7BEB712961C930E931197F382E282E2
:100CC00080917A03848315820E94630C8DB79EB74E
:100CD00006960FB6F8949EBF0FBE8DBF6091DD02E1
:100CE0007091DE02C8010E9472028091DD02909133
:100CF000DE0204969093DE028093DD0200D000D0E5
:100D000000D0EDB7FEB73196ADB7BEB712961C93C3
:100D10000E931197F382E28280917B038483158284
:100D20000E94630C8DB79EB706960FB6F8949EBFCF
:100D30000FBE8DBF6091DD027091DE02C8010E947E
:100D400072028091DD029091DE0204969093DE02A1
:100D50008093DD0200D000D000D0EDB7FEB7319611
:100D6000ADB7BEB712961C930E931197F382E28231
:100D700080917C03848315820E94630C8DB79EB79B
:100D800006960FB6F8949EBF0FBE8DBF6091DD0230
:100D90007091DE02C8010E9472028091DD02909182
:100DA000DE0204969093DE028093DD0200D000D034
:100DB00000D0EDB7FEB73196ADB7BEB712961C9313
:100DC0000E931197F382E28280917D0384831582D2
:100DD0000E94630C8DB79EB706960FB6F8949EBF1F
:100DE0000FBE8DBF6091DD027091DE02C8010E94CE
:100DF00072028091DD029091DE0204969093DE02F1
:100E00008093DD0200D000D000D0EDB7FEB7319660
:100E1000ADB7BEB712961C930E931197F382E28280
:100E200080917E03848315820E94630C8DB79EB7E8
:100E300006960FB6F8949EBF0FBE8DBF6091DD027F
:100E40007091DE02C8010E9472028091DD029091D1
:100E5000DE0204969093DE028093DD0281509D476E
:100E600030F082E390E09093DE028093DD020F90F9
:100E70000F900F900F90CF91DF911F910F91FF90E6
:100E8000EF9008950F931F93DF93CF93CDB7DEB705
:100E900065970FB6F894DEBF0FBECDBF00D000D06F
:100EA00000D0EDB7FEB731968E010F5F1F4FADB783
:100EB000BEB712961C930E93119785E191E0938330
:100EC00082838091DC02848315820E94630C8DB73B
:100ED0009EB706960FB6F8949EBF0FBE8DBF82E0F8
:100EE00060E00E945C01C8010E94A40165960FB6F3
:100EF000F894DEBF0FBECDBFCF91DF911F910F9150
:100F00000895CF92DF92EF92FF920F931F93CF93AA
:100F1000DF936C01EB01142FE22E80917203488164
:100F2000882361F0242F30E0812F90E0019728176B
:100F3000390711F418820AC04F5F07C0442321F417
:100F4000115018831F5F02C041504883F12E1530A5
:100F500010F024E0F22E00E017C0802F60E00E9425
:100F60005C01888190E0800F911D612F70E00E94EC
:100F7000220BE82FF0E0EE0FFF1FEC0DFD1D80812E
:100F800091810E94A4010F5F0F1538F3EE2041F00C
:100F900080E060E00E945C0184E291E00E94A40194
:100FA000DF91CF911F910F91FF90EF90DF90CF9045
:100FB00008950F931F93DF93CF93CDB7DEB7CE572E
:100FC000D0400FB6F894DEBF0FBECDBF80918A032C
:100FD00090918B030E94040C80918C0390918D035F
:100FE0000E94040C80918E0390918F030E94040C48
:100FF00080919003909191030E94040C8091920340
:10100000909193030E94040C809194039091950316
:101010000E94040C00D000D000D0EDB7FEB731968E
:101020008E010F5F1F4FADB7BEB712961C930E9384
:10103000119787E291E09383828380917503848383
:1010400015820E94630CF80101900020E9F78DB72A
:101050009EB706960FB6F8949EBF0FBE8DBFCF0108
:10106000801B910B0E94570B80938A0390938B03F4
:10107000B8010E945C0CADB7BEB718970FB6F894D4
:10108000BEBF0FBEADBFEDB7FEB731968E010A5E93
:101090001F4F12961C930E93119785E391E0938353
:1010A000828380917603848315828091770386837F
:1010B00017820E94630CF80101900020E9F78DB7B8
:1010C0009EB708960FB6F8949EBF0FBE8DBFCF0196
:1010D000801B910B0E94570B80938C0390938D0380
:1010E000B8010E945C0CADB7BEB718970FB6F89464
:1010F000BEBF0FBEADBFEDB7FEB731968E01055D29
:101100001F4F12961C930E9311978AE491E09383DC
:10111000828380917803848315828091790386830A
:1011200017820E94630CF80101900020E9F78DB747
:101130009EB708960FB6F8949EBF0FBE8DBFCF0125
:10114000801B910B0E94570B80938E0390938F030B
:10115000B8010E945C0CADB7BEB718970FB6F894F3
:10116000BEBF0FBEADBFEDB7FEB731968E01005CBE
:101170001F4F12961C930E93119780E691E0938374
:10118000828380917A038483158280917B03868396
:1011900017820E94630CF80101900020E9F78DB7D7
:1011A0009EB708960FB6F8949EBF0FBE8DBFCF01B5
:1011B000801B910B0E94570B809390039093910397
:1011C000B8010E945C0CADB7BEB718970FB6F89483
:1011D000BEBF0FBEADBFEDB7FEB731968E010B5A45
:1011E0001F4F12961C930E93119784E791E09383FF
:1011F000828380917C038483158280917D03868322
:1012000017820E94630CF80101900020E9F78DB766
:101210009EB708960FB6F8949EBF0FBE8DBFCF0144
:10122000801B910B0E94570B809392039093930322
:10123000B8010E945C0C00D000D000D0EDB7FEB722
:1012400031968E0106591F4FADB7BEB712961C934B
:101250000E93119789E891E09383828380917E03B6
:10126000848315820E94630CF80101900020E9F745
:101270008DB79EB706960FB6F8949EBF0FBE8DBF72
:10128000CF01801B910B0E94570B80939403909386
:101290009503B8010E945C0CC258DF4F0FB6F8945A
:1012A000DEBF0FBECDBFCF91DF911F910F9108958B
:1012B0000E946D04809375038091EC029091ED0281
:1012C0000E94040C82E00E943B03FC019093ED021B
:1012D0008093EC02808180937A03818180937B03E9
:1012E0008281809376038381809377038091EE02DD
:1012F0009091EF020E94040C83E00E943B03FC01EA
:101300009093EF028093EE02808180937C03818131
:1013100080937D0382818093780383818093790316
:101320008AE00E94B30360937E0308950E945300F5
:101330000E9482018CEE91E064E00E94A7010E946D
:101340004F010E94C8010E94710480E80E940604B7
:101350000E943A05789408951F93CF93DF930E94DB
:101360009609299A80E395E728EB30E0F901319757
:10137000F1F70197D9F784B1806C84B98AB180669E
:101380008AB9109289030E9455018AE792E062E0CF
:101390000E94A70180E395E728EB30E0F90131973F
:1013A000F1F70197D9F788E492E066EE72E044E045
:1013B00021E00E9481070E9458098091DC028093FD
:1013C000800312E0C8EBD0E080918903882309F004
:1013D0004DC080917403882351F088E492E066EE5A
:1013E00072E044E021E00E9481071092740381E0E2
:1013F0000E941605882309F4D6C08091E60288234E
:10140000D1F481E0809389030E94D9070E9455019D
:1014100083E992E062E00E94A70180E395E7FE0184
:101420003197F1F70197D9F78AE893E067EE72E018
:1014300046E020E0B6C0813009F0B5C010938903C2
:101440000E9455018AE792E062E00E94A70180E3D2
:1014500095E7FE013197F1F70197D9F70E94550101
:101460008CEA92E068EE72E041E09AC0813029F5A2
:1014700080917403882351F08AE893E067EE72E06C
:1014800046E020E00E9481071092740381E00E94F0
:101490001605882309F487C0109289030E9455011C
:1014A0008AE792E062E00E94A70180E395E7FE01EF
:1014B0003197F1F70197D9F76EC0823009F073C008
:1014C0008091E902882331F580917403882351F0DB
:1014D0008CEA92E068EE72E041E021E00E94810730
:1014E0001092740381E00E941605882399F081E030
:1014F0008093E9020E94550188ED92E062E00E942B
:10150000A70180E395E7FE013197F1F70197D9F73D
:101510000E9442078091E902882309F444C0809127
:101520007403882399F0809172039091DC028823E0
:1015300021F09E3138F49F5F03C0903118F0915034
:101540009093DC020E9442071092740381E00E9493
:101550001605882341F18091DC028093800310926C
:10156000E902109289030E94550181E060E00E9427
:101570005C0188E991E00E94A40180E29EE4FE0102
:101580003197F1F70197D9F70E9455018AE792E068
:1015900062E00E94A70188E492E066EE72E044E017
:1015A00021E00E94810780917603482F50E08091CE
:1015B0008003282F30E0C9010397481759071CF40E
:1015C0005D9A2E9A0EC02D5F3F4F241735071CF4ED
:1015D0005E9A2F9A06C08BB18F798BB985B18F73C4
:1015E00085B98091EA029091EB0264E170E00E947B
:1015F0000E0B892B11F40E9458098091EA029091F8
:10160000EB02805D924009F0DFCE1092EB02109267
:10161000EA020E9458090E946505D6CEAA1BBB1B90
:1016200051E107C0AA1FBB1FA617B70710F0A61BE2
:10163000B70B881F991F5A95A9F780959095BC0103
:10164000CD01089597FB092E07260AD077FD04D017
:10165000E5DF06D000201AF4709561957F4F08955C
:10166000F6F7909581959F4F0895A1E21A2EAA1B37
:10167000BB1BFD010DC0AA1FBB1FEE1FFF1FA21742
:10168000B307E407F50720F0A21BB30BE40BF50B3F
:10169000661F771F881F991F1A9469F760957095C8
:1016A000809590959B01AC01BD01CF010895CF932A
:1016B000DF93BC018230910510F462E070E0A091EC
:1016C0009803B0919903ED01E0E0F0E040E050E0D4
:1016D00021C0888199818617970769F48A819B8147
:1016E000309719F09383828304C090939903809379
:1016F0009803FE0134C06817790738F44115510585
:1017000019F08417950708F4AC01FE018A819B81CA
:101710009C01E9012097E9F641155105A9F1CA019B
:10172000861B970B049708F4BA01E0E0F0E02AC0AA
:101730008D919C91119784179507F9F4641775079B
:1017400081F412968D919C911397309719F09383A1
:10175000828304C09093990380939803FD0132968D
:101760004FC0CA01861B970BFD01E80FF91F61935B
:10177000719302978D939C9343C0FD018281938165
:101780009C01D9011097A1F680919603909197033F
:10179000892B41F48091E1029091E20290939703AA
:1017A000809396034091E3025091E4024115510564
:1017B00041F44DB75EB78091DF029091E002481B83
:1017C000590B209196033091970324173507B0F4F5
:1017D000CA01821B930B8617970780F0AB014E5FFF
:1017E0005F4F8417950750F0420F531F5093970394
:1017F00040939603F9016193719302C0E0E0F0E039
:10180000CF01DF91CF910895CF93DF93009709F433
:1018100050C0EC0122971B821A82A0919803B091CC
:101820009903109709F140E050E0AC17BD0708F1AB
:10183000BB83AA83FE0121913191E20FF31FAE1702
:10184000BF0779F48D919C911197280F391F2E5F56
:101850003F4F3983288312968D919C9113979B83D8
:101860008A834115510571F4D0939903C09398036D
:1018700020C012968D919C911397AD01009711F0A5
:10188000DC01D3CFFA01D383C28321913191E20FDE
:10189000F31FCE17DF0769F488819981280F391F5C
:1018A0002E5F3F4FFA01318320838A819B8193838E
:1018B0008283DF91CF910895FB01DC0101900D92AD
:1018C0000020E1F70895AEE0B0E0E9E6FCE00C941A
:1018D000120F0D891E8986E08C831A8309838FEF8E
:1018E0009FE79E838D839E01275E3F4FCE01019629
:1018F0006F89788DA9010E94870C2F813885020F8E
:10190000131FF80110822E96E4E00C942E0FABE02A
:10191000B0E0EDE8FCE00C94040F3C012B015A010F
:10192000FC0117821682838181FD03C06FEF7FEF78
:10193000C6C19AE0892E1E010894211C311CF301B6
:101940002381F20123FD859123FF81912F018823BB
:1019500009F4B2C1853239F423FD859123FF8191C9
:101960002F01853229F490E0B3010E947A0EE7CF6F
:10197000982FFF24EE249924FFE1FF15D0F09B322D
:1019800069F09C3228F4903259F0933291F40EC0F1
:101990009D3249F0903369F441E024C052E0F52AC9
:1019A00084E0F82A28C098E0F92A25C0E0E1FE2A60
:1019B00022C0F7FC29C0892F80538A3070F4F6FECC
:1019C00005C0989C902C1124980E15C0E89CE02C22
:1019D0001124E80EF0E2FF2A0EC09E3229F4F6FC34
:1019E0006BC140E4F42A07C09C3619F450E8F52A8C
:1019F00002C0983649F4F20123FD959123FF91919D
:101A00002F01992309F0B8CF892F8554833018F01E
:101A10008052833038F444E050E0A40EB51E5FE3FA
:101A200059830FC0933631F0933779F0933509F02D
:101A300056C020C0F5018081898342E050E0A40EA9
:101A4000B51E610101E010E012C0F501C080D18037
:101A5000F6FC03C06FEF7FEF02C0692D70E042E03B
:101A600050E0A40EB51EC6010E946F0E8C015FE708
:101A7000F52214C0F501C080D180F6FC03C06FEFE1
:101A80007FEF02C0692D70E042E050E0A40EB51E69
:101A9000C6010E94640E8C0150E8F52AF3FE07C0CF
:101AA0001AC080E290E0B3010E947A0EEA948E2D73
:101AB00090E008171907A8F30EC0F601F7FC85910E
:101AC000F7FE81916F0190E0B3010E947A0EE11060
:101AD000EA94015010400115110579F7EAC09436D7
:101AE00011F0993669F5F7FE08C0F50120813181C2
:101AF0004281538184E090E00AC0F50180819181A8
:101B00009C01442737FD4095542F82E090E0A80EB9
:101B1000B91E9FE6F92257FF09C0509540953095B0
:101B200021953F4F4F4F5F4FE0E8FE2ACA01B901B0
:101B3000A1012AE030E00E94A60ED82ED21840C0A3
:101B4000953729F41F2D1F7E2AE030E01DC01F2D80
:101B5000197F9F3661F0903720F4983509F0ACC0BA
:101B60000FC0903739F0983709F0A6C004C028E0BC
:101B700030E00AC0106114FD146020E130E004C0C0
:101B800014FD166020E132E017FF08C0F501608106
:101B900071818281938144E050E008C0F501808129
:101BA0009181BC0180E090E042E050E0A40EB51EBF
:101BB000A1010E94A60ED82ED2188FE7F82EF1228E
:101BC000F6FE0BC05EEFF522D91438F4F4FE07C020
:101BD000F2FC05C08FEEF82202C01D2D01C0192DA8
:101BE000F4FE0DC0FE01ED0DF11D8081803319F46E
:101BF00099EEF92208C01F5FF2FE05C003C08F2DC9
:101C0000867809F01F5F0F2DF3FC14C0F0FE0FC0A3
:101C10001E1510F09D2C0BC09D2C9E0C911A1E2D94
:101C200006C080E290E0B3010E947A0E1F5F1E158D
:101C3000C0F304C01E1510F4E11A01C0EE2404FF25
:101C40000FC080E390E0B3010E947A0E02FF1DC036
:101C500001FD03C088E790E00EC088E590E00BC06E
:101C6000802F867891F001FF02C08BE201C080E2F4
:101C7000F7FC8DE290E0B3010E947A0E06C080E38B
:101C800090E0B3010E947A0E9A94D914C0F3DA94CA
:101C9000F101ED0DF11D808190E0B3010E947A0EFB
:101CA000DD20A9F706C080E290E0B3010E947A0E21
:101CB000EA94EE20C1F743CEF30166817781CB0130
:101CC0002B96E2E10C94200FFC01059061507040CE
:101CD0000110D8F7809590958E0F9F1F0895FC01F5
:101CE0006150704001900110D8F7809590958E0F4B
:101CF0009F1F08950F931F93CF93DF938C01EB01E8
:101D00008B8181FF1BC082FF0DC02E813F818C81A2
:101D10009D812817390764F4E881F9810193F983DB
:101D2000E88306C0E885F985802F0995892B31F471
:101D30008E819F8101969F838E8302C00FEF1FEFDC
:101D4000C801DF91CF911F910F910895FA01AA2741
:101D5000283051F1203181F1E8946F936E7F6E5FEE
:101D60007F4F8F4F9F4FAF4FB1E03ED0B4E03CD09C
:101D7000670F781F891F9A1FA11D680F791F8A1F7F
:101D8000911DA11D6A0F711D811D911DA11D20D0E6
:101D900009F468943F912AE0269F11243019305DA0
:101DA0003193DEF6CF010895462F4770405D419391
:101DB000B3E00FD0C9F7F6CF462F4F70405D4A33DE
:101DC00018F0495D31FD4052419302D0A9F7EACFA6
:101DD000B4E0A6959795879577956795BA95C9F7D5
:101DE00000976105710508959B01AC010A2E0694C8
:101DF0005795479537952795BA95C9F7620F731F81
:101E0000841F951FA01D08952F923F924F925F92BD
:101E10006F927F928F929F92AF92BF92CF92DF92FA
:101E2000EF92FF920F931F93CF93DF93CDB7DEB75F
:101E3000CA1BDB0B0FB6F894DEBF0FBECDBF0994F3
:101E40002A88398848885F846E847D848C849B844A
:101E5000AA84B984C884DF80EE80FD800C811B8158
:101E6000AA81B981CE0FD11D0FB6F894DEBF0FBE87
:0A1E7000CDBFED010895F894FFCFF7
:101E7A00537461747573203D20307825322E327880
:101E8A00002533640054656D7065726174757265FE
:101E9A00253964003E2000555620496E6465783A1B
:101EAA002531316400496E736964652054656D702B
:101EBA003A2534642E25642043004F75747369648F
:101ECA00652054656D703A2533642E2564204300DD
:101EDA00496E736964652052483A2536642E256432
:101EEA00202525004F7574736964652052483A2588
:101EFA0035642E2564202525005765696768743A7C
:101F0A00253964206C627300202020504152414DD3
:101F1A00455445522053455421202020002020209A
:101F2A0020202020202020202020202020202020A7
:101F3A00200020202020202057454C434F4D45208B
:101F4A002020202020200020202020544F205448E8
:101F5A00452048495645202020202000AD01C201D5
:101F6A00D701AD012D205365652053656E736F72DD
:101F7A002056616C75657320002D2041646A757363
:101F8A00742053657474696E6773202020002D20B5
:101F9A004265737420436F6E646974696F6E73204F
:101FAA002020002D20536565205761726E696E6787
:101FBA007320202020202000F40109021E0233028F
:101FCA00202020505245535320544F2053454C450E
:101FDA004354202000205343524F4C4C20544F204E
:101FEA00534545204D4F524520005002650220209E
:101FFA00505245535320544F20474F204241434BA0
:10200A002020007E0265022D205365742054656DE0
:10201A0070657261747572652020200097025343BF
:10202A00524F4C4C20544F204348414E474520566E
:10203A00414C00505245535320544F2053454C4570
:10204A004354202020202000AE02C3021432002074
:06205A00009A03000000E3
:00000001FF
