:100000000C9434000C9451000C9451000C94510049
:100010000C94A6070C9451000C9451000C945100C0
:100020000C9451000C9451000C9451000C94020853
:100030000C9451000C9451000C9451000C945100FC
:100040000C9451000C9451000C9451000C945100EC
:100050000C9451000C9451000C9451000C945100DC
:100060000C9451000C94510011241FBECFEFD8E026
:10007000DEBFCDBF13E0A0E0B1E0E4E1F6E202C0F4
:1000800005900D92A636B107D9F714E0A6E6B3E0C5
:1000900001C01D92AF3EB107E1F70E94760C0C94AF
:1000A00008130C9400008FE290E09093C5008093B9
:1000B000C400E1ECF0E08081886080838081806111
:1000C0008083E2ECF0E08081866080830895FC010B
:1000D00006C08091C00085FFFCCF9093C60091912F
:1000E0009923B9F70895982F8091C00085FFFCCF20
:1000F0009093C60008958091C00087FFFCCF809147
:10010000C6000895BF92CF92DF92EF92FF920F93B5
:100110001F93CF93DF93B82EFB01D901E70141155F
:10012000510531F40115110519F490E080E054C037
:1001300084EA8093BC008091BC0087FFFCCF909143
:10014000B900987F983009F09FC08B2D8E7F8093E7
:10015000BB0084E88093BC008091BC0087FFFCCF8B
:100160009091B900987F9831B1F0903209F08CC02D
:1001700088C080818093BB002093BC008091BC002C
:1001800087FFFCCF9091B900987F41505040983242
:10019000C9F4319601C024E84115510551F716C044
:1001A0008C918093BB002093BC008091BC0087FFA2
:1001B000FCCF9091B900987F01501040983211F413
:1001C000119605C0903309F05FC05BC024E80115AB
:1001D000110531F791E081E0C114D10409F44EC05A
:1001E000882311F428E001C020E184EA8093BC0058
:1001F0008091BC0087FFFCCF9091B900987F921747
:1002000009F042C081E0B82AB092BB0084E8809334
:10021000BC008091BC0087FFFCCF9091B900987F13
:10022000903419F0983481F52CC00894C108D10895
:1002300024EC11C02093BC008091BC0087FFFCCF50
:100240009091B900987F0894C108D1089035E1F4E5
:100250008091BB008993C114D10461F784E8809335
:10026000BC008091BC0087FFFCCF9091B900987FC3
:10027000983551F48091BB00888302C0992321F006
:1002800090E084E98093BC00892FDF91CF911F918A
:100290000F91FF90EF90DF90CF90BF900895109254
:1002A000B9008DE18093B80008958EEF0E9473002D
:1002B00081E50E94730008951F93813039F08130E9
:1002C00038F0823039F0833049F406C010E407C0BA
:1002D00010E005C014E103C014E501C01FEF160FC4
:1002E0008EEF0E94730085E40E947300812F0E94AC
:1002F00073001F9108950E94550180E060E00E9404
:100300005C01089584EC99E028EB30E0F901319725
:10031000F1F70197D9F784EC99E028EB30E0F90187
:100320003197F1F70197D9F78EEF0E94730081E5BD
:100330000E9473008EEF0E94730082E50E9473009A
:1003400082E30E94730008950E9467000895EF926F
:10035000FF920F931F93CF93DF938C01C0E0D0E007
:10036000E62EFF240BC08C2F60E00E945C01F80198
:10037000819191918F010E9467002196CE15DF0532
:1003800094F3DF91CF911F910F91FF90EF9008951B
:10039000ECE7F0E0808180648083808180628083EC
:1003A000EAE7F0E0808187608083808180688083D5
:1003B000089590917C00907F90937C0090917C00B8
:1003C0008F70892B80937C0080917A008064809369
:1003D0007A0080917A0086FDFCCF809179000895A3
:1003E000CF92DF92EF92FF920F931F93DF93CF9301
:1003F00000D0CDB7DEB77C016B0159834A8380EA18
:10040000BE016F5F7F4F42E050E020E030E000E04F
:1004100010E00E9482000F900F90CF91DF911F910A
:100420000F91FF90EF90DF90CF9008952F923F9221
:100430004F925F926F927F928F929F92AF92BF92F4
:10044000CF92DF92EF92FF920F931F93DF93CF93A0
:1004500000D0CDB7DEB72C013B014A01212C34E29C
:10046000332E27C099828A82C4018F73907020E452
:10047000A22EB12CA81AB90A6A147B0408F45301FD
:1004800080EABE016F5F7F4F42E050E0920185013C
:10049000EE24FF24CC24DD240E948200882369F40A
:1004A000C1010197F1F74A0C5B1C8A0C9B1C6A186E
:1004B0007B0861147104B1F680E00F900F90CF912A
:1004C000DF911F910F91FF90EF90DF90CF90BF9041
:1004D000AF909F908F907F906F905F904F903F90E4
:1004E0002F900895AB0164E070E00E941602089519
:1004F000AF92BF92CF92DF92EF92FF920F931F9332
:10050000DF93CF9300D0CDB7DEB7F3E7AF2EF3E0A4
:10051000BF2E28E2D5011D922A95E9F799838A8397
:1005200080EABE016F5F7F4F42E050E020E030E0A4
:1005300000E010E07501E8E2CE2ED12C0E9482008E
:10054000282F882311F4C50123C000D000D000D08B
:10055000EDB7FEB731960BE913E0ADB7BEB7129613
:100560001C930E93119780E091E093838283822FF6
:10057000992787FD9095958384830E943010C80148
:10058000EDB7FEB736960FB6F894FEBF0FBEEDBFBF
:100590000F900F90CF91DF911F910F91FF90EF90EF
:1005A000DF90CF90BF90AF9008959AB121E030E0F6
:1005B00002C0220F331F8A95E2F7922B9AB99BB1A2
:1005C000822F809589238BB980E090E90197F1F71C
:1005D0008BB1282B2BB908959AB121E030E002C0ED
:1005E000220F331F8A95E2F7822F809589238AB9DB
:1005F00089B190E082239323892BD1F789B190E0D0
:1006000082239323892BD1F389B190E08223932312
:10061000892BD1F70895382F41E050E002C0440FF4
:10062000551F8A95E2F760E070E020E0E9E489B1C7
:1006300090E084239523892BD1F38E2F8A95F1F7AF
:1006400089B190E0032E02C0959587950A94E2F750
:1006500080FF03C0220F216001C0220F89B190E00A
:1006600084239523892BD1F76F5F7F4F6830710505
:10067000F1F6822F0895CF92DF92EF92FF920F93BF
:100680001F93CF93DF93E82E84E090E00E94240F25
:100690008C018E2D0E94D5028E2D0E94EC02E80165
:1006A000FF2484E0C82ED12CC00ED11E8E2D0E94B6
:1006B0000B038993F80ECC15DD05C1F78E2D0E9432
:1006C0000B03F81611F000E010E0C801DF91CF91A4
:1006D0001F910F91FF90EF90DF90CF9008956F9250
:1006E0007F928F929F92AF92BF92CF92DF92EF92C2
:1006F000FF920F931F93DF93CF93CDB7DEB72A9767
:100700000FB6F894DEBF0FBECDBFFC016E2C8F2C50
:10071000A02EC12EE22E032FA42F452F262F8B8D26
:100720007724680E711C759467948C8D9924880EBB
:10073000911C959487948D8DBB24A80EB11CB59403
:10074000A7948E8DDD24C80ED11CD594C7948F8DAF
:10075000FF24E80EF11CF594E79488A110E0080F3F
:10076000111D1595079589A1B0E0A80FB11DB5958C
:10077000A7958AA150E0480F511D559547958BA12B
:1007800030E0280F311D359527958CA1871B818777
:1007900020874783A6830583E482C382A282818265
:1007A0006082CF012A960FB6F894DEBF0FBECDBF90
:1007B000CF91DF911F910F91FF90EF90DF90CF903D
:1007C000BF90AF909F908F907F906F900895CF9241
:1007D000DF92EF92FF920F931F93DC01FB01C28027
:1007E00080EDC80E808104E68002C0011124C80E8D
:1007F00081811AE08102C0011124C80ED68080EDEB
:10080000D80E84818002C0011124D80E8581810216
:10081000C0011124D80EE28480EDE80E80858002AC
:10082000C0011124E80E81858102C0011124E80E67
:10083000F68480EDF80E84858002C0011124F80E44
:1008400085858102C0011124F80E72897053808958
:100850008002C0011124780F81898102C001112416
:10086000780F6689605384898002C0011124680F63
:1008700085898102C0011124680F528D5053808DEB
:100880008002C0011124580F818D8102C001112402
:10089000580F468D4053848D8002C0011124480FAB
:1008A000858D8102C0011124480F32A1305380A1EF
:1008B0008002C0011124380F81A18102C0011124DE
:1008C000380F26A1205384A18002C0011124280FD3
:1008D00085A18102C0011124280F19962C93199724
:1008E00018963C93189717964C93179716965C9307
:1008F000169715966C93159714967C9314971396E8
:10090000FC9213971296EC9212971196DC92119723
:10091000CC92CD011F910F91FF90EF90DF90CF907F
:1009200008959091F403EEEFF3E080E031E0208150
:10093000921710F0292F01C0832F3F5F3A963A306B
:1009400011F0922FF4CF08959091F403EEEFF3E0BD
:1009500080E031E02081921710F0292F01C0832F11
:100960003F5F3A96393011F0922FF4CF08956F928D
:100970007F928F929F92AF92BF92CF92DF92EF922F
:10098000FF920F931F93DF93CF93CDB7DEB72A97D4
:100990000FB6F894DEBF0FBECDBF782E692E6B0167
:1009A000EE24FF245E010894A11CB11CC6010E9424
:1009B0007802BC018701000F111FC701E3E0880F17
:1009C000991FEA95E1F7080F191F05511C4FC50142
:1009D0000E94E703D801F5018AE001900D92815051
:1009E000E1F788E290E0C80ED91E0894E11CF11CE2
:1009F0009AE0E916F104D1F6CC24DD244E010894E6
:100A0000811C911C96010894C11CD11CC90159017B
:100A100053E0AA0CBB1C5A95E1F7880F991FA80E4A
:100A2000B91EABEEB3E0AA0EBB1E8DB79EB70A97F8
:100A30000FB6F8949EBF0FBE8DBFC901F90103E048
:100A4000EE0FFF1F0A95E1F7880F991FE80FF91FB6
:100A5000EA0FFB1FA601440F551FC60163E0880F74
:100A6000991F6A95E1F7480F591F2DB73EB72F5FC1
:100A70003F4F4A0F5B1F8AE0DA010D90AD01D901AB
:100A80000D929D018150C1F7C401E080F180028187
:100A900013812481358146815781608571850E944B
:100AA0006F03D501F4018AE001900D928150E1F7C6
:100AB0008DB79EB70A960FB6F8949EBF0FBE8DBF36
:100AC00099E0C916D10409F09DCF8091F403EEEFAF
:100AD000F3E021E030E09081891710F0982F01C0F9
:100AE000322F2F5F3A96293011F0892FF4CF832FC0
:100AF00090E0FC0133E0EE0FFF1F3A95E1F7880F1D
:100B0000991FE80FF91F272D362DC901DC01E5518A
:100B1000FC4F8AE001900D928150E1F7872D962DD0
:100B20002A960FB6F894DEBF0FBECDBFCF91DF91EE
:100B30001F910F91FF90EF90DF90CF90BF90AF90FB
:100B40009F908F907F906F9008958F929F92AF9219
:100B5000BF92CF92DF92EF92FF920F931F93DF939A
:100B6000CF93CDB7DEB72A970FB6F894DEBF0FBE8E
:100B7000CDBF982E892E6B01EE24FF245E010894D0
:100B8000A11CB11C8701000F111FC70123E0880FB2
:100B9000991F2A95E1F7080F191F015B1B4FC5012B
:100BA000B6010E94B704D801F5018AE001900D92C8
:100BB0008150E1F780E991E0C80ED91E0894E11C4C
:100BC000F11C9AE0E916F104E9F68091F403EEEFE6
:100BD000F3E021E030E09081891710F0982F01C0F8
:100BE000322F2F5F3A962A3011F0892FF4CF832FBE
:100BF00090E0FC01B3E0EE0FFF1FBA95E1F7880F1C
:100C0000991FE80FF91F292D382DC901DC01E15B7F
:100C1000FB4F8AE001900D928150E1F7892D982DCC
:100C20002A960FB6F894DEBF0FBECDBFCF91DF91ED
:100C30001F910F91FF90EF90DF90CF90BF90AF90FA
:100C40009F908F90089529B1332727FD30952095E7
:100C500030952227330F221F3327C90108954F995A
:100C6000FECF5F9A28984F99FECF80E090E0A0E0F9
:100C7000B0E020E0289A880F991FAA1FBB1F289870
:100C80004F9B03C00196A11DB11D2F5F283191F725
:100C9000289A289820E030E040E850E028273927BB
:100CA0004A275B27B901CA010895803439F080389A
:100CB00019F0803241F404C081E003C083E001C038
:100CC00082E08093B70428980E942F060895CF925F
:100CD000DF92EF92FF920F931F93C82EEE24FF2412
:100CE0008701DD2407C00E942F06E60EF71E081FAD
:100CF000191FD394DC14B8F32C2D30E040E050E001
:100D0000C801B7010E94020FCA01B9011F910F91DA
:100D1000FF90EF90DF90CF9008950E9467069B01AF
:100D2000AC018091B3049091B404A091B504B0914A
:100D3000B604281B390B4A0B5B0BB901CA01089595
:100D40000E948D062091B8043091B9044091BA04F4
:100D50005091BB040E94020FCA01B90108950E947C
:100D600067066093B3047093B4048093B5049093C2
:100D7000B60408951F93182F209A57985F9A0E94DF
:100D800055068AE00E94AF0680E094E1612F70E092
:100D90000E94EF0E882777FD8095982F6093B80406
:100DA0007093B9048093BA049093BB041F91089583
:100DB0006093B8047093B9048093BA049093BB0411
:100DC00008956091B8047091B9048091BA0490912B
:100DD000BB0408956093B3047093B4048093B50486
:100DE0009093B60408956091B3047091B404809117
:100DF000B5049091B60408952898289A8CEA8A95AB
:100E0000F1F708952898089540E027E030E0289A07
:100E100089B190E080789070022E02C0880F991FEF
:100E20000A94E2F7482B2898215030408FEF2F3F4B
:100E3000380769F7842F08958AE00E94A006862F5C
:100E4000089581E00E94D901089588B18C6088B925
:100E50008091680082608093680080916C008C6053
:100E600080936C00789486B1982F987082FD07C0AB
:100E7000992319F41092BC0409C081E005C099239C
:100E800011F482E001C083E08093BC048091BC0433
:100E90008093BE04089586B1982F9870282F2470EF
:100EA0008091BC04882351F4992321F081E0809340
:100EB000BE0428C0222381F182E02AC03091BC0404
:100EC000313069F4992319F41092BE0423C022230F
:100ED00019F183E08093BE043093BD041DC080915E
:100EE000BC04823049F4992311F083E011C022231D
:100EF00099F41092BE0405C0992339F482E08093DE
:100F0000BE0481E08093BD0407C0222329F481E060
:100F10008093BE041092BD049091BE048091BC04E5
:100F2000981739F081E08093BF048091BE048093CC
:100F3000BC040895E8E6F0E0808182608083ECE6FE
:100F4000F0E080818C608083789408951F920F92E6
:100F50000FB60F9211242F933F934F935F936F938C
:100F60007F938F939F93AF93BF93EF93FF930E94D1
:100F70004B07FF91EF91BF91AF919F918F917F911F
:100F80006F915F914F913F912F910F900FBE0F90F6
:100F90001F901895482F83B190E0042E02C09595BC
:100FA00087950A94E2F780FF02C080E0089580E010
:100FB00094E20197F1F721E030E002C0220F331FE5
:100FC0004A95E2F783B190E082239323892BD1F3F2
:100FD00080E094E20197F1F781E00895A1E8B0E0A4
:100FE0008C9188608C93EFE6F0E080818260808352
:100FF0008FE99CE890938900809388008C918560AC
:101000008C9308951F920F920FB60F9211248F9315
:101010009F9380916A0390916B03019690936B0369
:1010200080936A039F918F910F900FBE0F901F9036
:101030001895EF92FF920F931F93DF93CF9300D0F9
:1010400000D0CDB7DEB700D000D000D0EDB7FEB7EE
:1010500031968E010F5F1F4FADB7BEB712961C932E
:101060000E93119781E1E82E81E0F82EF382E2825F
:101070008091C104848315820E9430108DB79EB781
:1010800006960FB6F8949EBF0FBE8DBF60915E03AB
:1010900070915F03C8010E94720280915E0390917B
:1010A0005F03049690935F0380935E0300D000D0AB
:1010B00000D0EDB7FEB73196ADB7BEB712961C9310
:1010C0000E931197F382E2828091C2048483158289
:1010D0000E9430108DB79EB706960FB6F8949EBF4B
:1010E0000FBE8DBF60915E0370915F03C8010E94C7
:1010F000720280915E0390915F03049690935F0368
:1011000080935E0300D000D000D0EDB7FEB73196DB
:10111000ADB7BEB712961C930E931197F382E2827D
:101120008091C304848315820E9430108DB79EB7CE
:1011300006960FB6F8949EBF0FBE8DBF60915E03FA
:1011400070915F03C8010E94720280915E039091CA
:101150005F03049690935F0380935E0300D000D0FA
:1011600000D0EDB7FEB73196ADB7BEB712961C935F
:101170000E931197F382E2828091C40484831582D6
:101180000E9430108DB79EB706960FB6F8949EBF9A
:101190000FBE8DBF60915E0370915F03C8010E9416
:1011A000720280915E0390915F03049690935F03B7
:1011B00080935E0300D000D000D0EDB7FEB731962B
:1011C000ADB7BEB712961C930E931197F382E282CD
:1011D0008091C004848315820E9430108DB79EB721
:1011E00006960FB6F8949EBF0FBE8DBF60915E034A
:1011F00070915F03C8010E94720280915E0390911A
:101200005F03049690935F0380935E0300D000D049
:1012100000D0EDB7FEB73196ADB7BEB712961C93AE
:101220000E931197F382E2828091C5048483158224
:101230000E9430108DB79EB706960FB6F8949EBFE9
:101240000FBE8DBF60915E0370915F03C8010E9465
:10125000720280915E0390915F03049690935F0306
:1012600080935E0300D000D000D0EDB7FEB731967A
:10127000ADB7BEB712961C930E931197F382E2821C
:101280008091C604848315820E9430108DB79EB76A
:1012900006960FB6F8949EBF0FBE8DBF60915E0399
:1012A00070915F03C8010E94720280915E03909169
:1012B0005F03049690935F0380935E0300D000D099
:1012C00000D0EDB7FEB73196ADB7BEB712961C93FE
:1012D0000E931197F382E2828091C7048483158272
:1012E0000E9430108DB79EB706960FB6F8949EBF39
:1012F0000FBE8DBF60915E0370915F03C8010E94B5
:10130000720280915E0390915F03049690935F0355
:1013100080935E0300D000D000D0EDB7FEB73196C9
:10132000ADB7BEB712961C930E931197F382E2826B
:101330008091C804848315820E9430108DB79EB7B7
:1013400006960FB6F8949EBF0FBE8DBF60915E03E8
:1013500070915F03C8010E94720280915E039091B8
:101360005F03049690935F0380935E0300D000D0E8
:1013700000D0EDB7FEB73196ADB7BEB712961C934D
:101380000E931197F382E2828091C90484831582BF
:101390000E9430108DB79EB706960FB6F8949EBF88
:1013A0000FBE8DBF60915E0370915F03C8010E9404
:1013B000720280915E0390915F03049690935F03A5
:1013C00080935E0381509D4730F082E390E09093DC
:1013D0005F0380935E030F900F900F900F90CF915B
:1013E000DF911F910F91FF90EF9008950F931F933E
:1013F000DF93CF93CDB7DEB765970FB6F894DEBF16
:101400000FBECDBF00D000D000D0EDB7FEB73196F3
:101410008E010F5F1F4FADB7BEB712961C930E9390
:10142000119786E191E09383828380915D038483A9
:1014300015820E9430108DB79EB706960FB6F894AD
:101440009EBF0FBE8DBF82E060E00E945C01C801BC
:101450000E94A40165960FB6F894DEBF0FBECDBF03
:10146000CF91DF911F910F910895CF92DF92EF926C
:10147000FF920F931F93CF93DF936C01EB01142F17
:10148000E22E8091BD044881882361F0242F30E052
:10149000812F90E001972817390711F418820AC0AC
:1014A0004F5F07C0442321F4115018831F5F02C00F
:1014B00041504883F12E153010F024E0F22E00E068
:1014C00017C0802F60E00E945C01888190E0800F4F
:1014D000911D612F70E00E94EF0EE82FF0E0EE0FFB
:1014E000FF1FEC0DFD1D808191810E94A4010F5F03
:1014F0000F1538F3EE2041F080E060E00E945C01BF
:1015000085E291E00E94A401DF91CF911F910F919C
:10151000FF90EF90DF90CF900895EF92FF920F939E
:101520001F93DF93CF93CDB7DEB7CE57D0400FB622
:10153000F894DEBF0FBECDBF7C018091DF04909197
:10154000E0040E94D10F8091E1049091E2040E9496
:10155000D10F8091E3049091E4040E94D10F809117
:10156000E5049091E6040E94D10F8091E7049091E8
:10157000E8040E94D10F8091E9049091EA040E944E
:10158000D10F00D000D000D0EDB7FEB731968E015C
:101590000F5F1F4FADB7BEB712961C930E931197F6
:1015A00088E291E093838283D7018C9184831582B2
:1015B0000E943010F80101900020E9F78DB79EB726
:1015C00006960FB6F8949EBF0FBE8DBFCF01801B4D
:1015D000910B0E94240F8093DF049093E004B801E4
:1015E0000E942910ADB7BEB718970FB6F894BEBFCA
:1015F0000FBEADBFEDB7FEB731968E010A5E1F4F2D
:1016000012961C930E93119786E391E09383828345
:10161000D70111968C9111978483158212968C9123
:10162000868317820E943010F80101900020E9F7AC
:101630008DB79EB708960FB6F8949EBF0FBE8DBFAC
:10164000CF01801B910B0E94240F8093E1049093A3
:10165000E204B8010E942910ADB7BEB718970FB6C3
:10166000F894BEBF0FBEADBFEDB7FEB731968E0189
:10167000055D1F4F12961C930E9311978BE491E01A
:1016800093838283D70113968C9113978483158259
:1016900014968C91868317820E943010F801019075
:1016A0000020E9F78DB79EB708960FB6F8949EBF55
:1016B0000FBE8DBFCF01801B910B0E94240F809322
:1016C000E3049093E404B8010E942910ADB7BEB7BB
:1016D00018970FB6F894BEBF0FBEADBFEDB7FEB7FB
:1016E00031968E01005C1F4F12961C930E9311973A
:1016F00081E691E093838283D70115968C911597AB
:101700008483158216968C91868317820E943010EE
:10171000F80101900020E9F78DB79EB708960FB643
:10172000F8949EBF0FBE8DBFCF01801B910B0E940E
:10173000240F8093E5049093E604B8010E942910D9
:10174000ADB7BEB718970FB6F894BEBF0FBEADBF0A
:10175000EDB7FEB731968E010B5A1F4F12961C93B0
:101760000E93119785E791E093838283D7011796B3
:101770008C9117978483158218968C918683178293
:101780000E943010F80101900020E9F78DB79EB754
:1017900008960FB6F8949EBF0FBE8DBFCF01801B79
:1017A000910B0E94240F8093E7049093E804B80102
:1017B0000E94291000D000D000D0EDB7FEB73196BE
:1017C0008E0106591F4FADB7BEB712961C930E93EC
:1017D00011978AE891E093838283D70119968C91BF
:1017E000848315820E943010F80101900020E9F7EF
:1017F0008DB79EB706960FB6F8949EBF0FBE8DBFED
:10180000CF01801B910B0E94240F8093E9049093D9
:10181000EA04B8010E942910C258DF4F0FB6F894AD
:10182000DEBF0FBECDBFCF91DF911F910F91FF9013
:10183000EF9008950E9421078093C00480916F0368
:10184000909170030E94D10F82E00E943B03FC0143
:101850009093700380936F0380818093C50481818E
:101860008093C60482818093C10483818093C204E3
:1018700080917103909172030E94D10F81E060E02A
:101880000E945C018BE991E00E94A40183E00E9428
:101890003B03FC01909372038093710380818093DA
:1018A000C70481818093C80482818093C3048381AB
:1018B0008093C4048AE00E9467066093C904089577
:1018C0000E9453000E9482018DE692E064E00E9433
:1018D000A7010E944F010E94C8010E94250780E8CD
:1018E0000E94BA060E94EE0778940895CF92DF9284
:1018F000EF92FF920F931F93DF93CF93CDB7DEB795
:101900002A970FB6F894DEBF0FBECDBF0E94600CC1
:10191000299A80E395E728EB30E0F9013197F1F758
:101920000197D9F784B1806C84B98AB180668AB98D
:101930001092DE040E9455018BEF92E062E00E945B
:10194000A70180E395E728EB30E0F9013197F1F743
:101950000197D9F789EC92E066E673E044E021E074
:101960000E94350A0E941A0C80915D038093CB047B
:1019700044E0D42E08EB10E033E0C32E7E0108943F
:10198000E11CF11C8091DE04882309F0D7C080910E
:10199000BF04882351F089EC92E066E673E044E0EE
:1019A00021E00E94350A1092BF0481E00E94CA071C
:1019B000882309F4A6C1809166038823B1F481E0ED
:1019C0008093DE0480EC94E00E948D0A0E94550111
:1019D00084E193E062E00E94A70180E395E7F801CB
:1019E0003197F1F70197D9F74CC08130C9F482E003
:1019F0008093DE040E9455018BEF92E062E00E942A
:101A0000A70180E395E7F8013197F1F70197D9F73E
:101A10000E9455018DE293E068E673E041E06EC1FB
:101A2000823009F05FC0C092DE0480916C03909117
:101A30006D038436910560F10E9455018BEF92E0B1
:101A400062E00E94A70160915E0370915F03605A9B
:101A50007F40C7010E94A505A4EDB4E0F7018AE02C
:101A600001900D928150E1F780E395E7F8013197FD
:101A7000F1F70197D9F70E94550184ED94E00E9497
:101A80008D0A8FED94E067E673E046E020E037C111
:101A90000E94550181E060E00E945C0180EB91E0D2
:101AA0000E94A40182E060E00E945C0185EC91E06C
:101AB0000E94A40180E395E7F8013197F1F70197BF
:101AC000D9F71092DE040E9455018BEF92E062E09C
:101AD0000E94A70180E395E7F8013197F1F701979C
:101AE000D9F707C1833009F00CC1D092DE04809190
:101AF0006E03882309F005C10E94550181E060E072
:101B00000E945C018AED91E00E94A40180E395E7C8
:101B1000F8013197F1F70197D9F71092DE040E948E
:101B200055018BEF92E062E00E94A70180E395E708
:101B3000F8013197F1F70197D9F7DBC0813029F52A
:101B40008091BF04882351F08FED94E067E673E045
:101B500046E020E00E94350A1092BF0481E00E9416
:101B6000CA07882309F4CDC01092DE040E945501F3
:101B70008BEF92E062E00E94A70180E395E7F80115
:101B80003197F1F70197D9F7B4C0823009F074C0EA
:101B900080916903882331F58091BF04882351F037
:101BA0008DE293E068E673E041E021E00E94350AAF
:101BB0001092BF0481E00E94CA07882399F081E057
:101BC000809369030E94550189E593E062E00E94D9
:101BD000A70180E395E7F8013197F1F70197D9F76D
:101BE0000E94F60980916903882309F48AC08091D4
:101BF000BF04882399F08091BD0490915D038823F0
:101C000021F09E3138F49F5F03C0903118F091505D
:101C100090935D030E94F6091092BF0481E00E9438
:101C2000CA07882309F46DC080915D038093CB04BB
:101C3000109269031092DE040E94550181E060E079
:101C40000E945C018FEE91E00E94A40180E29EE47C
:101C5000F8013197F1F70197D9F70E9455018BEF01
:101C600092E062E00E94A70180E395E7F8013197D6
:101C7000F1F70197D9F73DC0833021F58091BF047A
:101C8000882351F08FED94E067E673E046E020E0B2
:101C90000E94350A1092BF0481E00E94CA0788237F
:101CA00081F11092DE040E9455018BEF92E062E018
:101CB0000E94A70180E395E7F8013197F1F70197BA
:101CC000D9F717C08430E9F481E00E94CA0788235D
:101CD000C1F01092DE040E9455018BEF92E062E0A9
:101CE0000E94A70180E395E7F8013197F1F701978A
:101CF000D9F789EC92E066E673E044E021E00E94C7
:101D0000350A8091C104482F50E08091CB04282FE0
:101D100030E0C9010397481759072CF45E982F98B3
:101D20005D9A2E9A10C02D5F3F4F241735072CF473
:101D30005D982E985E9A2F9A06C08BB18F798BB9D9
:101D400085B18F7385B980916A0390916B0365E0CB
:101D500070E00E94DB0E892BA1F40E94550181E006
:101D600060E00E945C0184E092E00E94A4010E9475
:101D70001A0C81E060E00E945C0189E192E00E941F
:101D8000A40180916A0390916B03805D924009F0F9
:101D9000F9CD10926B0310926A0380916C039091BD
:101DA0006D03019690936D0380936C030E941A0C4F
:101DB0000E941908E7CDAA1BBB1B51E107C0AA1F4F
:101DC000BB1FA617B70710F0A61BB70B881F991FDC
:101DD0005A95A9F780959095BC01CD01089597FB80
:101DE000092E07260AD077FD04D0E5DF06D00020B3
:101DF0001AF4709561957F4F0895F6F79095819547
:101E00009F4F0895A1E21A2EAA1BBB1BFD010DC016
:101E1000AA1FBB1FEE1FFF1FA217B307E407F5079A
:101E200020F0A21BB30BE40BF50B661F771F881F76
:101E3000991F1A9469F760957095809590959B010C
:101E4000AC01BD01CF010895CF93DF93BC01823077
:101E5000910510F462E070E0A091ED04B091EE0401
:101E6000ED01E0E0F0E040E050E021C088819981A0
:101E70008617970769F48A819B81309719F09383BD
:101E8000828304C09093EE048093ED04FE0134C07D
:101E90006817790738F44115510519F0841795072B
:101EA00008F4AC01FE018A819B819C01E901209725
:101EB000E9F641155105A9F1CA01861B970B049754
:101EC00008F4BA01E0E0F0E02AC08D919C911197EE
:101ED00084179507F9F46417750781F412968D91AC
:101EE0009C911397309719F09383828304C0909349
:101EF000EE048093ED04FD0132964FC0CA01861BAB
:101F0000970BFD01E80FF91F6193719302978D9371
:101F10009C9343C0FD01828193819C01D90110975C
:101F2000A1F68091EB049091EC04892B41F480910F
:101F30006203909163039093EC048093EB044091CF
:101F40006403509165034115510541F44DB75EB7E7
:101F50008091600390916103481B590B2091EB0421
:101F60003091EC0424173507B0F4CA01821B930B9F
:101F70008617970780F0AB014E5F5F4F8417950778
:101F800050F0420F531F5093EC044093EB04F901BF
:101F90006193719302C0E0E0F0E0CF01DF91CF9157
:101FA0000895CF93DF93009709F450C0EC01229776
:101FB0001B821A82A091ED04B091EE04109709F1F2
:101FC00040E050E0AC17BD0708F1BB83AA83FE01D7
:101FD00021913191E20FF31FAE17BF0779F48D9174
:101FE0009C911197280F391F2E5F3F4F398328830B
:101FF00012968D919C9113979B838A83411551056D
:1020000071F4D093EE04C093ED0420C012968D912C
:102010009C911397AD01009711F0DC01D3CFFA0129
:10202000D383C28321913191E20FF31FCE17DF07D3
:1020300069F488819981280F391F2E5F3F4FFA017B
:10204000318320838A819B8193838283DF91CF9127
:102050000895FB01DC0101900D920020E1F7089545
:10206000AEE0B0E0E6E3F0E10C94DF120D891E89EA
:1020700086E08C831A8309838FEF9FE79E838D838D
:102080009E01275E3F4FCE0101966F89788DA90191
:102090000E9454102F813885020F131FF8011082FF
:1020A0002E96E4E00C94FB12ABE0B0E0EAE5F0E140
:1020B0000C94D1123C012B015A01FC0117821682AB
:1020C000838181FD03C06FEF7FEFC6C19AE0892E47
:1020D0001E010894211C311CF3012381F20123FD10
:1020E000859123FF81912F01882309F4B2C18532A4
:1020F00039F423FD859123FF81912F01853229F445
:1021000090E0B3010E944712E7CF982FFF24EE24FE
:102110009924FFE1FF15D0F09B3269F09C3228F43E
:10212000903259F0933291F40EC09D3249F09033C1
:1021300069F441E024C052E0F52A84E0F82A28C07E
:1021400098E0F92A25C0E0E1FE2A22C0F7FC29C068
:10215000892F80538A3070F4F6FE05C0989C902C2D
:102160001124980E15C0E89CE02C1124E80EF0E232
:10217000FF2A0EC09E3229F4F6FC6BC140E4F42A1B
:1021800007C09C3619F450E8F52A02C0983649F485
:10219000F20123FD959123FF91912F01992309F0DD
:1021A000B8CF892F8554833018F08052833038F4AB
:1021B00044E050E0A40EB51E5FE359830FC0933690
:1021C00031F0933779F0933509F056C020C0F5010E
:1021D0008081898342E050E0A40EB51E610101E0D8
:1021E00010E012C0F501C080D180F6FC03C06FEF93
:1021F0007FEF02C0692D70E042E050E0A40EB51EF2
:10220000C6010E943C128C015FE7F52214C0F50163
:10221000C080D180F6FC03C06FEF7FEF02C0692D54
:1022200070E042E050E0A40EB51EC6010E943112DB
:102230008C0150E8F52AF3FE07C01AC080E290E056
:10224000B3010E944712EA948E2D90E008171907F7
:10225000A8F30EC0F601F7FC8591F7FE81916F019E
:1022600090E0B3010E944712E110EA94015010403F
:102270000115110579F7EAC0943611F0993669F520
:10228000F7FE08C0F501208131814281538184E04D
:1022900090E00AC0F501808191819C01442737FDBF
:1022A0004095542F82E090E0A80EB91E9FE6F922D7
:1022B00057FF09C050954095309521953F4F4F4F9E
:1022C0005F4FE0E8FE2ACA01B901A1012AE030E02F
:1022D0000E947312D82ED21840C0953729F41F2DB2
:1022E0001F7E2AE030E01DC01F2D197F9F3661F050
:1022F000903720F4983509F0ACC00FC0903739F012
:10230000983709F0A6C004C028E030E00AC0106188
:1023100014FD146020E130E004C014FD166020E1DB
:1023200032E017FF08C0F5016081718182819381DD
:1023300044E050E008C0F50180819181BC0180E05B
:1023400090E042E050E0A40EB51EA1010E9473127D
:10235000D82ED2188FE7F82EF122F6FE0BC05EEFD2
:10236000F522D91438F4F4FE07C0F2FC05C08FEE54
:10237000F82202C01D2D01C0192DF4FE0DC0FE0172
:10238000ED0DF11D8081803319F499EEF92208C01A
:102390001F5FF2FE05C003C08F2D867809F01F5F16
:1023A0000F2DF3FC14C0F0FE0FC01E1510F09D2C75
:1023B0000BC09D2C9E0C911A1E2D06C080E290E051
:1023C000B3010E9447121F5F1E15C0F304C01E1503
:1023D00010F4E11A01C0EE2404FF0FC080E390E086
:1023E000B3010E94471202FF1DC001FD03C088E730
:1023F00090E00EC088E590E00BC0802F867891F0C9
:1024000001FF02C08BE201C080E2F7FC8DE290E0A8
:10241000B3010E94471206C080E390E0B3010E941E
:1024200047129A94D914C0F3DA94F101ED0DF11D1D
:10243000808190E0B3010E944712DD20A9F706C019
:1024400080E290E0B3010E944712EA94EE20C1F7C7
:1024500043CEF30166817781CB012B96E2E10C94A8
:10246000ED12FC010590615070400110D8F7809585
:1024700090958E0F9F1F0895FC0161507040019050
:102480000110D8F7809590958E0F9F1F08950F9398
:102490001F93CF93DF938C01EB018B8181FF1BC0D6
:1024A00082FF0DC02E813F818C819D8128173907C5
:1024B00064F4E881F9810193F983E88306C0E88533
:1024C000F985802F0995892B31F48E819F810196A2
:1024D0009F838E8302C00FEF1FEFC801DF91CF9162
:1024E0001F910F910895FA01AA27283051F1203148
:1024F00081F1E8946F936E7F6E5F7F4F8F4F9F4F98
:10250000AF4FB1E03ED0B4E03CD0670F781F891FD9
:102510009A1FA11D680F791F8A1F911DA11D6A0FA7
:10252000711D811D911DA11D20D009F468943F915A
:102530002AE0269F11243019305D3193DEF6CF0159
:102540000895462F4770405D4193B3E00FD0C9F71F
:10255000F6CF462F4F70405D4A3318F0495D31FD8C
:102560004052419302D0A9F7EACFB4E0A6959795DF
:10257000879577956795BA95C9F7009761057105B5
:1025800008959B01AC010A2E0694579547953795FF
:102590002795BA95C9F7620F731F841F951FA01D59
:1025A00008952F923F924F925F926F927F928F92F7
:1025B0009F92AF92BF92CF92DF92EF92FF920F93D2
:1025C0001F93CF93DF93CDB7DEB7CA1BDB0B0FB6DC
:1025D000F894DEBF0FBECDBF09942A883988488899
:1025E0005F846E847D848C849B84AA84B984C8842F
:1025F000DF80EE80FD800C811B81AA81B981CE0F26
:10260000D11D0FB6F894DEBF0FBECDBFED0108950A
:04261000F894FFCF6C
:10261400537461747573203D20307825322E3278DE
:1026240000253033640054656D7065726174757291
:1026340065253964003E2000555620496E6465784E
:102644003A2531316400496E736964652054656DBF
:10265400703A2534642E25642043004F75747369E1
:1026640064652054656D703A2533642E25642043D7
:1026740000496E736964652052483A2536642E25F4
:1026840064202525004F7574736964652052483AA7
:102694002535642E256420252500576569676874EF
:1026A4003A253764206772616D73002053616D7041
:1026B4006C6520416C6D6F737420446F6E652000EF
:1026C4002044415441204E4F5420415641494C41ED
:1026D400424C4520004D4F52452044415441205026
:1026E4005453204E454544454400202020204E4F5D
:1026F400205741524E494E4753202020202000208D
:102704002020504152414D455445522053455421B7
:102714002020200020202047657474696E672053B0
:10272400616D706C652020200020202053616D7045
:102734006C652041637175697265642020002020F6
:102744002020202020202020202020202020202085
:1027540020200020202020202057454C434F4D4569
:10276400202020202020200020202020544F2054EE
:10277400484520484956452020202020002E024369
:102784000258022E022D205365652053656E736F27
:10279400722056616C75657320002D2041646A7542
:1027A40073742053657474696E6773202020002D40
:1027B400204265737420436F6E646974696F6E732D
:1027C400202020002D20536565205761726E696EAC
:1027D40067732020202020200075028A029F02B403
:1027E40002202020505245535320544F2053454C2F
:1027F400454354202000205343524F4C4C20544F07
:1028040020534545204D4F52452000D102E6022079
:1028140020505245535320544F20474F20424143A8
:102824004B202000FF02E6022D20536574205465DE
:102834006D706572617475726520202000180353F1
:1028440043524F4C4C20544F204348414E4745205F
:1028540056414C00505245535320544F2053454C3D
:102864004543542020202020002F03440314320029
:062874002000EF0400004B
:00000001FF
