:100000000C9434000C9451000C9451000C94510049
:100010000C94A6070C9451000C9451000C945100C0
:100020000C9451000C9451000C9451000C94020853
:100030000C9451000C9451000C9451000C945100FC
:100040000C9451000C9451000C9451000C945100EC
:100050000C9451000C9451000C9451000C945100DC
:100060000C9451000C94510011241FBECFEFD8E026
:10007000DEBFCDBF13E0A0E0B1E0E2E2F7E202C0F4
:1000800005900D92AC3BB107D9F715E0ACEBB3E0AE
:1000900001C01D92AA34B107E1F70E94700C0C94C4
:1000A0008F130C9400008FE290E09093C500809332
:1000B000C400E1ECF0E08081886080838081806111
:1000C0008083E2ECF0E08081866080830895FC010B
:1000D00006C08091C00085FFFCCF9093C60091912F
:1000E0009923B9F70895982F8091C00085FFFCCF20
:1000F0009093C60008958091C00087FFFCCF809147
:10010000C6000895BF92CF92DF92EF92FF920F93B5
:100110001F93CF93DF93B82EFB01D901E70141155F
:10012000510531F40115110519F490E080E054C037
:1001300084EA8093BC008091BC0087FFFCCF909143
:10014000B900987F983009F09FC08B2D8E7F8093E7
:10015000BB0084E88093BC008091BC0087FFFCCF8B
:100160009091B900987F9831B1F0903209F08CC02D
:1001700088C080818093BB002093BC008091BC002C
:1001800087FFFCCF9091B900987F41505040983242
:10019000C9F4319601C024E84115510551F716C044
:1001A0008C918093BB002093BC008091BC0087FFA2
:1001B000FCCF9091B900987F01501040983211F413
:1001C000119605C0903309F05FC05BC024E80115AB
:1001D000110531F791E081E0C114D10409F44EC05A
:1001E000882311F428E001C020E184EA8093BC0058
:1001F0008091BC0087FFFCCF9091B900987F921747
:1002000009F042C081E0B82AB092BB0084E8809334
:10021000BC008091BC0087FFFCCF9091B900987F13
:10022000903419F0983481F52CC00894C108D10895
:1002300024EC11C02093BC008091BC0087FFFCCF50
:100240009091B900987F0894C108D1089035E1F4E5
:100250008091BB008993C114D10461F784E8809335
:10026000BC008091BC0087FFFCCF9091B900987FC3
:10027000983551F48091BB00888302C0992321F006
:1002800090E084E98093BC00892FDF91CF911F918A
:100290000F91FF90EF90DF90CF90BF900895109254
:1002A000B9008DE18093B80008958EEF0E9473002D
:1002B00081E50E94730008951F93813039F08130E9
:1002C00038F0823039F0833049F406C010E407C0BA
:1002D00010E005C014E103C014E501C01FEF160FC4
:1002E0008EEF0E94730085E40E947300812F0E94AC
:1002F00073001F9108950E94550180E060E00E9404
:100300005C01089584EC99E028EB30E0F901319725
:10031000F1F70197D9F784EC99E028EB30E0F90187
:100320003197F1F70197D9F78EEF0E94730081E5BD
:100330000E9473008EEF0E94730082E50E9473009A
:1003400082E30E94730008950E9467000895EF926F
:10035000FF920F931F93CF93DF938C01C0E0D0E007
:10036000E62EFF240BC08C2F60E00E945C01F80198
:10037000819191918F010E9467002196CE15DF0532
:1003800094F3DF91CF911F910F91FF90EF9008951B
:10039000ECE7F0E0808180648083808180628083EC
:1003A000EAE7F0E0808187608083808180688083D5
:1003B000089590917C00907F90937C0090917C00B8
:1003C0008F70892B80937C0080917A008064809369
:1003D0007A0080917A0086FDFCCF809179000895A3
:1003E000CF92DF92EF92FF920F931F93DF93CF9301
:1003F00000D0CDB7DEB77C016B0159834A8380EA18
:10040000BE016F5F7F4F42E050E020E030E000E04F
:1004100010E00E9482000F900F90CF91DF911F910A
:100420000F91FF90EF90DF90CF9008952F923F9221
:100430004F925F926F927F928F929F92AF92BF92F4
:10044000CF92DF92EF92FF920F931F93DF93CF93A0
:1004500000D0CDB7DEB72C013B014A01212C34E29C
:10046000332E27C099828A82C4018F73907020E452
:10047000A22EB12CA81AB90A6A147B0408F45301FD
:1004800080EABE016F5F7F4F42E050E0920185013C
:10049000EE24FF24CC24DD240E948200882369F40A
:1004A000C1010197F1F74A0C5B1C8A0C9B1C6A186E
:1004B0007B0861147104B1F680E00F900F90CF912A
:1004C000DF911F910F91FF90EF90DF90CF90BF9041
:1004D000AF909F908F907F906F905F904F903F90E4
:1004E0002F900895AB0164E070E00E941602089519
:1004F000AF92BF92CF92DF92EF92FF920F931F9332
:10050000DF93CF9300D0CDB7DEB7FBECAF2EF3E097
:10051000BF2E28E2D5011D922A95E9F799838A8397
:1005200080EABE016F5F7F4F42E050E020E030E0A4
:1005300000E010E07501E8E2CE2ED12C0E9482008E
:10054000282F882311F4C50123C000D000D000D08B
:10055000EDB7FEB7319603EF13E0ADB7BEB7129615
:100560001C930E93119780E091E093838283822FF6
:10057000992787FD9095958384830E94B710C801C1
:10058000EDB7FEB736960FB6F894FEBF0FBEEDBFBF
:100590000F900F90CF91DF911F910F91FF90EF90EF
:1005A000DF90CF90BF90AF9008959AB121E030E0F6
:1005B00002C0220F331F8A95E2F7922B9AB99BB1A2
:1005C000822F809589238BB980E090E90197F1F71C
:1005D0008BB1282B2BB908959AB121E030E002C0ED
:1005E000220F331F8A95E2F7822F809589238AB9DB
:1005F00089B190E082239323892BD1F789B190E0D0
:1006000082239323892BD1F389B190E08223932312
:10061000892BD1F70895382F41E050E002C0440FF4
:10062000551F8A95E2F760E070E020E0E9E489B1C7
:1006300090E084239523892BD1F38E2F8A95F1F7AF
:1006400089B190E0032E02C0959587950A94E2F750
:1006500080FF03C0220F216001C0220F89B190E00A
:1006600084239523892BD1F76F5F7F4F6830710505
:10067000F1F6822F0895CF92DF92EF92FF920F93BF
:100680001F93CF93DF93E82E84E090E00E94AB0F9E
:100690008C018E2D0E94D5028E2D0E94EC02E80165
:1006A000FF2484E0C82ED12CC00ED11E8E2D0E94B6
:1006B0000B038993F80ECC15DD05C1F78E2D0E9432
:1006C0000B03F81611F000E010E0C801DF91CF91A4
:1006D0001F910F91FF90EF90DF90CF9008956F9250
:1006E0007F928F929F92AF92BF92CF92DF92EF92C2
:1006F000FF920F931F93DF93CF93CDB7DEB72A9767
:100700000FB6F894DEBF0FBECDBFFC016E2C8F2C50
:10071000A02EC12EE22E032FA42F452F262F8B8D26
:100720007724680E711C759467948C8D9924880EBB
:10073000911C959487948D8DBB24A80EB11CB59403
:10074000A7948E8DDD24C80ED11CD594C7948F8DAF
:10075000FF24E80EF11CF594E79488A110E0080F3F
:10076000111D1595079589A1B0E0A80FB11DB5958C
:10077000A7958AA150E0480F511D559547958BA12B
:1007800030E0280F311D359527958CA1871B818777
:1007900020874783A6830583E482C382A282818265
:1007A0006082CF012A960FB6F894DEBF0FBECDBF90
:1007B000CF91DF911F910F91FF90EF90DF90CF903D
:1007C000BF90AF909F908F907F906F900895CF9241
:1007D000DF92EF92FF920F931F93DC01FB01C28027
:1007E00080EDC80E808104E68002C0011124C80E8D
:1007F00081811AE08102C0011124C80ED68080EDEB
:10080000D80E84818002C0011124D80E8581810216
:10081000C0011124D80EE28480EDE80E80858002AC
:10082000C0011124E80E81858102C0011124E80E67
:10083000F68480EDF80E84858002C0011124F80E44
:1008400085858102C0011124F80E72897053808958
:100850008002C0011124780F81898102C001112416
:10086000780F6689605384898002C0011124680F63
:1008700085898102C0011124680F528D5053808DEB
:100880008002C0011124580F818D8102C001112402
:10089000580F468D4053848D8002C0011124480FAB
:1008A000858D8102C0011124480F32A1305380A1EF
:1008B0008002C0011124380F81A18102C0011124DE
:1008C000380F26A1205384A18002C0011124280FD3
:1008D00085A18102C0011124280F19962C93199724
:1008E00018963C93189717964C93179716965C9307
:1008F000169715966C93159714967C9314971396E8
:10090000FC9213971296EC9212971196DC92119723
:10091000CC92CD011F910F91FF90EF90DF90CF907F
:10092000089590914C04E6E5F4E080E031E0208108
:10093000921710F0292F01C0832F3F5F3A963A306B
:1009400011F0922FF4CF089590914C04E6E5F4E075
:1009500080E031E02081921710F0292F01C0832F11
:100960003F5F3A96393011F0922FF4CF08956F928D
:100970007F928F929F92AF92BF92CF92DF92EF922F
:10098000FF920F931F93DF93CF93CDB7DEB72A97D4
:100990000FB6F894DEBF0FBECDBF782E692E6B0167
:1009A000EE24FF245E010894A11CB11CC6010E9424
:1009B0007802BC018701000F111FC701E3E0880F17
:1009C000991FEA95E1F7080F191F0D5B1B4FC50131
:1009D0000E94E703D801F5018AE001900D92815051
:1009E000E1F788E290E0C80ED91E0894E11CF11CE2
:1009F0009AE0E916F104D1F6CC24DD244E010894E6
:100A0000811C911C96010894C11CD11CC90159017B
:100A100053E0AA0CBB1C5A95E1F7880F991FA80E4A
:100A2000B91EA3E4B4E0AA0EBB1E8DB79EB70A9709
:100A30000FB6F8949EBF0FBE8DBFC901F90103E048
:100A4000EE0FFF1F0A95E1F7880F991FE80FF91FB6
:100A5000EA0FFB1FA601440F551FC60163E0880F74
:100A6000991F6A95E1F7480F591F2DB73EB72F5FC1
:100A70003F4F4A0F5B1F8AE0DA010D90AD01D901AB
:100A80000D929D018150C1F7C401E080F180028187
:100A900013812481358146815781608571850E944B
:100AA0006F03D501F4018AE001900D928150E1F7C6
:100AB0008DB79EB70A960FB6F8949EBF0FBE8DBF36
:100AC00099E0C916D10409F09DCF80914C04E6E568
:100AD000F4E021E030E09081891710F0982F01C0F8
:100AE000322F2F5F3A96293011F0892FF4CF832FC0
:100AF00090E0FC0133E0EE0FFF1F3A95E1F7880F1D
:100B0000991FE80FF91F272D362DC901DC01ED5B78
:100B1000FB4F8AE001900D928150E1F7872D962DD1
:100B20002A960FB6F894DEBF0FBECDBFCF91DF91EE
:100B30001F910F91FF90EF90DF90CF90BF90AF90FB
:100B40009F908F907F906F9008958F929F92AF9219
:100B5000BF92CF92DF92EF92FF920F931F93DF939A
:100B6000CF93CDB7DEB72A970FB6F894DEBF0FBE8E
:100B7000CDBF982E892E6B01EE24FF245E010894D0
:100B8000A11CB11C8701000F111FC70123E0880FB2
:100B9000991F2A95E1F7080F191F09551B4FC50129
:100BA000B6010E94B704D801F5018AE001900D92C8
:100BB0008150E1F780E991E0C80ED91E0894E11C4C
:100BC000F11C9AE0E916F104E9F680914C04E6E59F
:100BD000F4E021E030E09081891710F0982F01C0F7
:100BE000322F2F5F3A962A3011F0892FF4CF832FBE
:100BF00090E0FC01B3E0EE0FFF1FBA95E1F7880F1C
:100C0000991FE80FF91F292D382DC901DC01E9557D
:100C1000FB4F8AE001900D928150E1F7892D982DCC
:100C20002A960FB6F894DEBF0FBECDBFCF91DF91ED
:100C30001F910F91FF90EF90DF90CF90BF90AF90FA
:100C40009F908F90089529B1332727FD30952095E7
:100C500030952227330F221F3327C90108954F995A
:100C6000FECF5F9A28984F99FECF80E090E0A0E0F9
:100C7000B0E020E0289A880F991FAA1FBB1F289870
:100C80004F9B03C00196A11DB11D2F5F283191F725
:100C9000289A289820E030E040E850E028273927BB
:100CA0004A275B27B901CA010895803439F080389A
:100CB00019F0803241F404C081E003C083E001C038
:100CC00082E080930F0528980E942F060895CF9206
:100CD000DF92EF92FF920F931F93C82EEE24FF2412
:100CE0008701DD2407C00E942F06E60EF71E081FAD
:100CF000191FD394DC14B8F32C2D30E040E050E001
:100D0000C801B7010E94890FCA01B9011F910F9153
:100D1000FF90EF90DF90CF9008950E9467069B01AF
:100D2000AC0180910B0590910C05A0910D05B0913F
:100D30000E05281B390B4A0B5B0BB901CA0108953C
:100D40000E948D06209110053091110540911205E9
:100D5000509113050E94890FCA01B90108950E949C
:100D6000670660930B0570930C0580930D059093B7
:100D70000E0508951F93182F209A57985F9A0E9486
:100D800055068AE00E94AF0680E094E1612F70E092
:100D90000E94760F882777FD8095982F6093100525
:100DA0007093110580931205909313051F91089578
:100DB00060931005709311058093120590931305AD
:100DC0000895609110057091110580911205909120
:100DD0001305089560930B0570930C0580930D0522
:100DE00090930E05089560910B0570910C0580910C
:100DF0000D0590910E0508952898289A8CEA8A95F9
:100E0000F1F708952898089540E027E030E0289A07
:100E100089B190E080789070022E02C0880F991FEF
:100E20000A94E2F7482B2898215030408FEF2F3F4B
:100E3000380769F7842F08958AE00E94A006862F5C
:100E4000089581E00E94D901089588B18C6088B925
:100E50008091680082608093680080916C008C6053
:100E600080936C00789486B1982F987082FD07C0AB
:100E7000992319F41092140509C081E005C0992343
:100E800011F482E001C083E0809314058091140581
:100E900080931605089586B1982F9870282F247096
:100EA00080911405882351F4992321F081E08093E7
:100EB000160528C0222381F182E02AC03091140552
:100EC000313069F4992319F41092160523C02223B6
:100ED00019F183E080931605309315051DC08091AC
:100EE0001405823049F4992311F083E011C02223C4
:100EF00099F41092160505C0992339F482E0809385
:100F0000160581E08093150507C0222329F481E0AE
:100F10008093160510921505909116058091140581
:100F2000981739F081E0809317058091160580931A
:100F300014050895E8E6F0E0808182608083ECE6A5
:100F4000F0E080818C608083789408951F920F92E6
:100F50000FB60F9211242F933F934F935F936F938C
:100F60007F938F939F93AF93BF93EF93FF930E94D1
:100F70004B07FF91EF91BF91AF919F918F917F911F
:100F80006F915F914F913F912F910F900FBE0F90F6
:100F90001F901895482F83B190E0042E02C09595BC
:100FA00087950A94E2F780FF02C080E0089580E010
:100FB00094E20197F1F721E030E002C0220F331FE5
:100FC0004A95E2F783B190E082239323892BD1F3F2
:100FD00080E094E20197F1F781E00895A1E8B0E0A4
:100FE0008C9188608C93EFE6F0E080818260808352
:100FF0008FE99CE890938900809388008C918560AC
:101000008C9308951F920F920FB60F9211248F9315
:101010009F938091C2039091C30301969093C30361
:101020008093C20381E090E09093C5038093C40352
:101030009F918F910F900FBE0F901F901895EF9278
:10104000FF920F931F93DF93CF9300D000D0CDB7C3
:10105000DEB700D000D000D0EDB7FEB731968E01DC
:101060000F5F1F4FADB7BEB712961C930E9311972B
:1010700081E1E82E81E0F82EF382E2828091190569
:10108000848315820E94B7108DB79EB706960FB65F
:10109000F8949EBF0FBE8DBF6091B4037091B503ED
:1010A000C8010E9472028091B4039091B503049626
:1010B0009093B5038093B40300D000D000D0EDB777
:1010C000FEB73196ADB7BEB712961C930E9311972B
:1010D000F382E28280911A05848315820E94B71000
:1010E0008DB79EB706960FB6F8949EBF0FBE8DBF04
:1010F0006091B4037091B503C8010E94720280919F
:10110000B4039091B50304969093B5038093B40310
:1011100000D000D000D0EDB7FEB73196ADB7BEB766
:1011200012961C930E931197F382E28280911B0515
:10113000848315820E94B7108DB79EB706960FB6AE
:10114000F8949EBF0FBE8DBF6091B4037091B5033C
:10115000C8010E9472028091B4039091B503049675
:101160009093B5038093B40300D000D000D0EDB7C6
:10117000FEB73196ADB7BEB712961C930E9311977A
:10118000F382E28280911C05848315820E94B7104D
:101190008DB79EB706960FB6F8949EBF0FBE8DBF53
:1011A0006091B4037091B503C8010E9472028091EE
:1011B000B4039091B50304969093B5038093B40360
:1011C00000D000D000D0EDB7FEB73196ADB7BEB7B6
:1011D00012961C930E931197F382E2828091180568
:1011E000848315820E94B7108DB79EB706960FB6FE
:1011F000F8949EBF0FBE8DBF6091B4037091B5038C
:10120000C8010E9472028091B4039091B5030496C4
:101210009093B5038093B40300D000D000D0EDB715
:10122000FEB73196ADB7BEB712961C930E931197C9
:10123000F382E28280911D05848315820E94B7109B
:101240008DB79EB706960FB6F8949EBF0FBE8DBFA2
:101250006091B4037091B503C8010E94720280913D
:10126000B4039091B50304969093B5038093B403AF
:1012700000D000D000D0EDB7FEB73196ADB7BEB705
:1012800012961C930E931197F382E28280911E05B1
:10129000848315820E94B7108DB79EB706960FB64D
:1012A000F8949EBF0FBE8DBF6091B4037091B503DB
:1012B000C8010E9472028091B4039091B503049614
:1012C0009093B5038093B40300D000D000D0EDB765
:1012D000FEB73196ADB7BEB712961C930E93119719
:1012E000F382E28280911F05848315820E94B710E9
:1012F0008DB79EB706960FB6F8949EBF0FBE8DBFF2
:101300006091B4037091B503C8010E94720280918C
:10131000B4039091B50304969093B5038093B403FE
:1013200000D000D000D0EDB7FEB73196ADB7BEB754
:1013300012961C930E931197F382E28280912005FE
:10134000848315820E94B7108DB79EB706960FB69C
:10135000F8949EBF0FBE8DBF6091B4037091B5032A
:10136000C8010E9472028091B4039091B503049663
:101370009093B5038093B40300D000D000D0EDB7B4
:10138000FEB73196ADB7BEB712961C930E93119768
:10139000F382E28280912105848315820E94B71036
:1013A0008DB79EB706960FB6F8949EBF0FBE8DBF41
:1013B0006091B4037091B503C8010E9472028091DC
:1013C000B4039091B50304969093B5038093B4034E
:1013D00081509D4730F082E390E09093B503809375
:1013E000B4030F900F900F900F90CF91DF911F914A
:1013F0000F91FF90EF9008950F931F93DF93CF937A
:10140000CDB7DEB765970FB6F894DEBF0FBECDBF80
:1014100000D000D000D0EDB7FEB731968E010F5F3F
:101420001F4FADB7BEB712961C930E93119786E16E
:1014300091E0938382838091B303848315820E9419
:10144000B7108DB79EB706960FB6F8949EBF0FBE25
:101450008DBF82E060E00E945C01C8010E94A4018F
:1014600065960FB6F894DEBF0FBECDBFCF91DF916A
:101470001F910F910895CF92DF92EF92FF920F93F9
:101480001F93CF93DF936C01EB01142FE22E809119
:1014900015054881882361F0242F30E0812F90E0EA
:1014A00001972817390711F418820AC04F5F07C047
:1014B000442321F4115018831F5F02C04150488318
:1014C000F12E153010F024E0F22E00E017C0802F2E
:1014D00060E00E945C01888190E0800F911D612F87
:1014E00070E00E94760FE82FF0E0EE0FFF1FEC0D8A
:1014F000FD1D808191810E94A4010F5F0F1538F3BB
:10150000EE2041F080E060E00E945C0185E291E025
:101510000E94A401DF91CF911F910F91FF90EF9056
:10152000DF90CF900895EF92FF920F931F93DF9378
:10153000CF93CDB7DEB7CE57D0400FB6F894DEBF0D
:101540000FBECDBF7C0180913A0590913B050E9472
:10155000581080913C0590913D050E945810809153
:101560003E0590913F050E94581080914005909152
:1015700041050E94581080914205909143050E94B8
:10158000581080914405909145050E94581000D054
:1015900000D000D0EDB7FEB731968E010F5F1F4F20
:1015A000ADB7BEB712961C930E93119788E291E0E7
:1015B00093838283D7018C91848315820E94B71014
:1015C000F80101900020E9F78DB79EB706960FB697
:1015D000F8949EBF0FBE8DBFCF01801B910B0E9460
:1015E000AB0F80933A0590933B05B8010E94B01071
:1015F000ADB7BEB718970FB6F894BEBF0FBEADBF5C
:10160000EDB7FEB731968E010A5E1F4F12961C93FE
:101610000E93119786E391E093838283809119055D
:1016200084831582D70112968C91868317820E943B
:10163000B710F80101900020E9F78DB79EB7089622
:101640000FB6F8949EBF0FBE8DBFCF01801B910BCC
:101650000E94AB0F80933C0590933D05B8010E941A
:10166000B010ADB7BEB718970FB6F894BEBF0FBE97
:10167000ADBFEDB7FEB731968E01055D1F4F1296D7
:101680001C930E9311978BE491E093838283809156
:101690001B0584831582D70114968C91868317824B
:1016A0000E94B710F80101900020E9F78DB79EB7AE
:1016B00008960FB6F8949EBF0FBE8DBFCF01801B5A
:1016C000910B0E94AB0F80933E0590933F05B801AC
:1016D0000E94B010ADB7BEB718970FB6F894BEBF52
:1016E0000FBEADBFEDB7FEB731968E01005C1F4F48
:1016F00012961C930E93119781E691E09383828357
:1017000080911D0584831582D70116968C9186835E
:1017100017820E94B710F80101900020E9F78DB7F9
:101720009EB708960FB6F8949EBF0FBE8DBFCF012F
:10173000801B910B0E94AB0F809340059093410555
:10174000B8010E94B010ADB7BEB718970FB6F894A5
:10175000BEBF0FBEADBFEDB7FEB731968E010B5ABF
:101760001F4F12961C930E93119785E791E0938378
:10177000828380911F0584831582D70118968C91EE
:10178000868317820E94B710F80101900020E9F7C4
:101790008DB79EB708960FB6F8949EBF0FBE8DBF4B
:1017A000CF01801B910B0E94AB0F80934205909359
:1017B0004305B8010E94B01000D000D000D0EDB7B2
:1017C000FEB731968E0106591F4FADB7BEB71296C0
:1017D0001C930E9311978AE891E093838283D7013B
:1017E00019968C91848315820E94B710F80101909C
:1017F0000020E9F78DB79EB706960FB6F8949EBF06
:101800000FBE8DBFCF01801B910B0E94AB0F809349
:10181000440590934505B8010E94B010C258DF4FAF
:101820000FB6F894DEBF0FBECDBFCF91DF911F91F1
:101830000F91FF90EF9008950E9421078093180563
:101840008091C7039091C8030E94581082E00E94C3
:101850003B03FC019093C8038093C703808180936E
:101860001D05818180931E058281809319058381E6
:1018700080931A058091C9039091CA030E94581061
:1018800083E00E943B03FC019093CA038093C90349
:10189000808180931F0581818093200582818093C0
:1018A0001B05838180931C058AE00E946706609374
:1018B000210508950E9453000E94820183EC92E06A
:1018C00064E00E94A7010E944F010E94C8010E948B
:1018D000250780E80E94BA060E94EE0778940895D2
:1018E000AF92BF92CF92DF92EF92FF920F931F932E
:1018F000DF93CF93CDB7DEB72E970FB6F894DEBF48
:101900000FBECDBF0E945A0C299A80E395E728EBC1
:1019100030E0F9013197F1F70197D9F784B1806C84
:1019200084B98AB180668AB9109236050E94550141
:1019300081E593E062E00E94A70180E395E728EB50
:1019400030E0F9013197F1F70197D9F78FE193E092
:101950006CEB73E044E021E00E943B0A0E941C0C07
:101960008091B303809323056E010894C11CD11CA0
:1019700049E9A42E41E0B42E08EB10E035E0E32E57
:10198000F12CEC0EFD1E80E060E00E945C0100D0B6
:1019900000D000D0EDB7FEB73196ADB7BEB7129606
:1019A000DC92CE921197B382A2828091C003909173
:1019B000C103958384830E94B7108DB79EB70696A6
:1019C0000FB6F8949EBF0FBE8DBFC6010E94A40142
:1019D00080913605882309F005C180911705882379
:1019E00051F08FE193E06CEB73E044E021E00E9462
:1019F0003B0A1092170581E00E94CA07882309F468
:101A0000D4C18091BC038823B1F481E08093360572
:101A100088E195E00E94930A0E9455018AE693E0CE
:101A200062E00E94A70180E395E7F8013197F1F7A2
:101A30000197D9F74DC08130C9F482E08093360513
:101A40000E94550181E593E062E00E94A70180E3D6
:101A500095E7F8013197F1F70197D9F70E94550101
:101A600083E893E06EEB73E041E09CC1823009F0C3
:101A700060C083E0809336058091C0039091C103DC
:101A80008436910560F10E94550181E593E062E0A2
:101A90000E94A7016091B4037091B503605A7F4022
:101AA000C7010E94A505ACE2B5E0F7018AE001900C
:101AB0000D928150E1F780E395E7F8013197F1F756
:101AC0000197D9F70E9455018CE295E00E94930A94
:101AD0008AE395E06DEB73E046E020E064C10E948C
:101AE000550181E060E00E945C018CE991E00E9478
:101AF000A40182E060E00E945C0181EB91E00E9421
:101B0000A40180E395E7F8013197F1F70197D9F740
:101B1000109236050E94550181E593E062E00E9433
:101B2000A70180E395E7F8013197F1F70197D9F71D
:101B300034C1833009F039C184E080933605809147
:101B4000C603882379F10E94550186EC91E00E943A
:101B5000A40180913705813019F48CED91E004C027
:101B6000823021F481EF91E00E94A4018091380538
:101B7000813019F486E092E004C0823021F48BE1D8
:101B800092E00E94A40180913905813019F480E32C
:101B900092E005C0823009F008C185E492E00E941D
:101BA000A40103C181E060E00E945C018AE592E04B
:101BB0000E94A40180E395E7F8013197F1F70197BE
:101BC000D9F7109236050E94550181E593E062E055
:101BD0000E94A70180E395E7F8013197F1F701979B
:101BE000D9F7DBC0813029F580911705882351F0A2
:101BF0008AE395E06DEB73E046E020E00E943B0A4B
:101C00001092170581E00E94CA07882309F4CDC00D
:101C1000109236050E94550181E593E062E00E9432
:101C2000A70180E395E7F8013197F1F70197D9F71C
:101C3000B4C0823009F074C08091BF03882331F5AD
:101C400080911705882351F083E893E06EEB73E0F1
:101C500041E021E00E943B0A1092170581E00E94BA
:101C6000CA07882399F081E08093BF030E94550141
:101C70008FEA93E062E00E94A70180E395E7F80114
:101C80003197F1F70197D9F70E94FC098091BF03C2
:101C9000882309F48AC080911705882399F08091E0
:101CA00015059091B303882321F09E3138F49F5F8E
:101CB00003C0903118F091509093B3030E94FC0937
:101CC0001092170581E00E94CA07882309F46DC0AD
:101CD0008091B303809323051092BF0310923605C1
:101CE0000E94550181E060E00E945C018FE692E075
:101CF0000E94A40180E29EE4F8013197F1F7019778
:101D0000D9F70E94550181E593E062E00E94A701A6
:101D100080E395E7F8013197F1F70197D9F73DC0D6
:101D2000833021F580911705882351F08AE395E0EF
:101D30006DEB73E046E020E00E943B0A109217052D
:101D400081E00E94CA07882381F1109236050E9423
:101D5000550181E593E062E00E94A70180E395E7E9
:101D6000F8013197F1F70197D9F717C08430E9F4FA
:101D700081E00E94CA078823C1F0109236050E94B4
:101D8000550181E593E062E00E94A70180E395E7B9
:101D9000F8013197F1F70197D9F78FE193E06CEBF8
:101DA00073E044E021E00E943B0A80911905482F2E
:101DB00050E080912305282F30E0C9010397481790
:101DC00059074CF45D9A2E9A26503040421753071B
:101DD000D4F481E00DC0C9010396841795075CF423
:101DE0005E9A2F9A2B5F3F4F2417350764F082E0ED
:101DF0008093370508C08BB18F798BB985B18F730C
:101E000085B91092370580911D05823410F081E06C
:101E100003C08D3220F482E08093380502C0109216
:101E20003805809118058B3010F081E003C08823BD
:101E300021F482E08093390502C010923905109296
:101E4000C60380913705882319F081E08093C6038B
:101E500080913805882329F08091C6038F5F809395
:101E6000C60380913905882329F08091C6038F5FCE
:101E70008093C6038091C2039091C3036AE070E02F
:101E80000E94620F892B09F07ECD8091C40390914E
:101E9000C503892B09F477CD0E941C0C1092C50351
:101EA0001092C4031092C3031092C2038091C00326
:101EB0009091C10301969093C1038093C0030E9447
:101EC0001F0861CDAA1BBB1B51E107C0AA1FBB1F86
:101ED000A617B70710F0A61BB70B881F991F5A95B6
:101EE000A9F780959095BC01CD01089597FB092E27
:101EF00007260AD077FD04D0E5DF06D000201AF4CB
:101F0000709561957F4F0895F6F7909581959F4F55
:101F10000895A1E21A2EAA1BBB1BFD010DC0AA1F2A
:101F2000BB1FEE1FFF1FA217B307E407F50720F042
:101F3000A21BB30BE40BF50B661F771F881F991FBD
:101F40001A9469F760957095809590959B01AC0106
:101F5000BD01CF010895CF93DF93BC01823091057D
:101F600010F462E070E0A0914805B0914905ED01E0
:101F7000E0E0F0E040E050E021C0888199818617E0
:101F8000970769F48A819B81309719F09383828344
:101F900004C09093490580934805FE0134C068173A
:101FA000790738F44115510519F08417950708F49D
:101FB000AC01FE018A819B819C01E9012097E9F631
:101FC00041155105A9F1CA01861B970B049708F426
:101FD000BA01E0E0F0E02AC08D919C91119784173E
:101FE0009507F9F46417750781F412968D919C9109
:101FF0001397309719F09383828304C09093490517
:1020000080934805FD0132964FC0CA01861B970B8D
:10201000FD01E80FF91F6193719302978D939C93D3
:1020200043C0FD01828193819C01D9011097A1F6E3
:102030008091460590914705892B41F48091B80322
:102040009091B90390934705809346054091BA0358
:102050005091BB034115510541F44DB75EB78091D6
:10206000B6039091B703481B590B20914605309158
:10207000470524173507B0F4CA01821B930B861756
:10208000970780F0AB014E5F5F4F8417950750F0C4
:10209000420F531F5093470540934605F901619342
:1020A000719302C0E0E0F0E0CF01DF91CF9108959D
:1020B000CF93DF93009709F450C0EC0122971B8265
:1020C0001A82A0914805B0914905109709F140E0A6
:1020D00050E0AC17BD0708F1BB83AA83FE01219134
:1020E0003191E20FF31FAE17BF0779F48D919C91E8
:1020F0001197280F391F2E5F3F4F3983288312967F
:102100008D919C9113979B838A834115510571F49E
:10211000D0934905C093480520C012968D919C919B
:102120001397AD01009711F0DC01D3CFFA01D383EF
:10213000C28321913191E20FF31FCE17DF0769F4BB
:1021400088819981280F391F2E5F3F4FFA01318313
:1021500020838A819B8193838283DF91CF9108952D
:10216000FB01DC0101900D920020E1F70895AEE043
:10217000B0E0EDEBF0E10C9466130D891E8986E06A
:102180008C831A8309838FEF9FE79E838D839E0143
:10219000275E3F4FCE0101966F89788DA9010E947D
:1021A000DB102F813885020F131FF80110822E9645
:1021B000E4E00C948213ABE0B0E0E1EEF0E10C94CB
:1021C00058133C012B015A01FC01178216828381AE
:1021D00081FD03C06FEF7FEFC6C19AE0892E1E011B
:1021E0000894211C311CF3012381F20123FD859108
:1021F00023FF81912F01882309F4B2C1853239F47C
:1022000023FD859123FF81912F01853229F490E0F0
:10221000B3010E94CE12E7CF982FFF24EE24992419
:10222000FFE1FF15D0F09B3269F09C3228F4903228
:1022300059F0933291F40EC09D3249F0903369F415
:1022400041E024C052E0F52A84E0F82A28C098E052
:10225000F92A25C0E0E1FE2A22C0F7FC29C0892F17
:1022600080538A3070F4F6FE05C0989C902C11249F
:10227000980E15C0E89CE02C1124E80EF0E2FF2A2D
:102280000EC09E3229F4F6FC6BC140E4F42A07C06C
:102290009C3619F450E8F52A02C0983649F4F20148
:1022A00023FD959123FF91912F01992309F0B8CF38
:1022B000892F8554833018F08052833038F444E0FD
:1022C00050E0A40EB51E5FE359830FC0933631F082
:1022D000933779F0933509F056C020C0F50180811D
:1022E000898342E050E0A40EB51E610101E010E0D8
:1022F00012C0F501C080D180F6FC03C06FEF7FEF04
:1023000002C0692D70E042E050E0A40EB51EC60187
:102310000E94C3128C015FE7F52214C0F501C08052
:10232000D180F6FC03C06FEF7FEF02C0692D70E033
:1023300042E050E0A40EB51EC6010E94B8128C0106
:1023400050E8F52AF3FE07C01AC080E290E0B3011E
:102350000E94CE12EA948E2D90E008171907A8F378
:102360000EC0F601F7FC8591F7FE81916F0190E0B8
:10237000B3010E94CE12E110EA9401501040011501
:10238000110579F7EAC0943611F0993669F5F7FE30
:1023900008C0F501208131814281538184E090E0C1
:1023A0000AC0F501808191819C01442737FD409549
:1023B000542F82E090E0A80EB91E9FE6F92257FF45
:1023C00009C050954095309521953F4F4F4F5F4F35
:1023D000E0E8FE2ACA01B901A1012AE030E00E942A
:1023E000FA12D82ED21840C0953729F41F2D1F7E1F
:1023F0002AE030E01DC01F2D197F9F3661F0903715
:1024000020F4983509F0ACC00FC0903739F09837F8
:1024100009F0A6C004C028E030E00AC0106114FD35
:10242000146020E130E004C014FD166020E132E0C9
:1024300017FF08C0F501608171818281938144E0BA
:1024400050E008C0F50180819181BC0180E090E0FE
:1024500042E050E0A40EB51EA1010E94FA12D82E4F
:10246000D2188FE7F82EF122F6FE0BC05EEFF522B0
:10247000D91438F4F4FE07C0F2FC05C08FEEF82240
:1024800002C01D2D01C0192DF4FE0DC0FE01ED0D81
:10249000F11D8081803319F499EEF92208C01F5F85
:1024A000F2FE05C003C08F2D867809F01F5F0F2D47
:1024B000F3FC14C0F0FE0FC01E1510F09D2C0BC0D5
:1024C0009D2C9E0C911A1E2D06C080E290E0B30157
:1024D0000E94CE121F5F1E15C0F304C01E1510F41B
:1024E000E11A01C0EE2404FF0FC080E390E0B301C5
:1024F0000E94CE1202FF1DC001FD03C088E790E0DC
:102500000EC088E590E00BC0802F867891F001FF27
:1025100002C08BE201C080E2F7FC8DE290E0B301E3
:102520000E94CE1206C080E390E0B3010E94CE125A
:102530009A94D914C0F3DA94F101ED0DF11D808164
:1025400090E0B3010E94CE12DD20A9F706C080E220
:1025500090E0B3010E94CE12EA94EE20C1F743CE80
:10256000F30166817781CB012B96E2E10C94741321
:10257000FC010590615070400110D8F7809590954E
:102580008E0F9F1F0895FC01615070400190011053
:10259000D8F7809590958E0F9F1F08950F931F93E6
:1025A000CF93DF938C01EB018B8181FF1BC082FFF6
:1025B0000DC02E813F818C819D812817390764F4DD
:1025C000E881F9810193F983E88306C0E885F985FC
:1025D000802F0995892B31F48E819F8101969F83ED
:1025E0008E8302C00FEF1FEFC801DF91CF911F91C3
:1025F0000F910895FA01AA27283051F1203181F175
:10260000E8946F936E7F6E5F7F4F8F4F9F4FAF4FFA
:10261000B1E03ED0B4E03CD0670F781F891F9A1F0D
:10262000A11D680F791F8A1F911DA11D6A0F711DC1
:10263000811D911DA11D20D009F468943F912AE0CD
:10264000269F11243019305D3193DEF6CF010895B5
:10265000462F4770405D4193B3E00FD0C9F7F6CFE6
:10266000462F4F70405D4A3318F0495D31FD4052AE
:10267000419302D0A9F7EACFB4E0A6959795879544
:1026800077956795BA95C9F7009761057105089523
:102690009B01AC010A2E06945795479537952795CF
:1026A000BA95C9F7620F731F841F951FA01D089567
:1026B0002F923F924F925F926F927F928F929F9252
:1026C000AF92BF92CF92DF92EF92FF920F931F9340
:1026D000CF93DF93CDB7DEB7CA1BDB0B0FB6F894F1
:1026E000DEBF0FBECDBF09942A88398848885F8431
:1026F0006E847D848C849B84AA84B984C884DF80A2
:10270000EE80FD800C811B81AA81B981CE0FD11D85
:102710000FB6F894DEBF0FBECDBFED010895F8945B
:02272000FFCFE9
:10272200537461747573203D20307825322E3278CF
:1027320000253033640054656D7065726174757282
:1027420065253964003E2000555620496E6465783F
:102752003A2531316400496E736964652054656DB0
:10276200703A2534642E25642043004F75747369D2
:1027720064652054656D703A2533642E25642043C8
:1027820000496E736964652052483A2536642E25E5
:1027920064202525004F7574736964652052483A98
:1027A2002535642E256420252500576569676874E0
:1027B2003A202531306420670025640020444154CA
:1027C20041204E4F5420415641494C41424C4520F4
:1027D200004D4F5245204441544120505453204E05
:1027E2004545444544002020202020205761726E38
:1027F200696E67733A2020202020200054656D7096
:102802002069732061626F7665203236432E202064
:102812000054656D702069732062656C6F7720319A
:1028220034432E20200048756D69646974792069EB
:10283200732061626F76652036350048756D696474
:102842006974792069732062656C6F772034350072
:1028520055562069732061626F76652031302E20D3
:10286200202020200055562069732062656C6F7706
:1028720020312E20202020202000202020204E4FFA
:10288200205741524E494E475320202020200020FD
:102892002020504152414D45544552205345542128
:1028A2002020200020202020202020202020202046
:1028B20020202020202020200020202020202057FF
:1028C200454C434F4D452020202020202000202031
:1028D2002020544F20544845204849564520202066
:1028E20020200084029902AE0284022D20536565E5
:1028F2002053656E736F722056616C75657320008C
:102902002D2041646A7573742053657474696E670F
:1029120073202020002D204265737420436F6E6463
:102922006974696F6E73202020002D205365652025
:102932005761726E696E677320202020202000CBC1
:1029420002E002F5020A0320202050524553532090
:10295200544F2053454C45435420200020534352AA
:102962004F4C4C20544F20534545204D4F5245204B
:102972000027033C032020505245535320544F203C
:10298200474F204241434B20200055033C032D205A
:102992005365742054656D7065726174757265203B
:1029A2002020006E035343524F4C4C20544F20437F
:1029B20048414E47452056414C0050524553532002
:1029C200544F2053454C454354202020202000855D
:0C29D200039A0314320020004A050000A4
:00000001FF
