:100000000C9434000C9446000C9446000C9446006A
:100010000C9446000C9446000C9446000C94460048
:100020000C9446000C9446000C9446000C94460038
:100030000C9446000C9446000C9446000C94460028
:100040000C9446000C9446000C9446000C94460018
:100050000C9446000C9446000C9446000C94460008
:100060000C9446000C94460011241FBECFEFD8E03C
:10007000DEBFCDBF11E0A0E0B1E001C01D92A13014
:10008000B107E1F70E9448000C9487000C9400002F
:100090008FE190E09093C5008093C4008091C100EF
:1000A00088608093C1008091C10080618093C1000D
:1000B00086E08093C2008091C00087FFFCCF9091C2
:1000C000C6008091C00085FFFCCF9093C600F3CF9F
:1000D0009093C5008093C400E1ECF0E080818860DB
:1000E000808380818061808386E08093C200089550
:1000F000982F8091C00085FFFCCF9093C600089593
:100100008091C00087FFFCCF8091C6000895F894CD
:02011000FFCF1F
:00000001FF
