:100000000C9434000C9451000C9451000C94510049
:100010000C9451000C9451000C9451000C9451001C
:100020000C9451000C9451000C9451000C9451000C
:100030000C9451000C9451000C9451000C945100FC
:100040000C9451000C9451000C9451000C945100EC
:100050000C9451000C9451000C9451000C945100DC
:100060000C9451000C94510011241FBECFEFD8E026
:10007000DEBFCDBF12E0A0E0B1E0E0E7F2E102C0F8
:1000800005900D92A031B107D9F712E0A0E1B2E0DE
:1000900001C01D92A133B107E1F70E9468010C94E1
:1000A00036090C9400009093C5008093C400E1ECE5
:1000B000F0E0808188608083808180618083E2ECD1
:1000C000F0E08081866080830895FC0106C0809105
:1000D000C00085FFFCCF9093C60091919923B9F79A
:1000E0000895982F8091C00085FFFCCF9093C600A3
:1000F00008958091C00087FFFCCF8091C6000895CD
:1001000029B1332727FD3095209530952227330FCD
:10011000221F3327C90108954F99FECF5F9A82E0CD
:10012000982F9A95F1F728988A95F1F74F99FECF75
:1001300040E050E090E022E0289A822F8A95F1F783
:10014000440F551F2898822F8A95F1F74F9B02C0C4
:100150004F5F5F4F9F5F983179F7289A82E0282F91
:100160002A95F1F728988A95F1F7BA0180E090E096
:100170000895803439F0803819F0803241F404C099
:1001800081E003C083E001C082E0809314022898DC
:100190000E948C000895209A57985F9A0E94B90097
:1001A0000895CF92DF92EF92FF920F931F93C82E84
:1001B000EE24FF248701DD2407C00E948C00E60E98
:1001C000F71E081F191FD394DC14B8F32C2D30E050
:1001D00040E050E0C801B7010E943C06CA01B901E5
:1001E0001F910F91FF90EF90DF90CF9008950E94A4
:1001F000D1000E941304209110023091110240910D
:100200001202509113020E94090308950E94F70000
:100210002091150230911602409117025091180258
:100220000E94670308950E94D1000E941304609306
:10023000100270931102809312029093130208959A
:100240006093150270931602809317029093180220
:100250000895209115023091160240911702509195
:100260001802B901CA010895609310027093110237
:1002700080931202909313020895209110023091FE
:1002800011024091120250911302B901CA0108955E
:100290002898289A8CEA8A95F1F708952898089565
:1002A00040E027E030E0289A89B190E080789070B3
:1002B000022E02C0880F991F0A94E2F7482B289853
:1002C000215030408FEF2F3F380769F7842F089572
:1002D000EF92FF920F931F93CF93DF938FE290E003
:1002E0000E945300789480E80E94CB0088E893E154
:1002F00028EB30E0F9013197F1F70197D9F7C9E11F
:10030000D2E080E0E82E81E0F82E08EB10E08AE0F1
:100310000E94D100DC01CB0168E770E00E94280652
:1003200060932D0270932E0200D000D000D0EDB764
:10033000FEB73196ADB7BEB71296DC93CE93119748
:10034000F382E282648375830E9495068DB79EB71F
:1003500006960FB6F8949EBF0FBE8DBFCE010E94C9
:10036000650083E091E00E94650088E893E1F80170
:100370003197F1F70197D9F7CACFA0E0B0E0E3ECED
:10038000F1E00C945E06DC012B01FA019C919230A5
:1003900008F439C1EB018881823008F433C194300C
:1003A00069F4843009F02FC111969C9111978981CD
:1003B000981709F428C1A7E0B1E025C1843009F4F9
:1003C00021C18230A9F4923009F01DC19A01AD011A
:1003D00088E0EA010990AE01E90109929E0181508D
:1003E000C1F7E201898111969C918923818308C11B
:1003F000923009F407C112962D903C901397EB01AF
:100400008A819B811496AD90BD90CD90DC9017971A
:10041000EC80FD800E811F819101281B390BB901F1
:1004200037FF04C066277727621B730B60327105A4
:100430000CF061C0121613066CF537014801062E48
:1004400004C096948794779467940A94D2F721E035
:1004500030E040E050E004C0220F331F441F551F1E
:100460006A95D2F721503040404050402E213F2124
:1004700040235123211531054105510521F021E08B
:1004800030E040E050E079018A01E628F7280829A9
:1004900019293CC0232BD1F1260E371E3501460108
:1004A000062E04C096948794779467940A94D2F7A2
:1004B00021E030E040E050E004C0220F331F441F31
:1004C000551F6A95D2F721503040404050402A21B4
:1004D0003B214C215D21211531054105510521F0BC
:1004E00021E030E040E050E059016A01A628B72839
:1004F000C828D9280BC0821593052CF01C01AA240A
:10050000BB24650103C0EE24FF24870111969C9152
:10051000D20111968C91981709F445C0992339F0AE
:10052000A80197012A193B094C095D0906C0A601DB
:1005300095012E193F09400B510B57FD08C0118240
:100540003382228224833583468357831DC081E012
:1005500081833382228288279927DC01821B930BB7
:10056000A40BB50B84839583A683B7830DC0220F9C
:10057000331F441F551F248335834683578382814D
:1005800093810197938382832481358146815781AA
:10059000DA01C9010197A109B1098F5F9F4FAF4FE0
:1005A000BF4328F30BC0918333822282EA0CFB1CE9
:1005B0000C1D1D1DE482F5820683178383E0808372
:1005C000248135814681578157FF1AC0C901AA2766
:1005D00097FDA095BA2F81709070A070B07056955D
:1005E000479537952795822B932BA42BB52B848386
:1005F0009583A683B78382819381019693838283B7
:10060000DF0101C0D201CD01CDB7DEB7E2E10C942C
:100610007A06A0E2B0E0EFE0F3E00C946A066983AA
:100620007A838B839C832D833E834F835887E9E0B5
:10063000EE2EF12CEC0EFD1ECE010196B7010E94AC
:10064000B0058E010F5E1F4FCE010596B8010E94C6
:10065000B0058A8991E089278A8BC701B801AE016C
:10066000475E5F4F0E94BD010E94DB04A096E6E05A
:100670000C948606A0E2B0E0E0E4F3E00C946A0695
:1006800069837A838B839C832D833E834F83588732
:10069000F9E0EF2EF12CEC0EFD1ECE010196B70114
:1006A0000E94B0058E010F5E1F4FCE010596B80166
:1006B0000E94B005C701B801AE01475E5F4F0E94BE
:1006C000BD010E94DB04A096E6E00C948606A8E13A
:1006D000B0E0EDE6F3E00C94660669837A838B83E1
:1006E0009C832D833E834F835887B9E0EB2EF12CFA
:1006F000EC0EFD1ECE010196B7010E94B0058E01E1
:100700000F5E1F4FCE010596B8010E94B0052985E6
:10071000223008F47EC03989323010F4B8017CC030
:100720008A859A8989278A87243011F0223031F40A
:10073000231709F06EC067E071E06EC0343039F401
:100740001D861E861F86188A1C861B8604C03230B2
:1007500021F484E08987B7015FC02B853C858B89B4
:100760009C89281B390B3C872B87ED84FE840F85E1
:100770001889AD88BE88CF88D88CEA14FB040C0594
:100780001D0540F4EE0CFF1C001F111F21503040CE
:100790003C872B8720E030E040E050E080E090E0B4
:1007A000A0E0B0E460E070E0EA14FB040C051D0575
:1007B00040F0282B392B4A2B5B2BEA18FB080C093D
:1007C0001D09B695A79597958795EE0CFF1C001F00
:1007D000111F6F5F7F4F6F31710531F7DA01C9016A
:1007E0008F779070A070B07080349105A105B1052D
:1007F00061F427FD0AC0E114F1040105110529F097
:10080000205C3F4F4F4F5F4F20782D873E874F87AB
:10081000588BBE01675F7F4FCB010E94DB04689657
:10082000EAE00C948206A8E0B0E0E9E1F4E00C9480
:1008300066067B018C01611571058105910519F42E
:1008400082E0898360C083E089838EE1C82ED12C49
:10085000DC82CB82ED82FE820F831887C801B7014C
:100860000E948C04FC013197F7FF3BC022273327FD
:100870002E1B3F0B57016801022E04C0D694C7946B
:10088000B794A7940A94D2F740E050E060E070E09B
:1008900081E090E0A0E0B0E004C0880F991FAA1F9B
:1008A000BB1F2A95D2F70197A109B1098E219F217B
:1008B000A023B1230097A105B10521F041E050E04C
:1008C00060E070E04A295B296C297D294D835E83B5
:1008D0006F8378878EE190E08E1B9F0B9C838B83C8
:1008E00012C0309781F00E2E04C0EE0CFF1C001FCA
:1008F000111F0A94D2F7ED82FE820F831887CE1A59
:10090000DF0ADC82CB821A82CE0101960E94DB04D0
:100910002896EAE00C948206EF92FF920F931F93C1
:100920007B018C0180E0E81680E0F80681E0080792
:1009300080E0180788F48FEFE816F104010511052F
:1009400031F028F088E090E0A0E0B0E017C080E04F
:1009500090E0A0E0B0E012C080E0E81680E0F80689
:1009600080E0080781E0180728F088E190E0A0E027
:10097000B0E004C080E190E0A0E0B0E020E230E030
:1009800040E050E0281B390B4A0B5B0B04C0169566
:100990000795F794E7948A95D2F7F701E15FFE4F48
:1009A0008081281B310941095109C9011F910F910B
:1009B000FF90EF900895DF92EF92FF920F931F93B5
:1009C000FC01E480F58006811781D180808182302E
:1009D00048F480E090E0A0E1B0E0E82AF92A0A2B90
:1009E0001B2BA5C0843009F49FC0823021F4EE2473
:1009F000FF24870105C0E114F1040105110519F474
:100A0000E0E0F0E096C0628173819FEF6238790781
:100A10000CF05BC022E83FEF261B370B2A31310573
:100A20002CF020E030E040E050E02AC0B801A701FF
:100A3000022E04C076956795579547950A94D2F78C
:100A400081E090E0A0E0B0E004C0880F991FAA1FE9
:100A5000BB1F2A95D2F70197A109B1098E219F21C9
:100A6000A023B1230097A105B10521F081E090E01A
:100A7000A0E0B0E09A01AB01282B392B4A2B5B2B6D
:100A8000DA01C9018F779070A070B0708034910541
:100A9000A105B10539F427FF09C0205C3F4F4F4F36
:100AA0005F4F04C0215C3F4F4F4F5F4FE0E0F0E0ED
:100AB0002030A0E03A07A0E04A07A0E45A0710F06F
:100AC000E1E0F0E079018A0127C06038710564F542
:100AD000FB01E158FF4FD801C7018F779070A070DC
:100AE000B07080349105A105B10539F4E7FE0DC061
:100AF00080E490E0A0E0B0E004C08FE390E0A0E0EC
:100B0000B0E0E80EF91E0A1F1B1F17FF05C016955F
:100B10000795F794E794319687E016950795F79433
:100B2000E7948A95D1F705C0EE24FF248701EFEF03
:100B3000F0E06E2F679566276795902F9F77D79483
:100B4000DD24D7948E2F8695492F462B582F5D296B
:100B5000B701CA011F910F91FF90EF90DF900895A8
:100B6000FC01DB01408151812281622F6F7770E0AF
:100B7000221F2227221F9381892F880F822B282F43
:100B800030E0991F9927991F11969C931197211571
:100B90003105A9F5411551056105710511F482E092
:100BA00037C082E89FEF13969C938E9312979A0119
:100BB000AB0167E0220F331F441F551F6A95D1F721
:100BC00083E08C930DC0220F331F441F551F1296D4
:100BD0008D919C911397019713969C938E931297E6
:100BE000203080E0380780E0480780E4580758F359
:100BF00014962D933D934D935C93179708952F3F33
:100C0000310579F4411551056105710519F484E048
:100C10008C93089564FF03C081E08C9312C01C92F2
:100C200010C02F57304013963C932E93129783E0B9
:100C30008C9387E0440F551F661F771F8A95D1F765
:100C4000706414964D935D936D937C9317970895FC
:100C5000AA1BBB1B51E107C0AA1FBB1FA617B707E2
:100C600010F0A61BB70B881F991F5A95A9F78095FE
:100C70009095BC01CD010895A1E21A2EAA1BBB1BC1
:100C8000FD010DC0AA1FBB1FEE1FFF1FA217B30758
:100C9000E407F50720F0A21BB30BE40BF50B661F6E
:100CA000771F881F991F1A9469F760957095809532
:100CB00090959B01AC01BD01CF0108952F923F9209
:100CC0004F925F926F927F928F929F92AF92BF925C
:100CD000CF92DF92EF92FF920F931F93CF93DF9308
:100CE000CDB7DEB7CA1BDB0B0FB6F894DEBF0FBE65
:100CF000CDBF09942A88398848885F846E847D84B2
:100D00008C849B84AA84B984C884DF80EE80FD80B3
:100D10000C811B81AA81B981CE0FD11D0FB6F89429
:100D2000DEBF0FBECDBFED010895AEE0B0E0EBE950
:100D3000F6E00C946C060D891E8986E08C831A837C
:100D400009838FEF9FE79E838D839E01275E3F4F30
:100D5000CE0101966F89788DA9010E94B9062F8175
:100D60003885020F131FF80110822E96E4E00C94D0
:100D70008806ABE0B0E0EFEBF6E00C945E063C01D9
:100D80002B015A01FC0117821682838181FD03C069
:100D90006FEF7FEFC6C19AE0892E1E010894211CD7
:100DA000311CF3012381F20123FD859123FF819101
:100DB0002F01882309F4B2C1853239F423FD8591CE
:100DC00023FF81912F01853229F490E0B3010E9425
:100DD000AC08E7CF982FFF24EE249924FFE1FF15FC
:100DE000D0F09B3269F09C3228F4903259F0933263
:100DF00091F40EC09D3249F0903369F441E024C073
:100E000052E0F52A84E0F82A28C098E0F92A25C0A3
:100E1000E0E1FE2A22C0F7FC29C0892F80538A30E6
:100E200070F4F6FE05C0989C902C1124980E15C005
:100E3000E89CE02C1124E80EF0E2FF2A0EC09E325E
:100E400029F4F6FC6BC140E4F42A07C09C3619F47F
:100E500050E8F52A02C0983649F4F20123FD959135
:100E600023FF91912F01992309F0B8CF892F855441
:100E7000833018F08052833038F444E050E0A40E00
:100E8000B51E5FE359830FC0933631F0933779F085
:100E9000933509F056C020C0F5018081898342E076
:100EA00050E0A40EB51E610101E010E012C0F50192
:100EB000C080D180F6FC03C06FEF7FEF02C0692DC8
:100EC00070E042E050E0A40EB51EC6010E94A108E9
:100ED0008C015FE7F52214C0F501C080D180F6FCDB
:100EE00003C06FEF7FEF02C0692D70E042E050E079
:100EF000A40EB51EC6010E9496088C0150E8F52A82
:100F0000F3FE07C01AC080E290E0B3010E94AC0873
:100F1000EA948E2D90E008171907A8F30EC0F60189
:100F2000F7FC8591F7FE81916F0190E0B3010E947B
:100F3000AC08E110EA94015010400115110579F751
:100F4000EAC0943611F0993669F5F7FE08C0F5014C
:100F5000208131814281538184E090E00AC0F50113
:100F6000808191819C01442737FD4095542F82E078
:100F700090E0A80EB91E9FE6F92257FF09C05095D0
:100F80004095309521953F4F4F4F5F4FE0E8FE2A47
:100F9000CA01B901A1012AE030E00E94D808D82E88
:100FA000D21840C0953729F41F2D1F7E2AE030E06B
:100FB0001DC01F2D197F9F3661F0903720F49835A2
:100FC00009F0ACC00FC0903739F0983709F0A6C0CF
:100FD00004C028E030E00AC0106114FD146020E174
:100FE00030E004C014FD166020E132E017FF08C0B5
:100FF000F501608171818281938144E050E008C0F5
:10100000F50180819181BC0180E090E042E050E0F8
:10101000A40EB51EA1010E94D808D82ED2188FE7C1
:10102000F82EF122F6FE0BC05EEFF522D91438F44B
:10103000F4FE07C0F2FC05C08FEEF82202C01D2DA1
:1010400001C0192DF4FE0DC0FE01ED0DF11D8081D2
:10105000803319F499EEF92208C01F5FF2FE05C033
:1010600003C08F2D867809F01F5F0F2DF3FC14C08D
:10107000F0FE0FC01E1510F09D2C0BC09D2C9E0C79
:10108000911A1E2D06C080E290E0B3010E94AC08C8
:101090001F5F1E15C0F304C01E1510F4E11A01C035
:1010A000EE2404FF0FC080E390E0B3010E94AC087F
:1010B00002FF1DC001FD03C088E790E00EC088E577
:1010C00090E00BC0802F867891F001FF02C08BE288
:1010D00001C080E2F7FC8DE290E0B3010E94AC0811
:1010E00006C080E390E0B3010E94AC089A94D91442
:1010F000C0F3DA94F101ED0DF11D808190E0B301B0
:101100000E94AC08DD20A9F706C080E290E0B301A0
:101110000E94AC08EA94EE20C1F743CEF301668149
:101120007781CB012B96E2E10C947A06FC010590C5
:10113000615070400110D8F7809590958E0F9F1FD9
:101140000895FC016150704001900110D8F780951E
:1011500090958E0F9F1F08950F931F93CF93DF934A
:101160008C01EB018B8181FF1BC082FF0DC02E81A2
:101170003F818C819D812817390764F4E881F981CA
:101180000193F983E88306C0E885F985802F0995E6
:10119000892B31F48E819F8101969F838E8302C0BB
:1011A0000FEF1FEFC801DF91CF911F910F910895AD
:1011B000FA01AA27283051F1203181F1E8946F9388
:1011C0006E7F6E5F7F4F8F4F9F4FAF4FB1E03ED02E
:1011D000B4E03CD0670F781F891F9A1FA11D680FCC
:1011E000791F8A1F911DA11D6A0F711D811D911DFF
:1011F000A11D20D009F468943F912AE0269F112474
:101200003019305D3193DEF6CF010895462F4770D7
:10121000405D4193B3E00FD0C9F7F6CF462F4F7032
:10122000405D4A3318F0495D31FD4052419302D090
:10123000A9F7EACFB4E0A695979587957795679536
:10124000BA95C9F700976105710508959B01AC0136
:101250000A2E06945795479537952795BA95C9F75D
:10126000620F731F841F951FA01D0895F894FFCF70
:10127000257500202C200000000000000000000068
:101280000102020303030304040404040404040528
:1012900005050505050505050505050505050506FD
:1012A00006060606060606060606060606060606DE
:1012B00006060606060606060606060606060607CD
:1012C00007070707070707070707070707070707AE
:1012D000070707070707070707070707070707079E
:1012E000070707070707070707070707070707078E
:1012F000070707070707070707070707070707087D
:10130000080808080808080808080808080808085D
:10131000080808080808080808080808080808084D
:10132000080808080808080808080808080808083D
:10133000080808080808080808080808080808082D
:10134000080808080808080808080808080808081D
:10135000080808080808080808080808080808080D
:1013600008080808080808080808080808080808FD
:1013700008080808080808080808080808080800F5
:00000001FF
