:100000000C9434000C9451000C9451000C94510049
:100010000C9451000C9451000C9451000C9451001C
:100020000C9451000C9451000C9451000C9451000C
:100030000C9451000C9451000C9451000C945100FC
:100040000C9451000C9451000C9451000C945100EC
:100050000C9451000C9451000C9451000C945100DC
:100060000C9451000C94510011241FBECFEFD8E026
:10007000DEBFCDBF11E0A0E0B1E0E0ECFAE002C0ED
:1000800005900D92A430B107D9F711E0A4E0B1E0DA
:1000900001C01D92A232B107E1F70E94F1010C9458
:1000A0005E050C9400009093C5008093C400E1ECC1
:1000B000F0E0808188608083808180618083E2ECD1
:1000C000F0E08081866080830895FC0106C0809105
:1000D000C00085FFFCCF9093C60091919923B9F79A
:1000E0000895982F8091C00085FFFCCF9093C600A3
:1000F00008958091C00087FFFCCF8091C6000895CD
:100100008EEF0E94710081E50E94710008951F9397
:10011000813039F0813038F0823039F0833049F461
:1001200006C010E407C010E005C014E103C014E5E8
:1001300001C01FEF160F8EEF0E94710085E40E9430
:100140007100812F0E94710080E197E228EB30E07E
:10015000F9013197F1F70197D9F71F9108950E949E
:10016000800080E060E00E948700089584EC99E0C0
:1001700028EB30E0F9013197F1F70197D9F784ECDA
:1001800099E028EB30E0F9013197F1F70197D9F7C1
:100190008EEF0E94710081E50E94710008950E9417
:1001A00065000895EF92FF920F931F93CF93DF9313
:1001B0008C01C0E0D0E0E62EFF240BC08C2F60E065
:1001C0000E948700F801819191918F010E94650042
:1001D0002196CE15DF0594F3DF91CF911F910F91FA
:1001E000FF90EF90089529B1332727FD3095209592
:1001F00030952227330F221F3327C90108954F99C5
:10020000FECF5F9A28984F99FECF80E090E0A0E063
:10021000B0E020E0289A880F991FAA1FBB1F2898DA
:100220004F9B03C00196A11DB11D2F5F283191F78F
:10023000289A289820E030E040E850E02827392725
:100240004A275B27B901CA010895803439F0803804
:1002500019F0803241F404C081E003C083E001C0A2
:1002600082E08093080128980E94FF000895CF92B1
:10027000DF92EF92FF920F931F93C82EEE24FF247C
:100280008701DD2407C00E94FF00E60EF71E081F4D
:10029000191FD394DC14B8F32C2D30E040E050E06B
:1002A000C801B7010E945002CA01B9011F910F9104
:1002B000FF90EF90DF90CF9008950E9437019B014F
:1002C000AC018091040190910501A0910601B091CB
:1002D0000701281B390B4A0B5B0BB901CA010895B2
:1002E0000E945D012091090130910A0140910B01AA
:1002F00050910C010E945002CA01B90108950E9458
:100300003701609304017093050180930601909377
:10031000070108951F93182F209A57985F9A0E94FB
:1003200025018AE00E947F0180E094E1612F70E066
:100330000E943D02882777FD8095982F60930901E0
:1003400070930A0180930B0190930C011F91089503
:100350006093090170930A0180930B0190930C0143
:1003600008956091090170910A0180910B019091AB
:100370000C010895609304017093050180930601B8
:100380009093070108956091040170910501809197
:1003900006019091070108952898289A8CEA8A9579
:1003A000F1F708952898089540E027E030E0289A72
:1003B00089B190E080789070022E02C0880F991F5A
:1003C0000A94E2F7482B2898215030408FEF2F3FB6
:1003D000380769F7842F08958AE00E947001862FFC
:1003E0000895EF92FF920F931F93CF93DF938FE2C5
:1003F00090E00E9453000E94B600789480E80E942A
:100400008A0188E893E128EB30E0F9013197F1F7B0
:100410000197D9F7CDE0D1E080E0E82E81E0F82E19
:1004200008EB10E00E94EC018093210100D000D085
:1004300000D0EDB7FEB73196ADB7BEB71296DC93DC
:10044000CE931197F382E282848315820E94860202
:100450008DB79EB706960FB6F8949EBF0FBE8DBFA0
:100460000E94AF00CE010E94CF0088E893E1F8011E
:100470003197F1F70197D9F7D5CF97FB092E0726CA
:100480000AD077FD04D02ED006D000201AF4709543
:1004900061957F4F0895F6F7909581959F4F089548
:1004A000A1E21A2EAA1BBB1BFD010DC0AA1FBB1F78
:1004B000EE1FFF1FA217B307E407F50720F0A21BEA
:1004C000B30BE40BF50B661F771F881F991F1A9457
:1004D00069F760957095809590959B01AC01BD0181
:1004E000CF010895AA1BBB1B51E107C0AA1FBB1F68
:1004F000A617B70710F0A61BB70B881F991F5A95B0
:10050000A9F780959095BC01CD010895AEE0B0E0CB
:10051000ECE8F2E00C9435050D891E8986E08C83A9
:100520001A8309838FEF9FE79E838D839E01275E49
:100530003F4FCE0101966F89788DA9010E94AA02D2
:100540002F813885020F131FF80110822E96E4E0E8
:100550000C945105ABE0B0E0E0EBF2E00C94270521
:100560003C012B015A01FC0117821682838181FD17
:1005700003C06FEF7FEFC6C19AE0892E1E01089479
:10058000211C311CF3012381F20123FD859123FFFE
:1005900081912F01882309F4B2C1853239F423FDFA
:1005A000859123FF81912F01853229F490E0B301D9
:1005B0000E949D04E7CF982FFF24EE249924FFE1A9
:1005C000FF15D0F09B3269F09C3228F4903259F03C
:1005D000933291F40EC09D3249F0903369F441E0BA
:1005E00024C052E0F52A84E0F82A28C098E0F92ACD
:1005F00025C0E0E1FE2A22C0F7FC29C0892F8053E4
:100600008A3070F4F6FE05C0989C902C1124980E48
:1006100015C0E89CE02C1124E80EF0E2FF2A0EC081
:100620009E3229F4F6FC6BC140E4F42A07C09C36E4
:1006300019F450E8F52A02C0983649F4F20123FD76
:10064000959123FF91912F01992309F0B8CF892F1C
:100650008554833018F08052833038F444E050E001
:10066000A40EB51E5FE359830FC0933631F0933764
:1006700079F0933509F056C020C0F5018081898357
:1006800042E050E0A40EB51E610101E010E012C08E
:10069000F501C080D180F6FC03C06FEF7FEF02C090
:1006A000692D70E042E050E0A40EB51EC6010E9424
:1006B00092048C015FE7F52214C0F501C080D1805F
:1006C000F6FC03C06FEF7FEF02C0692D70E042E0DF
:1006D00050E0A40EB51EC6010E9487048C0150E8AC
:1006E000F52AF3FE07C01AC080E290E0B3010E9431
:1006F0009D04EA948E2D90E008171907A8F30EC008
:10070000F601F7FC8591F7FE81916F0190E0B3014E
:100710000E949D04E110EA9401501040011511055A
:1007200079F7EAC0943611F0993669F5F7FE08C0FA
:10073000F501208131814281538184E090E00AC03B
:10074000F501808191819C01442737FD4095542F0C
:1007500082E090E0A80EB91E9FE6F92257FF09C07B
:1007600050954095309521953F4F4F4F5F4FE0E8B2
:10077000FE2ACA01B901A1012AE030E00E94C904A1
:10078000D82ED21840C0953729F41F2D1F7E2AE09D
:1007900030E01DC01F2D197F9F3661F0903720F487
:1007A000983509F0ACC00FC0903739F0983709F090
:1007B000A6C004C028E030E00AC0106114FD146037
:1007C00020E130E004C014FD166020E132E017FFA4
:1007D00008C0F501608171818281938144E050E01D
:1007E00008C0F50180819181BC0180E090E042E089
:1007F00050E0A40EB51EA1010E94C904D82ED21843
:100800008FE7F82EF122F6FE0BC05EEFF522D91429
:1008100038F4F4FE07C0F2FC05C08FEEF82202C0E7
:100820001D2D01C0192DF4FE0DC0FE01ED0DF11DB1
:100830008081803319F499EEF92208C01F5FF2FE1F
:1008400005C003C08F2D867809F01F5F0F2DF3FCC4
:1008500014C0F0FE0FC01E1510F09D2C0BC09D2C77
:100860009E0C911A1E2D06C080E290E0B3010E94FA
:100870009D041F5F1E15C0F304C01E1510F4E11A7D
:1008800001C0EE2404FF0FC080E390E0B3010E949A
:100890009D0402FF1DC001FD03C088E790E00EC06B
:1008A00088E590E00BC0802F867891F001FF02C0B0
:1008B0008BE201C080E2F7FC8DE290E0B3010E9480
:1008C0009D0406C080E390E0B3010E949D049A94C9
:1008D000D914C0F3DA94F101ED0DF11D808190E09F
:1008E000B3010E949D04DD20A9F706C080E290E0DC
:1008F000B3010E949D04EA94EE20C1F743CEF301B8
:1009000066817781CB012B96E2E10C944305FC01D3
:100910000590615070400110D8F7809590958E0F2A
:100920009F1F0895FC016150704001900110D8F79D
:10093000809590958E0F9F1F08950F931F93CF93CF
:10094000DF938C01EB018B8181FF1BC082FF0DC007
:100950002E813F818C819D812817390764F4E881BD
:10096000F9810193F983E88306C0E885F985802F32
:100970000995892B31F48E819F8101969F838E8307
:1009800002C00FEF1FEFC801DF91CF911F910F91B0
:100990000895FA01AA27283051F1203181F1E89415
:1009A0006F936E7F6E5F7F4F8F4F9F4FAF4FB1E062
:1009B0003ED0B4E03CD0670F781F891F9A1FA11D5D
:1009C000680F791F8A1F911DA11D6A0F711D811D5E
:1009D000911DA11D20D009F468943F912AE0269F23
:1009E00011243019305D3193DEF6CF010895462F82
:1009F0004770405D4193B3E00FD0C9F7F6CF462F63
:100A00004F70405D4A3318F0495D31FD40524193CB
:100A100002D0A9F7EACFB4E0A69597958795779588
:100A20006795BA95C9F700976105710508959B010F
:100A3000AC010A2E06945795479537952795BA9598
:100A4000C9F7620F731F841F951FA01D08952F9271
:100A50003F924F925F926F927F928F929F92AF924E
:100A6000BF92CF92DF92EF92FF920F931F93CF939B
:100A7000DF93CDB7DEB7CA1BDB0B0FB6F894DEBF32
:100A80000FBECDBF09942A88398848885F846E8458
:100A90007D848C849B84AA84B984C884DF80EE80A2
:100AA000FD800C811B81AA81B981CE0FD11D0FB6AB
:100AB000F894DEBF0FBECDBFED010895F894FFCFCF
:040AC0002575000098
:00000001FF
