:100000000C9434000C9451000C9451000C94510049
:100010000C942E010C9451000C9451000C9451003E
:100020000C9451000C9451000C9451000C9451000C
:100030000C9451000C9451000C9451000C945100FC
:100040000C9451000C9451000C9451000C945100EC
:100050000C9451000C9451000C9451000C945100DC
:100060000C9451000C94510011241FBECFEFD8E026
:10007000DEBFCDBF11E0A0E0B1E0EEE1F9E002C0EB
:1000800005900D92A430B107D9F711E0A4E0B1E0DA
:1000900001C01D92A331B107E1F70E9452010C94F7
:1000A0008D040C9400009093C5008093C400E1EC93
:1000B000F0E0808188608083808180618083E2ECD1
:1000C000F0E08081866080830895FC0106C0809105
:1000D000C00085FFFCCF9093C60091919923B9F79A
:1000E0000895982F8091C00085FFFCCF9093C600A3
:1000F00008958091C00087FFFCCF8091C6000895CD
:100100000E94650008958EEF0E94710081E50E94B3
:10011000710008951F93813039F0813038F08230BA
:1001200039F08330D9F406C010E405C010E003C0F4
:1001300014E101C014E5160F8EEF0E94710085E4F2
:100140000E947100812F0E94710080E197E228EBEC
:1001500030E0F9013197F1F70197D9F71F91089530
:100160000E94830080E060E00E948A00089584EC91
:1001700099E028EB30E0F9013197F1F70197D9F7D1
:1001800084EC99E028EB30E0F9013197F1F7019721
:10019000D9F78EEF0E94710081E50E9471000895E9
:1001A00086B1982F9870282F20718091060188239E
:1001B00041F4992311F081E021C02223A9F182E0CA
:1001C00028C080910601813049F4992319F41092D6
:1001D000110121C0222341F183E010C0809106016A
:1001E000823049F4992311F083E013C02223E1F413
:1001F0001092110105C0992349F482E08093110106
:10020000809104019091050101960AC0222361F4B6
:1002100081E0809311018091040190910501019783
:100220009093050180930401909111018091060142
:10023000981739F081E08093120180911101809329
:1002400006010895E8E6F0E0808182608083ECE6B4
:10025000F0E0808188618083789408951F920F92E6
:100260000FB60F9211242F933F934F935F936F9389
:100270007F938F939F93AF93BF93EF93FF930E94CE
:10028000D000FF91EF91BF91AF919F918F917F919E
:100290006F915F914F913F912F910F900FBE0F90F3
:1002A0001F9018950F931F93CF93DF9388B18861A8
:1002B00088B98091680082608093680080916C00AA
:1002C000886180936C0078948FE290E00E945300E4
:1002D0000E94B70086B1982F987084FD07C09923BB
:1002E00019F41092060109C081E005C0992311F4A8
:1002F00082E001C083E08093060180910601809333
:10030000110107E011E0C0E0D1E0809112018823E3
:10031000E1F38091120190E00E948000109212019E
:10032000809104019091050100D000D000D0EDB77C
:10033000FEB73196ADB7BEB712961C930E931197C8
:10034000D383C283958384830E94B5018091120177
:100350002DB73EB72A5F3F4F0FB6F8943EBF0FBE92
:100360002DBF90E00E948000D0CFAEE0B0E0EBEB7C
:10037000F1E00C9464040D891E8986E08C831A8355
:1003800009838FEF9FE79E838D839E01275E3F4FFA
:10039000CE0101966F89788DA9010E94D9012F8124
:1003A0003885020F131FF80110822E96E4E00C949A
:1003B0008004ABE0B0E0EFEDF1E00C9456043C01BA
:1003C0002B015A01FC0117821682838181FD03C033
:1003D0006FEF7FEFC6C19AE0892E1E010894211CA1
:1003E000311CF3012381F20123FD859123FF8191CB
:1003F0002F01882309F4B2C1853239F423FD859198
:1004000023FF81912F01853229F490E0B3010E94EE
:10041000CC03E7CF982FFF24EE249924FFE1FF15AA
:10042000D0F09B3269F09C3228F4903259F093322C
:1004300091F40EC09D3249F0903369F441E024C03C
:1004400052E0F52A84E0F82A28C098E0F92A25C06D
:10045000E0E1FE2A22C0F7FC29C0892F80538A30B0
:1004600070F4F6FE05C0989C902C1124980E15C0CF
:10047000E89CE02C1124E80EF0E2FF2A0EC09E3228
:1004800029F4F6FC6BC140E4F42A07C09C3619F449
:1004900050E8F52A02C0983649F4F20123FD9591FF
:1004A00023FF91912F01992309F0B8CF892F85540B
:1004B000833018F08052833038F444E050E0A40ECA
:1004C000B51E5FE359830FC0933631F0933779F04F
:1004D000933509F056C020C0F5018081898342E040
:1004E00050E0A40EB51E610101E010E012C0F5015C
:1004F000C080D180F6FC03C06FEF7FEF02C0692D92
:1005000070E042E050E0A40EB51EC6010E94C10397
:100510008C015FE7F52214C0F501C080D180F6FCA4
:1005200003C06FEF7FEF02C0692D70E042E050E042
:10053000A40EB51EC6010E94B6038C0150E8F52A30
:10054000F3FE07C01AC080E290E0B3010E94CC0322
:10055000EA948E2D90E008171907A8F30EC0F60153
:10056000F7FC8591F7FE81916F0190E0B3010E9445
:10057000CC03E110EA94015010400115110579F700
:10058000EAC0943611F0993669F5F7FE08C0F50116
:10059000208131814281538184E090E00AC0F501DD
:1005A000808191819C01442737FD4095542F82E042
:1005B00090E0A80EB91E9FE6F92257FF09C050959A
:1005C0004095309521953F4F4F4F5F4FE0E8FE2A11
:1005D000CA01B901A1012AE030E00E94F803D82E37
:1005E000D21840C0953729F41F2D1F7E2AE030E035
:1005F0001DC01F2D197F9F3661F0903720F498356C
:1006000009F0ACC00FC0903739F0983709F0A6C098
:1006100004C028E030E00AC0106114FD146020E13D
:1006200030E004C014FD166020E132E017FF08C07E
:10063000F501608171818281938144E050E008C0BE
:10064000F50180819181BC0180E090E042E050E0C2
:10065000A40EB51EA1010E94F803D82ED2188FE770
:10066000F82EF122F6FE0BC05EEFF522D91438F415
:10067000F4FE07C0F2FC05C08FEEF82202C01D2D6B
:1006800001C0192DF4FE0DC0FE01ED0DF11D80819C
:10069000803319F499EEF92208C01F5FF2FE05C0FD
:1006A00003C08F2D867809F01F5F0F2DF3FC14C057
:1006B000F0FE0FC01E1510F09D2C0BC09D2C9E0C43
:1006C000911A1E2D06C080E290E0B3010E94CC0377
:1006D0001F5F1E15C0F304C01E1510F4E11A01C0FF
:1006E000EE2404FF0FC080E390E0B3010E94CC032E
:1006F00002FF1DC001FD03C088E790E00EC088E541
:1007000090E00BC0802F867891F001FF02C08BE251
:1007100001C080E2F7FC8DE290E0B3010E94CC03BF
:1007200006C080E390E0B3010E94CC039A94D914F0
:10073000C0F3DA94F101ED0DF11D808190E0B30179
:100740000E94CC03DD20A9F706C080E290E0B3014F
:100750000E94CC03EA94EE20C1F743CEF3016681F8
:100760007781CB012B96E2E10C947204FC01059099
:10077000615070400110D8F7809590958E0F9F1FA3
:100780000895FC016150704001900110D8F78095E8
:1007900090958E0F9F1F08950F931F93CF93DF9314
:1007A0008C01EB018B8181FF1BC082FF0DC02E816C
:1007B0003F818C819D812817390764F4E881F98194
:1007C0000193F983E88306C0E885F985802F0995B0
:1007D000892B31F48E819F8101969F838E8302C085
:1007E0000FEF1FEFC801DF91CF911F910F91089577
:1007F000FA01AA27283051F1203181F1E8946F9352
:100800006E7F6E5F7F4F8F4F9F4FAF4FB1E03ED0F7
:10081000B4E03CD0670F781F891F9A1FA11D680F95
:10082000791F8A1F911DA11D6A0F711D811D911DC8
:10083000A11D20D009F468943F912AE0269F11243D
:100840003019305D3193DEF6CF010895462F4770A1
:10085000405D4193B3E00FD0C9F7F6CF462F4F70FC
:10086000405D4A3318F0495D31FD4052419302D05A
:10087000A9F7EACFB4E0A695979587957795679500
:10088000BA95C9F700976105710508959B01AC0100
:100890000A2E06945795479537952795BA95C9F727
:1008A000620F731F841F951FA01D08952F923F9202
:1008B0004F925F926F927F928F929F92AF92BF9270
:1008C000CF92DF92EF92FF920F931F93CF93DF931C
:1008D000CDB7DEB7CA1BDB0B0FB6F894DEBF0FBE79
:1008E000CDBF09942A88398848885F846E847D84C6
:1008F0008C849B84AA84B984C884DF80EE80FD80C8
:100900000C811B81AA81B981CE0FD11D0FB6F8943D
:0E091000DEBF0FBECDBFED010895F894FFCFFE
:04091E00256420002C
:00000001FF
