:100000000C9434000C9451000C9451000C94510049
:100010000C9451000C9451000C9451000C9451001C
:100020000C9451000C9451000C9451000C9451000C
:100030000C9451000C9451000C9451000C945100FC
:100040000C9451000C9451000C9451000C945100EC
:100050000C9451000C9451000C9451000C945100DC
:100060000C9451000C94510011241FBECFEFD8E026
:10007000DEBFCDBF11E0A0E0B1E0ECE1F3E002C0F3
:1000800005900D92A431B107D9F711E0A4E1B1E0D8
:1000900001C01D92AA31B107E1F70E94AA000C9499
:1000A0008C010C9400009093C5008093C400E1EC97
:1000B000F0E0808188608083808180618083E2ECD1
:1000C000F0E08081866080830895FC0106C0809105
:1000D000C00085FFFCCF9093C60091919923B9F79A
:1000E0000895982F8091C00085FFFCCF9093C600A3
:1000F00008958091C00087FFFCCF8091C6000895CD
:10010000529A5A9880E090E90197F1F75A9A089527
:1001100052984A99FECF4A9BFECF4A99FECF089546
:100120008091140120E030E049E44A9BFECF942FF7
:100130009A95F1F74A9B03C0880F816001C0880F30
:100140004A99FECF2F5F3F4F2830310571F78093DA
:1001500014010895EF92FF920F931F93DF93CF93B3
:1001600000D000D00F92CDB7DEB78FE290E00E94B2
:1001700053008E010F5F1F4F88EBE82EF12C0E9479
:1001800080000E9488000E949000809318010E94C5
:100190009000809315010E949000809317010E94A7
:1001A0009000809319010E9490008093160180E0D6
:1001B00091E00E94650080911801482F50E08091E5
:1001C00015019A01280F311D80911701280F311D4B
:1001D00080911901280F311D8091160190E0281798
:1001E000390719F085E091E047C0CA01B8014AE03B
:1001F00050E00E944701C8010E9465008BE091E039
:100200000E9465008091150190E0B8014AE050E03D
:100210000E944701C8010E9465008DE091E00E94A4
:1002200065008091170190E0B8014AE050E00E941B
:100230004701C8010E9465008BE091E00E946500C3
:100240008091190190E0B8014AE050E00E94470116
:10025000C8010E9465008FE091E00E9465008091D6
:10026000160190E0B8014AE050E00E944701C80141
:100270000E94650082E191E00E94650080E29EE4B8
:10028000F7013197F1F7019709F479CFF9CFFB0125
:100290009F01E8944230C4F04532B4F44A3029F466
:1002A00097FB1EF4909581959F4F642F77270E94AE
:1002B0007801805D8A330CF0895D8193CB010097D2
:1002C000A1F716F45DE251931082C9010C94680104
:1002D000DC01FC01672F71917723E1F7329704C0AD
:1002E0007C916D9370836291AE17BF07C8F3089538
:1002F000AA1BBB1B51E107C0AA1FBB1FA617B7074C
:1003000010F0A61BB70B881F991F5A95A9F7809567
:0C0310009095BC01CD010895F894FFCF3A
:10031C00706F6F70004572726F72002E0025004373
:04032C00200020008D
:00000001FF
