:100000000C9434000C9449000C9449000C94490061
:100010000C9449000C9449000C9449000C9449003C
:100020000C9449000C9449000C9449000C9449002C
:100030000C9449000C9449000C9449000C9449001C
:100040000C9449000C9449000C9449000C9449000C
:100050000C9449000C9449000C9449000C944900FC
:100060000C9449000C94490011241FBECFEFD8E036
:10007000DEBFCDBF11E0A0E0B1E0E8E2F8E002C0F1
:1000800005900D92A630B107D9F70E94A0000C94FC
:1000900012040C940000ECE7F0E08081806480831F
:1000A000808180628083EAE7F0E0808187608083DE
:1000B000808180688083089590917C00907F9093E8
:1000C0007C0090917C008F70892B80937C008091C4
:1000D0007A00806480937A0080917A0086FDFCCF5C
:1000E0008091790008959093C5008093C400E1EC5D
:1000F000F0E0808188608083808180618083E2EC91
:10010000F0E08081866080830895FC0106C08091C4
:10011000C00085FFFCCF9093C60091919923B9F759
:100120000895982F8091C00085FFFCCF9093C60062
:1001300008958091C00087FFFCCF8091C60008958C
:100140006F927F928F929F92AF92BF92CF92DF92E7
:10015000EF92FF920F931F93DF93CF93CDB7DEB74C
:1001600064970FB6F894DEBF0FBECDBF0E944B0060
:100170008FE290E00E947300209A02E031E0632E4B
:10018000712C12E07E010894E11CF11C24E1822E06
:10019000912C90E0A92E91E0B92E88EBC82ED12C9D
:1001A00028984F99FECF802F8A95F1F740E050E0D4
:1001B00027E130E0289A802F8A95F1F728984F9B05
:1001C00009C0C301022E02C0880F991F0A94E2F7EA
:1001D000482B592B802F8A95F1F7215030408FEF13
:1001E0002F3F380739F7289A812F8A95F1F72898F9
:1001F000812F8A95F1F7289A812F8A95F1F728980F
:10020000812F8A95F1F7ADB7BEB718970FB6F8945E
:10021000BEBF0FBEADBFEDB7FEB731961296FC92D2
:10022000EE92119793828282B582A482578346838D
:100230000E942D018DB79EB708960FB6F8949EBF09
:100240000FBE8DBFC7010E94850080E395E7F601D0
:100250003197F1F70197D9F7A3CFAEE0B0E0E3E330
:10026000F1E00C94E9030D891E898F89988D97FF21
:1002700002C080E090E801979E838D831A830983F2
:1002800086E08C839E01255E3F4FCE010196698DED
:100290007A8DA9010E945E014D815E8157FD0AC0E1
:1002A0002F813885421753070CF49A01020F131F50
:1002B000F80110822E96E4E00C940504ABE0B0E067
:1002C000E4E6F1E00C94DB033C012B015A01FC0154
:1002D00017821682838181FD03C06FEF7FEFC6C155
:1002E0009AE0892E1E010894211C311CF301238100
:1002F000F20123FD859123FF81912F01882309F4C9
:10030000B2C1853239F423FD859123FF81912F01FC
:10031000853229F490E0B3010E945103E7CF982F72
:10032000FF24EE249924FFE1FF15D0F09B3269F001
:100330009C3228F4903259F0933291F40EC09D32E1
:1003400049F0903369F441E024C052E0F52A84E09A
:10035000F82A28C098E0F92A25C0E0E1FE2A22C048
:10036000F7FC29C0892F80538A3070F4F6FE05C04F
:10037000989C902C1124980E15C0E89CE02C112418
:10038000E80EF0E2FF2A0EC09E3229F4F6FC6BC1A3
:1003900040E4F42A07C09C3619F450E8F52A02C05C
:1003A000983649F4F20123FD959123FF91912F0195
:1003B000992309F0B8CF892F8554833018F08052E3
:1003C000833038F444E050E0A40EB51E5FE3598357
:1003D0000FC0933631F0933779F0933509F056C05A
:1003E00020C0F5018081898342E050E0A40EB51E53
:1003F000610101E010E012C0F501C080D180F6FC7F
:1004000003C06FEF7FEF02C0692D70E042E050E063
:10041000A40EB51EC6010E9446038C015FE7F522BB
:1004200014C0F501C080D180F6FC03C06FEF7FEFF0
:1004300002C0692D70E042E050E0A40EB51EC60176
:100440000E943B038C0150E8F52AF3FE07C01AC056
:1004500080E290E0B3010E945103EA948E2D90E077
:1004600008171907A8F30EC0F601F7FC8591F7FEEF
:1004700081916F0190E0B3010E945103E110EA9471
:10048000015010400115110579F7EAC0943611F0BA
:10049000993669F5F7FE08C0F50120813181428166
:1004A000538184E090E00AC0F501808191819C0134
:1004B000442737FD4095542F82E090E0A80EB91EE6
:1004C0009FE6F92257FF09C0509540953095219538
:1004D0003F4F4F4F5F4FE0E8FE2ACA01B901A1012B
:1004E0002AE030E00E947D03D82ED21840C0953714
:1004F00029F41F2D1F7E2AE030E01DC01F2D197F1B
:100500009F3661F0903720F4983509F0ACC00FC0E9
:10051000903739F0983709F0A6C004C028E030E0E1
:100520000AC0106114FD146020E130E004C014FD25
:10053000166020E132E017FF08C0F501608171818B
:100540008281938144E050E008C0F501808191816F
:10055000BC0180E090E042E050E0A40EB51EA10195
:100560000E947D03D82ED2188FE7F82EF122F6FED6
:100570000BC05EEFF522D91438F4F4FE07C0F2FC8C
:1005800005C08FEEF82202C01D2D01C0192DF4FE0A
:100590000DC0FE01ED0DF11D8081803319F499EE3F
:1005A000F92208C01F5FF2FE05C003C08F2D8678B8
:1005B00009F01F5F0F2DF3FC14C0F0FE0FC01E15D5
:1005C00010F09D2C0BC09D2C9E0C911A1E2D06C068
:1005D00080E290E0B3010E9451031F5F1E15C0F33B
:1005E00004C01E1510F4E11A01C0EE2404FF0FC070
:1005F00080E390E0B3010E94510302FF1DC001FDA2
:1006000003C088E790E00EC088E590E00BC0802F23
:10061000867891F001FF02C08BE201C080E2F7FC16
:100620008DE290E0B3010E94510306C080E390E0A8
:10063000B3010E9451039A94D914C0F3DA94F101E2
:10064000ED0DF11D808190E0B3010E945103DD208A
:10065000A9F706C080E290E0B3010E945103EA943A
:10066000EE20C1F743CEF30166817781CB012B9653
:10067000E2E10C94F703FC01059061507040011019
:10068000D8F7809590958E0F9F1F0895FC016150BB
:10069000704001900110D8F7809590958E0F9F1FA4
:1006A00008950F931F93CF93DF938C01EB018B8100
:1006B00081FF1BC082FF0DC02E813F818C819D81F7
:1006C0002817390764F4E881F9810193F983E883F5
:1006D00006C0E885F985802F0995892B31F48E8134
:1006E0009F8101969F838E8302C00FEF1FEFC80189
:1006F000DF91CF911F910F910895FA01AA27283019
:1007000051F1203181F1E8946F936E7F6E5F7F4FDE
:100710008F4F9F4FAF4FB1E03ED0B4E03CD0670F5A
:10072000781F891F9A1FA11D680F791F8A1F911DAD
:10073000A11D6A0F711D811D911DA11D20D009F4FD
:1007400068943F912AE0269F11243019305D31933F
:10075000DEF6CF010895462F4770405D4193B3E028
:100760000FD0C9F7F6CF462F4F70405D4A3318F0CF
:10077000495D31FD4052419302D0A9F7EACFB4E080
:10078000A6959795879577956795BA95C9F7009738
:100790006105710508959B01AC010A2E06945795D9
:1007A000479537952795BA95C9F7620F731F841F30
:1007B000951FA01D08952F923F924F925F926F92C6
:1007C0007F928F929F92AF92BF92CF92DF92EF92E1
:1007D000FF920F931F93CF93DF93CDB7DEB7CA1B62
:1007E000DB0B0FB6F894DEBF0FBECDBF09942A888D
:1007F000398848885F846E847D848C849B84AA8435
:10080000B984C884DF80EE80FD800C811B81AA81C1
:10081000B981CE0FD11D0FB6F894DEBF0FBECDBF8C
:08082000ED010895F894FFCFEB
:06082800202575200000F0
:00000001FF
