:100000000C9434000C9449000C9449000C94490061
:100010000C9449000C9449000C9449000C9449003C
:100020000C9449000C9449000C9449000C9449002C
:100030000C9449000C9449000C9449000C9449001C
:100040000C9449000C9449000C9449000C9449000C
:100050000C9449000C9449000C9449000C944900FC
:100060000C9449000C94490011241FBECFEFD8E036
:10007000DEBFCDBF11E0A0E0B1E0E6ECF1E002C0F0
:1000800005900D92AC34B107D9F70E94B0000C94E2
:10009000E1000C94000084EC99E028EB30E0F901D9
:1000A0003197F1F70197D9F784EC99E028EB30E02C
:1000B000F9013197F1F70197D9F78091C00085FFD9
:1000C000FCCF8EEF8093C6008091C00085FFFCCFEF
:1000D00088E58093C6000895982F8091C00085FF21
:1000E000FCCF8EEF8093C6008091C00085FFFCCFCF
:1000F00087E48093C6008091C00085FFFCCF6F5FCE
:100100006093C6008091C00085FFFCCF9F5F9093F5
:10011000C60008958FE190E09093C5008093C400DD
:10012000E1ECF0E080818860808386E08093C2000B
:100130000895982F8091C00085FFFCCF9093C60052
:100140000895FC0106C08091C00085FFFCCF90930C
:10015000C60091919923B9F708950E94A1000895CE
:100160008FE190E09093C5008093C4008091C1001E
:1001700088608093C10086E08093C2000E944B009B
:1001800080E060E00E946C0080E091E00E94A100AD
:1001900081E062E00E946C0085E191E00E94A10094
:1001A00082E062E00E946C0086E291E00E94A10081
:1001B00083E060E00E946C0087E391E00E94A10070
:0601C000FFCFF894FFCF11
:1001C60031323334353637383930313233343536E7
:1001D60037383930003E3E205553432045453435A7
:1001E600394C203C3C003E3E2061743332382D367B
:1001F6002E63203C3C3C002D2D20417072696C2002
:0C02060031312C2032303131202D2D0000
:00000001FF
