:100000000C9434000C9449000C9449000C94490061
:100010000C9449000C9449000C9449000C9449003C
:100020000C9449000C9449000C9449000C9449002C
:100030000C9449000C9449000C9449000C9449001C
:100040000C9449000C9449000C9449000C9449000C
:100050000C9449000C9449000C9449000C944900FC
:100060000C9449000C94490011241FBECFEFD8E036
:10007000DEBFCDBF11E0A0E0B1E0E6ECF1E002C0F0
:1000800005900D92A234B107D9F70E94BA000C94E2
:10009000E1000C9400009093C5008093C400E1EC53
:1000A000F0E0808188608083808180618083E2ECE1
:1000B000F0E08081866080830895FC0106C0809115
:1000C000C00085FFFCCF9093C60091919923B9F7AA
:1000D0000895982F8091C00085FFFCCF9093C600B3
:1000E00008958091C00087FFFCCF8091C6000895DD
:1000F0000E945D0008951F93813049F0813028F0FF
:10010000823039F0833041F406C010E005C010E4BD
:1001100003C014E101C014E5160F8EEF0E946900C0
:1001200085E40E946900812F0E94690080E197E2C6
:1001300028EB30E0F9013197F1F70197D9F71F91DA
:10014000089584EC99E028EB30E0F9013197F1F75C
:100150000197D9F784EC99E028EB30E0F901319769
:10016000F1F70197D9F78EEF0E94690081E50E94AF
:10017000690008958FE290E00E944B000E94A10068
:1001800080E060E00E947B0080E091E00E947800C7
:1001900081E061E00E947B008BE091E00E947800AA
:1001A00082E062E00E947B008CE191E00E94780096
:1001B00083E063E00E947B008DE291E00E94780082
:0601C000FFCFF894FFCF11
:1001C60031323334353637383930003E3E205553D8
:1001D600432045453435394C203C3C003E3E2061A9
:1001E600743332382D362E63203C3C3C002D2D20B6
:1001F600417072696C2031312C2032303131202D22
:020206002D00C9
:00000001FF
