:100000000C9434000C9449000C9449000C94490061
:100010000C9449000C9449000C9449000C9449003C
:100020000C9449000C9449000C9449000C9449002C
:100030000C9449000C9449000C9449000C9449001C
:100040000C9449000C9449000C9449000C9449000C
:100050000C9449000C9449000C9449000C944900FC
:100060000C9449000C94490011241FBECFEFD8E036
:10007000DEBFCDBF11E0A0E0B1E0E4EEF1E002C0F0
:1000800005900D92A234B107D9F70E94C4000C94D8
:10009000F0000C94000084EC99E028EB30E0F901CA
:1000A0003197F1F70197D9F784EC99E028EB30E02C
:1000B000F9013197F1F70197D9F78091C00085FFD9
:1000C000FCCF8EEF8093C6008091C00085FFFCCFEF
:1000D00081E58093C6000895813049F0813028F091
:1000E000823039F0833041F406C090E005C090E4DE
:1000F00003C094E101C094E58091C00085FFFCCF6E
:100100008EEF8093C6008091C00085FFFCCF85E410
:100110008093C6008091C00085FFFCCF960F90931E
:10012000C60080E197E228EB30E0F9013197F1F762
:100130000197D9F708958FE290E09093C5008093DE
:10014000C400E1ECF0E08081886080838081806180
:10015000808386E08093C2000895982F8091C0002C
:1001600085FFFCCF9093C6000895FC0106C08091E6
:10017000C00085FFFCCF9093C60091919923B9F7F9
:1001800008950E94B50008950E949B000E944B00B4
:1001900080E060E00E946C0080E091E00E94B50089
:1001A00081E061E00E946C008BE091E00E94B5006C
:1001B00082E062E00E946C008CE191E00E94B50058
:1001C00083E063E00E946C008DE291E00E94B50044
:1001D000FFCF8091C00087FFFCCF8091C6000895BB
:0401E000F894FFCFC1
:1001E40031323334353637383930003E3E205553BA
:1001F400432045453435394C203C3C003E3E20618B
:10020400743332382D362E63203C3C3C002D2D2097
:10021400417072696C2031312C2032303131202D03
:020224002D00AB
:00000001FF
