:100000000C9434000C9449000C9449000C94490061
:100010000C9449000C9449000C9449000C9449003C
:100020000C9449000C9449000C9449000C9449002C
:100030000C9449000C9449000C9449000C9449001C
:100040000C9449000C9449000C9449000C9449000C
:100050000C9449000C9449000C9449000C944900FC
:100060000C9449000C94490011241FBECFEFD8E036
:10007000DEBFCDBF11E0A0E0B1E0E0E1F2E002C000
:1000800005900D92AC34B107D9F70E94DA000C94B8
:1000900006010C94000084EC99E028EB30E0F901B3
:1000A0003197F1F70197D9F784EC99E028EB30E02C
:1000B000F9013197F1F70197D9F78091C00085FFD9
:1000C000FCCF8EEF8093C6008091C00085FFFCCFEF
:1000D00082E48093C6008091C00085FFFCCF8EEF44
:1000E0008093C6008091C00085FFFCCF81E580939E
:1000F000C6008091C00085FFFCCF8EEF8093C600C4
:100100008091C00085FFFCCF86E48093C60080917B
:10011000C00085FFFCCF8EEF8093C6008091C000A9
:1001200085FFFCCF8BE48093C6000895982F8091C3
:10013000C00085FFFCCF8EEF8093C6008091C00089
:1001400085FFFCCF85E48093C6008091C00085FFC9
:10015000FCCF84E1989FC0011124680F6093C60012
:1001600008958FE290E09093C5008093C400E1EC85
:10017000F0E080818860808380818061808386E078
:100180008093C2000895982F8091C00085FFFCCF16
:100190009093C6000895FC0106C08091C00085FFC1
:1001A000FCCF9093C60091919923B9F708950E94CE
:1001B000CB0008950E94B1000E944B0080E060E0F7
:1001C0000E94960080E091E00E94CB0081E062E016
:1001D0000E94960085E191E00E94CB0082E062E0FF
:1001E0000E94960086E291E00E94CB0083E060E0EE
:1001F0000E94960087E391E00E94CB00FFCF8091A0
:10020000C00087FFFCCF8091C6000895F894FFCF0F
:10021000313233343536373839303132333435369C
:1002200037383930003E3E2055534320454534355C
:10023000394C203C3C003E3E2061743332382D3630
:100240002E63203C3C3C002D2D20417072696C20B7
:0C02500031312C2032303131202D2D00B6
:00000001FF
