:100000000C9434000C943E000C943E000C943E0082
:100010000C943E000C943E000C943E000C943E0068
:100020000C943E000C943E000C943E000C943E0058
:100030000C943E000C943E000C943E000C943E0048
:100040000C943E000C943E000C943E000C943E0038
:100050000C943E000C943E000C943E000C943E0028
:100060000C943E000C943E0011241FBECFEFD8E04C
:10007000DEBFCDBF0E9440000C945E000C940000D7
:10008000389A399A3A9A3B9A3C9A3D9A389A399AD0
:100090003A9A3B9A3C9A3D9A3F9A509A519A529A70
:1000A000539A549A559A569A579A409A4098429A17
:1000B0004298449A4498589A5898F7CFF894FFCFAA
:00000001FF
